:10254300564125312E32660A00414125312E32662D
:102553000A005357310D0A005357300D0A005354E4
:10256300300A005044533630000418000001446D13
:1025730064566F6C7400010DAE0406000001446DD7
:10258300644375727200010DB20418000001566FA6
:102593006C7400000000010DB604060000014375D1
:1025A300727200000000010DBA01320000004F6E8C
:1025B300000000000000010DBE000000000000004C
:0925C3000000000000000000000F
:0F2DAA000114010308FF256C440DAA000000006E
:102C6C00EF6019900DAE12102900000000900DB20B
:102C7C0012102900000000E4900DBEF07D037F01CE
:102C8C001229257F02122E3375840F75A481C287F9
:032C9C00D21A2227
:102E5200150BA80BEFF6A80BE6FF600964016005ED
:0A2E6200EF64047002D21A050B227F
:102B9900EF7041F537AF37EF3395E0FEC3EF94207F
:102BA900EE64809480502A122ABC8F36EF3395E068
:102BB900FEEFF47002EEF46018AF37EF3395E0FEE4
:102BC900741B2FF582740D3EF583E536F0053780C9
:062BD900C4AF37227F00AB
:012BDF0022D3
:102CD0008B368A378938120EBCAB39AA3AA93B1217
:102CE0000F02AB36AA37A938900001120ED5AB39C6
:0D2CF000AA3AA93B900001120F147F0222A6
:101CAF00301A59C21A7BFF7A257943900DAEE0FCAA
:101CBF00A3E0FDA3E0FEA3E0F5428E418D408C3FF3
:101CCF001211E0122DF57BFF7A25794C900DB2E0C1
:101CDF00FCA3E0FDA3E0FEA3E0F5428E418D408C16
:101CEF003F1211E0122DF5900DBEE07BFF60067ADA
:101CFF0025795580047A25795B122D80122E7FC8A5
:101D0F00ECC8C9EDC9CAEECACBEFCB900DAAE0FC67
:101D1F00A3E0FDA3E0FEA3E02464FFE43EFEE43D68
:101D2F00FDE43CFCD3120FF34076122E7F900DAAE8
:101D3F0012101D7BFF7A2579611211E0122DF57BB0
:101D4F00017A0D79597540C87D501221C7900DA9A0
:101D5F00EFF03395E0FEEF64124E70177B017A0DB2
:101D6F007960122B51900DB612101D7B017A0D79EF
:101D7F00658024900DA9E0FF3395E0FEEF64134ECC
:101D8F00701E7B017A0D7960122B51900DB61210D7
:101D9F001D7B017A0D7966122B51900DBA12101D11
:031DAF0043870166
:011DB200220E
:10000E00323032322D30372D3131202D2061646265
:05001E003234376500DB
:10185C007BFF7A00790E7D2D1228CFEA494B601957
:10186C007BFF7A00790E7D2D1228CFE92402F9E452
:10187C003A8B40F54189428004E4FEFF22AB40AA3A
:10188C0041A942900001120ED5FF3395E0FEC3EF43
:10189C009430EE648094804016D3EF9439EE6480DB
:1018AC009480500B900001120ED524D0FF802E9006
:1018BC000001120ED5FF3395E0FEC3EF9461EE6488
:1018CC008094804016D3EF9466EE64809480500B25
:1018DC00900001120ED524A9FF80027F00EF7D003D
:1018EC00FC120EBCFF3395E0FEC3EF9430EE648027
:1018FC0094804019D3EF9439EE64809480500EABF1
:10190C0040AA41A942120EBC24D0FF802EAB40AAA3
:10191C0041A942120EBCFF3395E0FEC3EF9461EE79
:10192C00648094804013D3EF9466EE64809480506E
:10193C0008120EBC24A9FF80027F00EFC454F04CA7
:10194C00FCAB40AA41A942900002120ED5FF339580
:10195C00E0FEC3EF9430EE648094804016D3EF9495
:10196C0039EE64809480500B900002120ED524D076
:10197C00FF8034AB40AA41A942900002120ED5FF61
:10198C003395E0FEC3EF9461EE648094804016D3EF
:10199C00EF9466EE64809480500B900002120ED58A
:1019AC0024A9FF80027F00EF75F010A4FFE5F04C36
:1019BC00FEEF4DFFAB40AA41A942900003120ED599
:1019CC00FD3395E0FCC3ED9430EC648094804016BC
:1019DC00D3ED9439EC64809480500B900003120E7C
:1019EC00D524D0FD8034AB40AA41A942900003120B
:1019FC000ED5FD3395E0FCC3ED9461EC64809480CE
:101A0C004016D3ED9466EC64809480500B900003E8
:101A1C00120ED524A9FD80027D00EF4DFF900D59CB
:051A2C00EEF0A3EFF055
:011A31002292
:1015ED00E47880F6122EA5C2B575840F75E104E47A
:1015FD00F5E275E344F584F5B775840F758A83F5C7
:10160D0097122E14E4FF122E3343EF04E4F53EF54A
:10161D003F7D01AF3F122C9F053FE53F7002053E18
:10162D00C39402E53E940040E8E4F520C213C211D4
:10163D00C217C216C2157880F608F6785BF618F652
:10164D007860F6F53EF53F7419253FF582740C353B
:10165D003EF583E4F0053FE53F7002053EB400E73B
:10166D00E53EB401E2E4F53EF53F7419253FF58200
:10167D00740D353EF583E4F0053FE53F7002053E00
:10168D006440453E70E4E4F584E5EF54027010E5E6
:10169D00EF5408D39400748094804003D38001C329
:1016AD0092037D08E4FF122925E4785FF67858F659
:1016BD00AB08AA09A90A7858E6FF75F010A4F582BF
:1016CD0085F083120ED5FE785F26F6EE600578580C
:1016DD000680DDD3EF9400748094804030AB08AA6F
:1016ED0009A90A90000D12106A120EBCFF74551252
:1016FD000F02120EBC64556002D21574AA120F02AD
:10170D00120EBC64AA6002D215EF120F02E4F5842A
:10171D00E5EF5402D394007480948040047F0180DF
:10172D0002E4FF121EA18F3DE53D54017036C21239
:10173D0074FF7862F608F608F608F67E007F107DD5
:10174D00007B007A0079681210C07543FF7544253F
:10175D007545667546007547107B007A00796812ED
:10176D002A1D8002D21212185C7866A60608A607FA
:10177D00E53D54026003021833F53EF53FE53FC4E5
:10178D00F8540FC868FFE53EC454F048FEAB08AAF4
:10179D0009A90A8F82F583120ED5700302182AE962
:1017AD002FF9EA3EFA900004120ED520E264E4F51A
:1017BD003CE53CC37814965059E53FC4F8540FC826
:1017CD0068FFE53EC454F048AB08AA09A90A8F8208
:1017DD00F583120ED5FF7E00C006C0077D00E53FE4
:1017ED00C4F8540FC868FFE53EC454F048FEE92F15
:1017FD00F9EA3EFA90000D12106A785FE6853CF02A
:10180D00A429F9EA35F0FAD007D0061210C0053C2C
:10181D00809F053FE53F7002053E02178A7F01124A
:10182D002C6CC2148007E4FF122C6CD214E4F53E2C
:10183D00F53F7A007B967D03AF3F1222FF053FE512
:0E184D003F7002053EC39402E53E940040E465
:01185B00226A
:050003007860E6FF2219
:03002300021A328C
:101A3200C0E0C0F0C083C082C0D075D000C000C07A
:101A420001C002C003C004C005C006C007309970BF
:101A5200C299785B06795BE7788166702EF6785BCF
:011A6200F68D
:101A630075240AD3E524940074809480401800758B
:101A73002503D3E525940074809480400500152543
:061A830080F0152480DD57
:041A8900C2B580352D
:101A8D00752414D3E5249400748094804018007557
:101A9D002503D3E525940074809480400500152519
:061AAD0080F0152480DD2D
:101AB300785BE62419F582E4340DF583E0F599208B
:101AC3009803021B80209A08201305C298021B7CEE
:101AD300C29A785AE6062419F582E4340CF583E5B4
:101AE30099F0C298E6FF7E0064017013900C19E030
:101AF300FD7004F6021B80ED540724027861F6EFB3
:101B030064024E700E7861E664097007900C1AE067
:101B13002403F6785AE6FFFD7C00B40007ECB40119
:101B230003F68059EFC37861964052ED24FFFDEC34
:101B330034FFFC7B017A0C7919122428785AE624A5
:101B430018F582E4340CF583E06F60047600802D91
:101B5300752414D3E5249400748094804018007590
:101B63002503D3E525940074809480400500152552
:061B730080F0152480DD66
:101B79001200A6785A7600D007D006D005D004D036
:101B890003D002D001D000D0D0D082D083D0F0D001
:021B9900E03238
:10239400900C1AE075F010A4AB08250AF9E509358C
:1023A400F0FA90000D12106A7860E6FF18E68FF0DC
:1023B400A42528F582E435F0F583120ED5FF7B00C1
:0423C4007A007926FC
:1023C8008F368B378A388939E4F584EA494B601CA3
:1023D800AB37AA38A939120EBCFFE536FD7C0012CE
:0C23E8002ECBAB37AA38A939EF120F0238
:1023F400753A14D3E53A94007480948040180075BB
:102404003B03D3E53B940074809480400500153B66
:0624140080F0153A80DDA6
:0E241A008536997F01122D293099FDC2992235
:10279700900D197478F0785AE62418F582E4340C11
:0927A700F583E0900D1AF07F02A9
:1027B000150BA80BEFF6150B150BE4F584A80B0809
:0727C00008E67881F6D2B5AE
:1027C700A80B7614A80BE6D3940074809480401D60
:1027D70000087603A80B08E6D39400748094804021
:0D27E7000700A80B081680ECA80B1680D781
:0D27F400900D19E0F599050B050B050B2262
:102A6F00C9EFC9E964017028EDC39B40397814E6BA
:102A7F00FFEB2FFFE433FEEDC39FEE6480F874800D
:102A8F00985023D213C3ED9B7860F6785C760122C1
:102A9F00CFE9CFEF64027014ED6B700AD213786038
:0D2AAF00F6785C760222C213E4785CF62211
:10272B00C9EFC9BAFF15BBFF12ED6B7002EC6A70F3
:10273B0054D2137860F6785CE9F622E96401702BC9
:10274B00C3ED9BEC9A40227814E62BFFE43AFEC3D0
:10275B00ED9FEC9E5013D213CFEBCFCEEDCEC3EE4D
:10276B009F7860F6785C760122801ACFE9CFEF6410
:10277B00027018ED6B7002EC6A700AD2137860F677
:0C278B00785C760222C213E4785CF6222F
:1000A600900C19E0FF54F8F527E4F584EF12109A46
:1000B60000F30901000A011310011C11012D1201A0
:1000C6004419015A1A017F20018828022829034968
:1000D60033038A3703C13903DB4103E64903F05092
:1000E60004386103137004309800000468900C1AF9
:1000F600E0FD7863E6FB7F018027900C1AE0FCA305
:10010600E0FD7862E6FA08E6FB7F01802BD21378E1
:100116005C7603020468900C1AE0FD7865E6FB7FC6
:1001260002122A6F020468900C1AE0FCA3E0FD7824
:1001360064E6FA08E6FB7F0212272B020468900C9D
:100146001AE0FD7863E6FB7F01122A6F2013030293
:100156000468801A900C1AE0FCA3E0FD7862E6FAC7
:1001660008E6FB7F0112272B201303020468900D7B
:10017600197478F07F01020465E4F58475EF1002C6
:100186000468C2ACE4F526D2B5FB7A0079267F7FF7
:100196001223C87B007A0079267F181223C87B00B9
:1001A6007A0079267F051223C87858E61223C1788B
:1001B60062E61223C17863E61223C17864E612234D
:1001C600C17865E61223C17866E61223C17867E630
:1001D6001223C1E4F528C3E5289410748094805056
:1001E6000D74682528F8E61223C1052880E87B00EF
:0901F6007A007900AF261223C83B
:1001FF0075340AD3E53494007480948040180075E8
:10020F003503D3E53594007480948040050015358F
:06021F0080F0153480DDC3
:100225000202FE900C1AE0FFC378589640030203C1
:1002350005EF75F010A4250AF9E50935F0850831B3
:10024500F5328933C2ACE4F526D2B5FB7A007926BE
:100255007F7F1223C87B007A0079267F0D1223C881
:10026500AB31AA32A933120EBC1223C1AB31AA326B
:10027500A9339000011223BEAB31AA32A9339000F5
:10028500021223BEAB31AA32A9339000031223BE5A
:10029500AB31AA32A9339000041223BEE4F528C37A
:1002A500E528940874809480501EAB31E53324050D
:1002B500F9E43532FA7E00E92528F9EE3AFA120E0C
:1002C500BC1223C1052880D77B007A007900AF26B0
:0302D5001223C829
:1002D80075340AD3E534940074809480401800750E
:1002E8003503D3E5359400748094804005001535B6
:0602F80080F0153480DDEA
:1002FE00C2B5D2AC020468900D197478F0E4A3F084
:10030E007F02020465122E927882121011900D193E
:10031E00747CF07882E6A3F008E6A3F008E6A3F07A
:10032E0008E6A3F07C007D057B017A0D7919122475
:10033E0028900D1EEFF07F06020465900C1AE0FF68
:10034E007E006401700FA3E0FDA3E07862CDF60895
:10035E00EDF6020430EF64024E700A900C1BE0784A
:10036E0062F6020430900C1AE06403700CA3E0FFF6
:10037E00A3E07864CFF608EFF6020430E4F528C364
:10038E00E5289410748094805023900C1AE0FFE5B9
:10039E0028C39F5018741B2528F582E4340CF5836E
:1003AE00E0FF74682528F8EFF6052880D2E4787708
:1003BE00F6806F7A007B327D017860E6FF1222FFB5
:1003CE00900C1AE0FDE4FF122925020468900C1A25
:1003DE00E024FF9202020468900C1AE024FF9201BE
:1003EE0080787860E66005752A02800B2016057508
:1003FE002A038003752A01900D197479F0A3E52A5A
:10040E00F07C007D027B017A0D7919122428900D63
:10041E001BEFF07F031227B0E52A6401703CD21760
:10042E008002D211788076F180307A007B327D01A5
:10043E007F001222FF900D197479F0900C1AE09043
:10044E000D1AF07C007D027B017A0D791912242899
:10045E00900D1BEFF07F031227B0E52764A0600319
:10046E000206AD900C19E064A16003020584A3E0BE
:10047E00C37858964003020579AB08AA09A90AE089
:10048E00FF75F010A4F58285F083120ED5F52AEFD4
:10049E0075F010A429F9EA35F0FA900004120ED581
:1004AE0030E237900C1AE0122B998F2A900D1974A6
:1004BE007FF0A3E52AF02402FDE433FC7B017A0DE4
:1004CE007919122428741B252AF582E4340DF5833C
:1004DE00EFF0E52A2403FF0206AA900C1AE0FF12A1
:1004EE002B99C2ACE4F526D2B5D3E52A94067480D6
:1004FE009480402B7B007A0079267F7F1223C87B65
:10050E00007A007926AF2A1223C8E4F528E528C31D
:10051E00952A5007122394052880F2052A8018E5A3
:10052E002A24781223C1E4F528E528C3952A50071A
:10053E00122394052880F27B007A007900AF2612F0
:02054E0023C8C0
:1005500075340AD3E5349400748094804018007593
:100560003503D3E53594007480948040050015353B
:0605700080F0153480DD6F
:1005760002069C900D197478F07F010206AA900C71
:1005860019E064A260030206AD7858E6FFA3E0FE18
:10059600C39F40030206A2A3E0FDC39F40030206D9
:1005A600A2EE9D40030206A2900C1AE0F528E4F59F
:1005B6002FF530900C1BE0FFE528D39F5026AF287F
:1005C600122B99AB08AA09A90A75F010E528A4F51B
:1005D6008285F083120ED52530F530E4352FF52FC0
:1005E600052880CFC2ACE4F526D2B5FB7A00792681
:1005F6007F7F1223C8C3E5309480E52F9400500214
:100606008007E52F44801223C1AF301223C2900C1D
:100616001AE0F528900C1BE0FFE528D39F5046E42E
:10062600F529AB08AA09A90A75F010E528A4F582F0
:1006360085F083120ED5FFE529C39F5024E5287562
:10064600F010A429F9EA35F0FA90000D12106A7834
:1006560060E6FF18E68FF0A425291223B705298046
:10066600C1052880AF7B007A007900AF261223C827
:1006760075340AD3E534940074809480401800756C
:100686003503D3E535940074809480400500153514
:0606960080F0153480DD48
:10069C00C2B5D2AC800B900D197478F07F01122783
:1006AC00B0E5276458704DFA7B327D017860E6FF27
:1006BC001222FF753901753A0D753B1A7B017A0CC4
:1006CC00791A122CD08F2AE52A2478900D19F0EF84
:1006DC002401FDE433FC7B017A0D79191224287472
:1006EC001A252AF582E4340DF583EFF0E52A24026D
:1006FC00FF1227B0AF27EF64806008EF64886003B7
:10070C000208A9785CE66401700EFA7B327D0178F0
:10071C0060E6FF1222FF801AE4F528E528C378145E
:10072C0096500F7A007B327D01AF281222FF0528EC
:10073C0080E9900C19E05407F52A6407700A7529B2
:10074C0001A3E0F52AA38006E4F529900C1AE0F544
:10075C002B152AE52BC378589640030208A9AB0841
:10076C00AA09A90A75F010E52BA4F58285F083126D
:10077C000ED5FFE52AD39F40028F2A785CE66401F0
:10078C0070097860E6F52EF52D8009E4F52D7814C6
:10079C00E614F52E7860A62D7860E6D3952E4003EE
:1007AC0002089CE4F528E528C3952A400302089129
:1007BC00E52B75F010A4AB08250AF9E50935F0FA1C
:1007CC00900004120ED530E20302088C9000011246
:1007DC000ED564387045D3E52A9404748094804017
:1007EC0011E5292528241BF582E4340CF583E0FD62
:1007FC008070785AE6C39528FFE49400FE74172F96
:10080C00F582740C3EF583E0FDE52B75F010A4AB7E
:10081C0008250AF9E50935F0FA8047AB08AA09A9B9
:10082C000A75F010E52BA4F58285F083120ED5FF26
:10083C00785AE6C39FFFE49400FE7C00EF2528FF66
:10084C00EC3EFEEF2529FFEC3EFE74182FF582746A
:10085C000C3EF583E0FDE52B75F010A429F9EA3583
:10086C00F0FA90000D12106A7860E6FF18E68FF02F
:10087C00A4FFE5282FF582E435F0F583ED120F1473
:10088C0005280207B2AF2B122E527860060207A47D
:10089C007860A62DE52764887003122797E52764F6
:1008AC00A860030209E2785CE66401700EFA7B3200
:1008BC007D017860E6FF1222FF801AE4F528E52816
:1008CC00C3781496500F7A007B327D01AF28122228
:1008DC00FF052880E9900C1AE030E711547FFEA345
:1008EC00E0FDEEF52FEDF530752903800C900C1A18
:1008FC00E0752F00F53075290274192529F582E46D
:10090C00340CF583E0FF741A2529F582E4340CF5D8
:10091C0083E0F52C8F2BE52BD3952C40030209DFBC
:10092C00E52BC378589640030209DAAB08AA09A94B
:10093C000A75F010E52BA4F58285F083120ED5F51F
:10094C002A785CE6640170097860E6F52EF52D8056
:10095C0009E4F52D7814E614F52E7860A62D786050
:10096C00E6D3952E505EE4F528E528C3952A504A27
:10097C00E52B75F010A4AB08250AF9E50935F0FA5A
:10098C00900004120ED520E22DE5292528241BF514
:10099C0082E4340CF583E0FD90000D12106A78604F
:1009AC00E6FF18E68FF0A4FFE5282FF582E435F07A
:1009BC00F583ED120F14052880AFAF2B122E527851
:1009CC006006809A7860A62DE52A2529F529052B45
:0609DC0002092212279718
:0109E20022F2
:107000007880E664F160030279DD7891F608F6781D
:0470100081E660377E
:1070140075410AD3E541940074809480401800754A
:107024004203D3E5429400748094804005001542E5
:0670340080F0154180DD33
:10703A00789206E6187001067891B627C808B61045
:10704A00C4C2AF7584015398FCE4788DF618F6E44F
:10705A00F584209849E47891F608F620983CC3789C
:0A706A0092E6948818E69413503063
:1070740075410AD3E54194007480948040180075EA
:107084004203D3E542940074809480400500154285
:0670940080F0154180DDD3
:10709A00789206E61870C40680C1B2B480B4788CBF
:1070AA00A699C298E6FF641A6008EF640A600302B0
:1070BA007213E47891F608F620983CC37892E69425
:0770CA008818E69413503012
:1070D10075410AD3E541940074809480401800758D
:1070E1004203D3E542940074809480400500154228
:0670F10080F0154180DD76
:1070F700789206E61870C40680C12098030270597A
:10710700788DA699C298E47891F608F620983CC342
:0B7117007892E6948818E6941350303C
:1071220075410AD3E541940074809480401800753B
:107132004203D3E5429400748094804005001542D6
:0671420080F0154180DD24
:10714800789206E61870C40680C120980302705928
:10715800788DA699C298E47891F608F620983CC3F1
:0B7168007892E6948818E694135030EB
:1071730075410AD3E54194007480948040180075EA
:107183004203D3E542940074809480400500154285
:0671930080F0154180DDD3
:10719900789206E61870C40680C1209803027059D7
:1071A900788DA699C29818E6641A60030279CED23E
:0371B900B5C299C3
:1071BC00754114D3E5419400748094804018007597
:1071CC004203D3E54294007480948040050015423C
:0671DC0080F0154180DD8A
:0671E2007599783099FD5B
:1071E80075410AD3E5419400748094804018007575
:1071F8004203D3E542940074809480400500154210
:0672080080F0154180DD5D
:10720E00C2B50279CE788CE6FF7E00645060030230
:10721E0073277891F608F620983CC37892E6948806
:06722E0018E69413503035
:1072340075410AD3E5419400748094804018007528
:107244004203D3E5429400748094804005001542C3
:0672540080F0154180DD11
:10725A00789206E61870C40680C120980302705915
:0A726A00788DA699C298D2B5C2999A
:10727400754114D3E54194007480948040180075DE
:107284004203D3E542940074809480400500154283
:0672940080F0154180DDD1
:08729A007599793099FDC29944
:1072A200754114D3E54194007480948040180075B0
:1072B2004203D3E542940074809480400500154255
:0672C20080F0154180DDA3
:0872C8007599013099FDC2998E
:1072D000754114D3E5419400748094804018007582
:1072E0004203D3E542940074809480400500154227
:0672F00080F0154180DD75
:0672F600E4F5993099FD5A
:1072FC0075410AD3E5419400748094804018007560
:10730C004203D3E5429400748094804005001542FA
:06731C0080F0154180DD48
:10732200C2B50279CEEF64014E60030273B9D2B5E1
:02733200C299FE
:10733400754114D3E541940074809480401800751D
:107344004203D3E5429400748094804005001542C2
:0673540080F0154180DD10
:08735A007599783099FDC29984
:10736200754114D3E54194007480948040180075EF
:107372004203D3E542940074809480400500154294
:0673820080F0154180DDE2
:06738800E4F5993099FDC7
:10738E0075410AD3E54194007480948040180075CD
:10739E004203D3E542940074809480400500154268
:0673AE0080F0154180DDB6
:1073B400C2B50279CE788CE6640260030274EB787D
:1073C40091F608F620983CC37892E6948818E694DF
:0373D40013503023
:1073D70075410AD3E5419400748094804018007584
:1073E7004203D3E54294007480948040050015421F
:0673F70080F0154180DD6D
:1073FD00789206E61870C40680C120980302705971
:10740D00788DA699C298E408F618E6FF13B392B4E6
:10741D00EF25E0FECC7470CCCD7400CDC3E49DEEB1
:10742D009C5029E6FD7F0025E0FEC394E0501DED44
:10743D0020E020E4F58443B701758F037893EEF6D1
:10744D0008EFF6F5828E83F0F58F8004788E76FF47
:07745D00E4F584D2B5C299E9
:10746400754114D3E54194007480948040180075EC
:107474004203D3E542940074809480400500154291
:0674840080F0154180DDDF
:08748A007599783099FDC29953
:10749200754114D3E54194007480948040180075BE
:1074A2004203D3E542940074809480400500154263
:0674B20080F0154180DDB1
:0874B800788EE6F5993099FD8C
:1074C00075410AD3E541940074809480401800759A
:1074D0004203D3E542940074809480400500154235
:0674E00080F0154180DD83
:1074E600C2B50279CE788CE6640360030276BC7876
:1074F60091F608F620983CC37892E6948818E694AC
:03750600135030EF
:1075090075410AD3E5419400748094804018007550
:107519004203D3E5429400748094804005001542EB
:0675290080F0154180DD39
:10752F00789206E61870C40680C12098030270593D
:10753F00788DA699C298E47891F608F620983CC306
:0B754F007892E6948818E69413503000
:10755A0075410AD3E54194007480948040180075FF
:10756A004203D3E54294007480948040050015429A
:06757A0080F0154180DDE8
:10758000789206E61870C40680C1209803027059EC
:10759000788FA699C298788DE6FF1392B4EF25E014
:1075A000FECC7470CCCD7400CDC3E49DEE9C400342
:1075B000027059E625E0FCC394E04003027059E4F0
:1075C000F58443B701758F01788FE675F020A42408
:1075D00000FFE5F03C7893F608EFF6E4F584789048
:1075E000F67890E6C3942074809480503FE408F6C7
:1075F00008F6209816C37892E6948818E6941350FB
:107600000A000806E61870EA0680E7209803027070
:107610005978930806E618CEE6CE70010614F58276
:107620008E83E599F0C29878900680B5E4F584F5EC
:077630008FF584D2B5C29969
:10763700754114D3E5419400748094804018007517
:107647004203D3E5429400748094804005001542BC
:0676570080F0154180DD0A
:08765D007599783099FDC2997E
:10766500754114D3E54194007480948040180075E9
:107675004203D3E54294007480948040050015428E
:0676850080F0154180DDDC
:06768B00E4F5993099FDC1
:1076910075410AD3E54194007480948040180075C7
:1076A1004203D3E542940074809480400500154262
:0676B10080F0154180DDB0
:1076B700C2B50279CE788CE6FD7C006404600302D3
:1076C70077DF7891F608F620983CC37892E694889D
:0676D70018E69413503088
:1076DD0075410AD3E541940074809480401800757B
:1076ED004203D3E542940074809480400500154216
:0676FD0080F0154180DD64
:10770300789206E61870C40680C120980302705967
:10771300788DA699C298E625E07895F608E4F67880
:107723008EF67891F608F678950806E618CEE6CE3A
:1077330070010614F5828E83E493788E26F6789290
:1077430006E6187001067892E6700418E664027083
:05775300D6D2B5C29979
:10775800754114D3E54194007480948040180075F5
:107768004203D3E54294007480948040050015429A
:0677780080F0154180DDE8
:08777E007599783099FDC2995C
:10778600754114D3E54194007480948040180075C7
:107796004203D3E54294007480948040050015426C
:0677A60080F0154180DDBA
:0877AC00788EE6F5993099FD95
:1077B40075410AD3E54194007480948040180075A3
:1077C4004203D3E54294007480948040050015423E
:0677D40080F0154180DD8C
:1077DA00C2B50279CEED64054C60030279C2789194
:1077EA00F608F620983CC37892E6948818E6941333
:0277FA0050300D
:1077FC0075410AD3E541940074809480401800755B
:10780C004203D3E5429400748094804005001542F5
:06781C0080F0154180DD43
:10782200789206E61870C40680C120980302705947
:10783200788DA699C298E47891F608F620983CC310
:0B7842007892E6948818E6941350300A
:10784D0075410AD3E5419400748094804018007509
:10785D004203D3E5429400748094804005001542A4
:06786D0080F0154180DDF2
:10787300789206E61870C40680C1209803027059F6
:0A788300788FA699C298D2B5C29979
:10788D00754114D3E54194007480948040180075BF
:10789D004203D3E542940074809480400500154264
:0678AD0080F0154180DDB2
:0878B30075997F3099FDC2991F
:1078BB00754114D3E5419400748094804018007591
:1078CB004203D3E542940074809480400500154236
:0678DB0080F0154180DD84
:1078E1007599203099FD788DE625E0FC788FE67555
:1078F100F020A42400FFE5F03C7895F608EFF6E4CB
:10790100788EF67890F67890E6C39420748094800F
:047911005055C29972
:10791500754114D3E5419400748094804018007536
:107925004203D3E5429400748094804005001542DB
:0679350080F0154180DD29
:10793B007895E6FE08E6F5828E83E493F599309907
:10794B00FD78950806E618CEE6CE70010614F58292
:0F795B008E83E493788E26F6789006809FC299EB
:10796A00754114D3E54194007480948040180075E1
:10797A004203D3E542940074809480400500154286
:06798A0080F0154180DDD4
:08799000788EE6F5993099FDAF
:1079980075410AD3E54194007480948040180075BD
:1079A8004203D3E542940074809480400500154258
:0679B80080F0154180DDA6
:1079BE00C2B5800C788CE664067005F58475EF1000
:0F79CE00788CE6640760030270597880F6D2AFB8
:0179DD002287
:10264B007F00122D29122BE020120B7A007B327D9A
:10265B00017F001222FF30150B7A007B1E7D017F5C
:10266B00001222FF3011173016147A007B327D01D5
:10267B007860E6FF1222FFC211122124D21220141D
:10268B000C301609788076F1122124D21430170BF6
:10269B00301608C217122EA5127000201612122E19
:1026AB007FE47B2C7A01F9F8C3120FF35002D21698
:0126BB0022FC
:102CFD00E4F58475EF027F64EFD3940074809480C3
:102D0D0040031F80F31215ED120003122E6CE4FF29
:0C2D1D00FE122D5512264B121CAF80F840
:101B9B00005EBCE2613FDD83C29C7E20A3FD1F4142
:101BAB009DC3217FFCA2401E5F01E3BD3E6082DC32
:101BBB00237D9FC1421CFEA0E1BF5D0380DE3C6222
:101BCB00BEE0025CDF81633D7C22C09E1D43A1FF12
:101BDB004618FAA427799BC584DA3866E5BB590702
:101BEB00DB856739BAE406581947A5FB7826C49AF2
:101BFB00653BD987045AB8E6A7F91B45C6987A24E2
:101C0B00F8A6441A99C7257B3A6486D85B05E7B9D1
:101C1B008CD2306EEDB3510F4E10F2AC2F7193CDC1
:101C2B00114FADF3702ECC92D38D6F31B2EC0E50B1
:101C3B00AFF1134DCE90722C6D33D18F0C52B0EEA1
:101C4B00326C8ED0530DEFB1F0AE4C1291CF2D7391
:101C5B00CA947628ABF517490856B4EA6937D58B81
:101C6B005709EBB536688AD495CB2977F4AA481671
:101C7B00E9B7550B88D6346A2B7597C94A14F6A861
:101C8B00742AC896154BA9F7B6E80A54D7896B3551
:101C9B00000060B0CBD8E5F3F70096CBE5F3F7F98E
:041CAB000000000035
:102DB900C199420C0D0009420C150009420C0F087B
:092DC90009420C17080901150A62
:102E6C0074FFF53FF53EF53DF53CAF3FAE3EAD3D55
:022E7C00AC3C6C
:012E7E002231
:10242800150B150BA80BECF608EDF6150B150B158F
:102438000BA80BC6EBC608C6EAC608C6E9C6E50B74
:0424480024FCF50B70
:10244C00F80808E4F6A80BF608F6E50B2407F8C91B
:10245C00E8C9A80BE6FE08E6FFC3099719E76480F4
:10246C00F8EE6480985037E50B2404F8CBE6CB08E3
:10247C00E6FA08E6F98F828E83120ED5A80B0808AF
:10248C0066FFE50B2403F8EFF6E6901B9B93A80B75
:10249C000808F6A80B0806E61870AF0680ACA80B67
:0424AC000808E6FF37
:0724B000E50B2409F50B22E6
:0E2ECB00CEEDCEEE6F7886F6E6901B9B93FF61
:012ED90022D6
:0300A3000225CC67
:1025CC00C0E0C0F0C083C082C0D0E8C0E0EEC0E084
:1025DC00EFC0E0E59830E1055398FDD219E598304D
:1025EC00E049900C16E02401FF900C15E03400FE3D
:1025FC00900C0DE06E7003A3E06F7002802A900CBB
:10260C0015E475F001120F6C85F082F583E599F0F5
:10261C00900C15E064087004A3E06409700A900C37
:10262C00157400F0A37409F05398FED0E0FFD0E0CD
:0F263C00FED0E0F8D0D0D082D083D0F0D0E03202
:102BE000900C0FE0FEA3E0FF900C17E06E7003A3C3
:102BF000E06F603230192FC219758401900C0FE418
:102C000075F001120F6C85F082F583E0F599900C58
:102C10000FE0640C7004A3E06409700A900C0F7458
:072C200008F0A37409F02283
:10297900900C0DE0FEA3E0FF900C15E06E7003A330
:10298900E06F6039900C0DE475F001120F6C85F061
:1029990082F583E07818F6900C0DE064087004A3C2
:1029A900E06409700A900C0D7400F0A37409F078C2
:1029B90018E6FEB40D037F0A22CFEECF2212264B72
:0229C90080AEDE
:022ABC00150BF8
:102ABE00900C0DE0FEA3E0FF900C15E06E7003A3EA
:102ACE00E06F6031900C0DE475F001120F6C85F023
:102ADE0082F583E0A80BF6900C0DE064087004A359
:102AEE00E06409700A900C0D7400F0A37409F0A84C
:072AFE000BE6FF80027FFFE1
:032B0500050B229B
:0821C7008B3C8A3D893E8D3FEF
:1021CF00122E7F7887121011E4788BF6122ABCEF4B
:1021DF00FD3395E0FCEDF47002ECF46037EF640A28
:1021EF006032BF0D13AB3CAA3DA93E788BE6FFF5DD
:1021FF0082758300E4020F14AB3CAA3DA93E788B95
:10220F00E606F582758300EF120F14788BE6FF65F3
:10221F003F70012212264B122E7FECC0E0EDC0E082
:10222F00EEC0E0EFC0E0AF40E4FCFDFE7887121097
:10223F0004EF2BFBEE3AFAED39F9EC38F8D0E0FF6A
:10224F00D0E0FED0E0FDD0E0FCD3120FF34003024C
:04225F0021DB7F0000
:012263002258
:102C2700900C18E02401FD900C17E03400FC900C88
:102C37000FE06C7003A3E06D700122900C17E47530
:102C4700F001120F6C85F082F583EFF0900C17E01E
:102C5700640C7004A3E06409700A900C177408F000
:052C6700A37409F02236
:102DF500900C0FE0FEA3E0FF900C17E06E7003A3AC
:0F2E0500E06F600A7F00122D29122BE080E2227D
:102B08007E007F09900C15EEF0A3EFF0900C0DEE0F
:102B1800F0A3EFF07E087F09900C17EEF0A3EFF01A
:102B2800900C0FEEF0A3EFF07E087F007D007B0194
:102B38007A0079091210C07E047F007D007B017A3B
:092B48000879091210C0D219220B
:10292500EF7025F5847598D0F584759115F5847546
:10293500C90875CBFFED901C9A93F5CA75C804E4D8
:10294500F584D2ACC2BC8029758401759850E4F534
:1029550084E589540F4420F589758E02CFEDCFEFBC
:10296500901CA493F58DD28E43E74053F7BF122BED
:0329750008D2AFD6
:01297800223C
:1026BC00900C0912102900000000900C1112102926
:1026CC00000000009000007464F0E47887F67887CE
:1026DC00E6C39402748094805044E6FF25E025E024
:1026EC002401F582E43400F583E4F0EF25E025E0E5
:1026FC002402F582E43400F583E4F0EF25E025E0D4
:10270C002403F582E43400F583E4F0EF25E025E0C2
:0E271C002404F582E43400F583E4F00680B076
:01272A00228C
:102E1400D2AFD2A9C2BBE4F584E589540F4401F5CD
:0F2E240089758E02758CECE4F58AD28C0226BC7F
:021DB300150B0E
:101DB500A80BE4F6A80BE6FFC39402748094804058
:101DC50003021E9EEF25E025E02404F582E434009D
:101DD500F583E0FF7C00D394007480948050030267
:101DE5001E73E625E025E02402F582E43400F58340
:101DF500E0707BEF30E00DD3940174809480400453
:101E05007D0080047D01A80BE6FF120026A80BE6E5
:101E1500FF25E025E02404F582E43400F583E06441
:101E25000170057D01120026A80BE6FF25E025E0DF
:101E35002404F582E43400F583E014F0EF25E02571
:101E4500E02404F582E43400F583E06021E6FF2513
:101E5500E025E02403F582E43400F583E0FEEF2578
:101E6500E025E02402F582E43400F583EEF0A80BCA
:101E7500E6FF25E025E02402F582E43400F583E061
:101E85006011EF25E025E02402F582E43400F583B6
:091E9500E014F0A80B06021DB9CF
:031E9E00050B220F
:03000B000222646A
:10226400C0E0C0F0C083C082C0D0E8C0E0E9C0E0F4
:10227400EAC0E0EBC0E0ECC0E0EDC0E0EEC0E0EFAF
:10228400C0E0758CEC900C09E0FCA3E0FDA3E0FE3B
:10229400A3E02401FFE43EFEE43DFDE43CFC900C9D
:1022A4000912101D900000E014F0E07025900C114C
:1022B400E0FCA3E0FDA3E0FEA3E02401FFE43EFE76
:1022C400E43DFDE43CFC900C1112101D90000074E0
:1022D40064F0121DB3122DD3D0E0FFD0E0FED0E0A5
:1022E400FDD0E0FCD0E0FBD0E0FAD0E0F9D0E0F89B
:0B22F400D0D0D082D083D0F0D0E032F8
:102C9F00150BA80BEDF6150BA80BEFF6A80BE6FF1F
:102CAF00C3940274809480501308E6FEEF25E0254C
:102CBF00E02401F582E43400F583EEF0050B050BFB
:012CCF0022E2
:1022FF00150B150BA80BEAF608EBF6150BA80BED53
:10230F00F6150BA80BEFF6A80BE6FFC3940274802B
:10231F009480506AEF25E025E02404F582E4340030
:10232F00F583E07059E6FB25E025E02402F582E411
:10233F003400F583E0704708E625E004FFA80BE6BC
:10234F00FA25E025E02404F582E43400F583EFF06C
:10235F000808E6FE08E6FF7C007D0A120F36EA2524
:10236F00E025E02403F582E43400F583EFF0EB255C
:10237F00E025E02402F582E43400F583E4F0E50B78
:05238F002404F50B22FF
:0E002600150BA80BEDF6150BA80BEFF6150B3E
:10003400A80B08E6FFFD7C00C394027480948050F2
:1000440024EF25E025E02401F582E43400F583E083
:100054006013A80B0808E670047F0180027F00A8E3
:100064000B0808EFF6A80BA68475840FED4C700BF3
:10007400A80B0808E624FF92B48011A80B08E664D4
:10008400017009A80B0808E624FF92B3A80BE6F553
:0100940084E7
:07009500050B050B050B2212
:102E7F00C2AF900C09E0FCA3E0FDA3E0FEA3E0FFCE
:022E8F00D2AFC0
:012E9100221E
:102E9200C2AF900C11E0FCA3E0FDA3E0FEA3E0FFB3
:022EA200D2AFAD
:012EA400220B
:102D2900150BA80BEFF6A80BE670057816F608F652
:102D39003018167815E675F064A4FFC37817E69F76
:0C2D490018E695F0500375FFA5050B225D
:102E3300D218E47816F608F6EF78156003F68002E8
:0F2E4300760A75FF0775FFA5E4F58475EF042285
:102EA500C218E47816F608F6781576FF75FFDE7514
:032EB500FFAD224C
:102DD300781706E6187001063018167815E675F0B0
:102DE30064A4FFC37817E69F18E695F0500375FFB8
:022DF300A52217
:042D55008E3C8F3DE4
:102D5900E4F53EF53FC3E53F953DE53E953C50160C
:102D69007FE87E031228697F01122D29053FE53F7F
:062D790070E3053E80DF5F
:012D7F002231
:042869008E408F41CD
:10286D00D3E54194FAE5409400501EEFD3940074E3
:10287D00809480404C007E03EED39400748094804D
:10288D004004001E80F21F80E2854042854143D303
:10289D00E54394FAE542940040157FFA7E00122834
:1028AD006974062543F54374FF3542F54280E0D344
:1028BD00E5419400E54094004007AF43AE42122835
:0128CD0069A1
:0128CE0022E7
:10280100754C00754D00754E467B007A0079447D0C
:0128110002C4
:082812008B488A49894A8D4B6D
:10281A007F01122D29AB4CAA4DA94E120F8224001A
:10282A00FFE5F034E0FE85484F854950854A51E47A
:10283A00FDEDC3954B501BEF2DF582E43EF583E485
:10284A0093AB4FAA50A9518D82758300120F140DB4
:0F285A0080DFAB4CAA4DA94EE4854BF0020FADC9
:10206F00754312754434754B00754C00754D457BA7
:07207F00007A0079437D02A5
:082086008B478A4889498D4A05
:10208E007880E664F16003022123122EA5C2AFE42C
:10209E00F58443B701758F01AB4BAA4CA94D120FB6
:1020AE00822400FFE5F034E0788CF608EFF6AB47BB
:1020BE00AA48A9497890C6EBC608C6EAC608C6E97A
:1020CE00C6E4788EF6788EE6C3954A50327890CB79
:1020DE00E6CB080806E618CAE6CA70010614F9121D
:1020EE000EBC788FF6E6FF788C0806E618CCE6CCA8
:1020FE0070010614F5828C83EFF0788E0680C6E4AC
:10210E00F58FAB4BAA4CA94D854AF0120FADD2AF4D
:05211E00E4FF122E3366
:012123002299
:1029CB007880E664F1704AC2AF122EA5E4F5844319
:1029DB00B701758F03788D76E008F6788CF6788CD6
:1029EB00E6C3940874809480501E08E6FE08E6F552
:1029FB00828E83E4F07F01122D29788EE426F6185F
:102A0B00740236F6180680D6E4F58FD2AFFF122E7D
:012A1B003387
:012A1C002297
:102124001229CBE4F545F546F54B754C00754D4544
:10213400FB7A0079627D1612208612206FE4F54244
:10214400E542C37814965073E4F541AB08AA09A993
:102154000A75F010E541A4F58285F083120ED5606E
:1021640056E54175F010A429F9EA35F0FA90000D0E
:1021740012106A785FE68542F0A429F9EA35F0FA8C
:10218400EBC0E0EAC0E0E9C0E0AB08AA09A90A751F
:10219400F010E541A4F58285F083120ED5FD754B50
:1021A40000754C00754D45D0E0F9D0E0FAD0E0FB65
:1021B400122086054180940542808512206FE478C0
:0221C40080F6A3
:0121C60022F6
:021EA1008F4070
:101EA300E4F546F547F543F54C754D00754E46FB95
:101EB3007A0079627D16122812122801E5456434EE
:101EC3007004E54464127003434301E4F542E542C0
:101ED300C37814964003021F74E4F541AB08AA09C2
:101EE300A90A75F010E541A4F58285F083120ED599
:101EF300607AE5406054E54175F010A429F9EA35AC
:101F0300F0FA90000D12106A785FE68542F0A4297A
:101F1300F9EA35F0FAEBC0E0EAC0E0E9C0E0AB086B
:101F2300AA09A90A75F010E541A4F58285F0831288
:101F33000ED5FD754C00754D00754E46D0E0F9D0B9
:101F4300E0FAD0E0FB122812801DAB08AA09A90A07
:101F530075F010E541A4F58285F083120ED525476F
:101F6300F547E43546F5460541021EDF0542021EEC
:101F7300D1122801E54564347004E544641270030A
:051F8300434302AF43DF
:011F88002236
:10117E00E553243FF8E6055322783C300F02783FC2
:10118E00E475F00112105A020EBC2008EB7F2ED22D
:10119E00088018EF540F2490D43440D4FF300C0B39
:1011AE00EF24BFB41A0050032461FFE5546002150A
:1011BE00540557E55770020556300F0D783CE4750F
:1011CE00F00112105AEF020F02022C277403D20FF5
:1011DE008003E4C20FF5538B3C8A3D893EE4F554FF
:1011EE00F556F557E55460077F201211B980F57555
:1011FE0055FFC209C208C20AC20BC20DC20EC210EE
:10120E00121187FF700D300F057F001211CAAF57F4
:10121E00AE5622B4255FC2D5C20C121187FF24D060
:10122E00B40A00501A75F00A785430D50508B6FF86
:10123E000106C6A426F620D5047002D20B80D9244E
:10124E00CFB41A00EF5004C2E5D20C0214B7D20983
:10125E0080C6D20880C0D20A80BCD2D580BAD20D48
:10126E0080B47F201211B9200A077401B5540040D2
:10127E00F112117EFF1211B90211F2D210D20E80AC
:10128E009512117EFB12117EFA12117EF94A4B70E5
:10129E000679AE7A157BFF200A2EE554602A7E0071
:1012AE008E82758300120ED560060EEE655570F0B7
:1012BE00C2D5EBC0E0EAC0E0E9C0E0EE121517D0EF
:1012CE00E0F9D0E0FAD0E0FB120EBCFF60AAEBC052
:1012DE00E0EAC0E0E9C0E01211B9D0E02401F9D093
:1012EE00E03400FAD0E0FBE5550460DCD555D9803A
:1012FE0087D20A80A21214FA60F7E5557001041223
:10130E0009E3A955600DE555600914F5551215A1AF
:10131E00EF60F3EA30E702F404C3995077EAF4255C
:10132E00550430E701E404F555800D1214FA60C13E
:10133E00EA055525551209E3EA7852F630E701E43D
:10134E00255504D55504200D0114121517E4C0E0DF
:10135E001215A17852E6601320E70714F61211A1B8
:10136E00802204F6D0E014C0E07F001211A1E555F2
:10137E0060071211981555800B300D03121198D07D
:10138E00E00211F2D0E00480C51214FA60A0E55517
:10139E00041209E37852EAF6E555200D02600104C5
:0513AE002404121517D4
:1013B30074FF04C0E01215A11211A1E555200D021E
:1013C3006003121198D0E0B555E87F451211AB7850
:1013D30052E67F2B30E7047F2DF404C0E01211B9ED
:1013E300D0E075F00A84C0F01211A2D0E01211A26D
:1013F3000211F2791080027908C20EC2108008D25D
:10140300D5790A8004790AC2D5E555047002F555E9
:10141300E4FAFDFEFF12117EFC7B08200913121172
:101423007EFD7B1030080A12117EFE12117EFF7BB7
:1014330020EC3382D592D55013C3E43008069FFFC6
:10144300E49EFEE42009039DFDE49CFCE4CBF8C28A
:1014530009EC700CCFCECDCCE824F8F870F38017EC
:10146300C3EF33FFEE33FEED33FDEC33FCEB33FB25
:10147300994002FB0FD8E9EB300905F8D0E0C448E6
:10148300B209C0E00AEC4D4E4F78207B0070C2EAEF
:10149300B5550040BCC0E0121519D0F0D0E02009CA
:1014A30004C4C0E0C4B209C0F01211A2D0F0D5F058
:1014B300EB0211F212109A128F5313F65812604C6A
:1014C300125C4213FA4F1402441402491275431476
:1014D300085513394613974513034715CE50126425
:1014E3002D12682E128B2B126C2312892015B72A0A
:1014F30012244800001283E555B4FF037555061204
:10150300117EFC12117EFD12117EFE12117EFF78F8
:101513004B020A12790AA2D5200B14300D09B91017
:10152300020404B9080104A2D5200E0250010420CC
:101533000A68920AB554005034C0E07F20300B197A
:101543007F30A20A720E720D500F121570C20AC2BA
:101553000EC20DC2107F30800F300D03E9C0E012C0
:1015630011B9300D03D0E0F9D0E0B554CC300D17EC
:101573007F30B9100C1211B97F58300C077F788077
:1015830003B908031211B9300A057F2D0211B97F7F
:10159300202010F87F2B200EF322920A80CF7F00A9
:1015A300B407005005244BF8E6FF22286E756C6CD7
:1015B3002900D20912117E3009F8C209785430D5B6
:1015C3000108F60212242D5043495812117E2403B8
:1015D300B405004001E49015C9931211AA743A129C
:0A15E30011AAD20B7554040213F68E
:102B5100D2088B3C8A3D893E122B8DC0E0FF122E9C
:102B6100B8D0E040F3121F9C400122ECC0E0EDC060
:102B7100E0EEC0E0EFC0E0122B8DD0F0AFF0D0F06E
:102B8100AEF0D0F0ADF0D0F0ACF080D9E475F0014A
:082B9100783C12105A020EBC40
:1009E300F920E72824F950037907E4F42402FB18DB
:1009F300DBFDE624FB5014E9600DE4F618E604F68B
:0F0A0300B40A08E4F6D9F57401F60A22C2D52226
:100A1200ED33EC3392D5FA602AB4FF33EDC2E77BB3
:100A2200FF60067A0A7937E4227A0A794020D504EF
:100A32007A0A793B224E614E002B494E46002D49DF
:100A42004E4600E47A08F608DAFC7B00740722E8D6
:100A5200C0E0ECC0E0EDC0E0EEC0E0EFC0E0EA755F
:100A6200F010A4CAABF075F04DA42BFBE435F0FCFA
:100A7200EA2410FAEB34C5FBEC34D9FCEDC2E7FFF3
:100A820075F056A4F42411C5F0F434C58FF0A42AED
:100A9200E5F03BE43CF620E714120E7CD0E0FFD0F8
:100AA200E0FED0E0FDD0E0FC120D608014F40412F0
:100AB2000E7CD0E0FFD0E0FED0E0FDD0E0FC120CD6
:100AC20057D0E0F8E6FAEDD2E7CD33EC332482FBDF
:100AD200E4C3CF33CFCE33CECD33CD33DBF37B077D
:100AE20075F00A846004F6081B0AE5F0F6088FF038
:100AF200740AA4FFACF08EF0740AA42CFEACF05081
:100B0200010C8DF0740AA42CFDE435F0F608DBDE4E
:030B120074072243
:101F8900C209C20AC20BC20CF9E4F53FF540FCFDD7
:101F9900FEFFE91008EA200B0CB42D04D20BD32262
:101FA900B42B02D32224D0504794095041240A303B
:101FB9000C15F88540F0740AA42872E74051C5F061
:101FC900704D85F040D322D20AC0E0E4FBFA7920B3
:101FD9007841120C57ECF8EDF9EEFAEFFBD0E0FC82
:101FE900E4120E18120B663009B4153FD322240AE5
:101FF900200C20B4FE0720091AD209D32224EB6051
:102009000424E0700EA20B9209D20CC20BD322C396
:10201900020B4AE4300C0BE540300B02F404A20930
:10202900920B300AEA253F20D2E5A2E7920C500232
:10203900F404B4260050D8CCC0E0EDC0E0EEC0E016
:10204900EFC0E0EC120E7CD0E0FFD0E0FED0E0FD66
:10205900D0E0FC200C05120C578003120D60300BE8
:0620690003120DFDC3226D
:100B1500E9D2E7C933E833F892D5EDD2E7CD33EC26
:070B250033FC5002B2D5229F
:100B2C00EC30E7100FBF000C0EBE00080DBD00042A
:100B3C000BEB6014A2D5EB13FCED92E7FD2274FFD6
:100B4C00FCFDFEFF22E480F8A2D574FF13FC7D802F
:030B5C00E480EF43
:100B5F00020B4AE86480F8E933E83360110460F06F
:100B6F00ED33EC337009E8FCE9FDEAFEEBFF2204FC
:100B7F0060DED3EB9FEA9EE99DE8C2E78CF0C2F7F7
:100B8F0095F0400CE8CCF8E9CDF9EACEFAEBCFFBC3
:100B9F00120B1585D0F05804700320D5B3E80470FC
:100BAF00075002B2D5020B5492D5EC0460F7E4CC97
:100BBF00C0E0C398F8603B94186008400DD0E0FB8C
:100BCF00020B2CE4FBFAC9FC8028E830E406E4C9E8
:100BDF00FBE4CAFCE830E305E4C9CACBFCE85407E0
:100BEF006010F8C3E913F9EA13FAEB13FBEC13FCEB
:100BFF00D8F130F52FC3E49CFCEF9BFFEE9AFEED8E
:100C0F0099FDD0E0FBEF4E4D4C701222DB03020B2F
:100C1F0051EC2CFCEF33FFEE33FEED33FDED30E7FF
:100C2F00EB020B2CEF2BFFEE3AFEED39FDD0E0FB84
:100C3F0050130BBB0003020B54ED13FDEE13FEEF2D
:080C4F0013FFEC13FC020B2C57
:100C5700EC4D6011E8497017ED33EC3304600DE497
:100C6700FCFFFEFD22E933E8330470F8020B4A1259
:100C77000B1558046009E4CC24815006285009025A
:100C87000B54284003020B51C0E0EB4A7044B98073
:100C970006D0E0FB020B40EF4E701CBD8008EBFF57
:100CA700EAFEE9FD80EBE98DF0A4FEE5F0020D40D8
:100CB700E9CDF9EAFEEBFFEF89F0A4FCE5F0CE8978
:100CC700F0A42EFFE435F0CD89F0A42DFEE435F035
:100CD7008067EF4E7005BD80D780C3EF8BF0A4AC63
:100CE700F0EE8BF0A42CFCE435F0F8EF8AF0A42C9E
:100CF700E5F038FCE433CB8DF0A42CFCE5F03BF8B1
:100D0700EE8AF0A42CFCE5F038F8E433CF89F0A4A0
:100D17002CFCE5F038CF3400CE89F0A42FFFE5F0A6
:100D27003EFEE433C98DF0A42EFEE5F039CD8AF0FE
:100D3700A42FFFE5F03EFEE43DFD33D0E0FB500776
:100D47000BBB000F020B54EC2CFCEF33FFEE33FE12
:060D5700ED33FD020B2C40
:100D5D00020B54EC5D046005E859047003020B4A64
:100D6D00120B15580460F6EC4860F2EC7004FDFEB1
:100D7D00FF22C860DB2481C85009C3986002500669
:100D8D00020B519850CAF582E9294B4A7005AB8286
:100D9D00020B4075F0007C1A7880C3EF9BEE9AED44
:100DAD0099400DC3EF9BFFEE9AFEED99FDE842F0E1
:100DBD00DC23ACF0D0E0FFD0E0FED0E0FDAB822034
:100DCD00E7101BEB60BAEC2CFCEF33FFEE33FEEDBE
:100DDD0033FD020B2CE803F830E705C0F075F00089
:100DED00EF2FFFEE33FEED33FD40B830E7C280AAA2
:100DFD00ED33EC33600A047003BD8004ECB2E7FC04
:010E0D0022C2
:100E0E0075F020800E75F010800575F0087D007E5F
:100E1E00007F003392D530D503120FE5EC3340102E
:100E2E00EF33FFEE33FEED33FDEC33FCD5F0ED2268
:0E0E3E00E5F0247EA2D513CC92E7CDCEFF22A4
:100E4C003F8000004120000042C80000447A0000AE
:100E5C00461C400047C35000497424004B18968030
:100E6C004CBEBC205A0E1BCA6753C21C749DC5AE27
:100E7C00FB60065407601C2323120EAAEB54386047
:100E8C0009120E96120EA5120C57ECF8EDF9EEFAAB
:100E9C00EFCB22EB120EA580F1543803241C900EDC
:100EAC004CFE93FC0EEE93FD0EEE930ECE93FF22B2
:030000000224B720
:0C24B700787FE4F6D8FD7581960224FEC3
:100EBC00BB010689828A83E0225002E722BBFE0234
:090ECC00E32289828A83E4932267
:100ED500BB010CE58229F582E5833AF583E02250D2
:100EE50006E92582F8E622BBFE06E92582F8E2221C
:0D0EF500E58229F582E5833AF583E4932236
:100F0200BB010689828A83F0225002F722BBFE01CE
:020F1200F322C8
:100F1400F8BB010DE58229F582E5833AF583E8F013
:100F2400225006E92582C8F622BBFE05E92582C8BF
:020F3400F222A7
:100F3600C2D5EC30E709B2D5E4C39DFDE49CFCEED6
:100F460030E715B2D5E4C39FFFE49EFE1210ECC352
:100F5600E49DFDE49CFC80031210EC30D507C3E44D
:060F66009FFFE49EFE2245
:100F6C00A3F8E0C5F025F0F0E58215827002158338
:060F7C00E0C838F0E82295
:100F8200BB010A89828A83E0F5F0A3E0225006873A
:100F9200F009E71922BBFE07E3F5F009E3192289FC
:0B0FA200828A83E493F5F0740193222F
:100FAD00BB010789828A83021141500B09C5F027C5
:100FBD00F7C5F01937F722BBFE0D09F8E325F0F35D
:100FCD00C5F019E338F322F889828A8374019325D9
:080FDD00F0C5F0F8E49338229E
:0E0FE500C3E49FFFE49EFEE49DFDE49CFC221D
:100FF300EB9FF5F0EA9E42F0E99D42F0E89C45F054
:0110030022CA
:0D100400E6FB08E6F908E6FA08E6CBF8225C
:0C101100ECF608EDF608EEF608EFF6220B
:0C101D00ECF0A3EDF0A3EEF0A3EFF02246
:10102900A8828583F0D083D082121040121040121A
:101039001040121040E473E493A3C583C5F0C5833F
:10104900C8C582C8F0A3C583C5F0C583C8C582C811
:011059002274
:10105A00FAE6FB0808E6F925F0F618E6CA3AF62297
:10106A00BB010DE58229F582E5833AF58302116019
:10107A005007E92582F8021157BBFE07E92582F8D5
:10108A00021169E58229F582E5833AF58302117234
:10109A00D083D082F8E4937012740193700DA3A3E5
:1010AA0093F8740193F5828883E4737402936860F9
:0610BA00EFA3A3A380DFF9
:102D8000120EBC601CFF09E970010AC0E0EAC0E055
:102D9000EBC0E0122C27D0E0FBD0E0FAD0E0F980C5
:0A2DA000DF7F0A122C27E4FEFF2259
:102EB800EFC394094005EF940E4003BF2003D3806D
:032EC80001C32221
:102A1D008B408A418942E4F548F549E5471547AEB3
:102A2D0046700215464E6033AB43AA44A945120EBB
:102A3D00BCFFAB40AA41A9420549E549AC4870022B
:102A4D00054814F5828C83EF120F14EF60CD7401DD
:102A5D002545F545E43544F54480C0AB40AA41A970
:022A6D00422203
:1028CF008B438A4489458B468A478948AB46AA473A
:1028DF00A948120EBC600D74012548F548E4354730
:1028EF00F54780E8AB46AA47A948120EBC6D7001A8
:1028FF0022E5481548AA4770021547F9E543854474
:10290F008385458265467008E965827003EA6583B1
:06291F0070D2FBFAF92260
:1010C000EF4E6012EF60010EEDBB010B89828A8347
:1010D000F0A3DFFCDEFA2289F05007F709DFFCA954
:0C10E000F022BBFEFCF309DFFCA9F022AB
:1024C300022CFDE493A3F8E493A34003F68001F206
:1024D30008DFF48029E493A3F85407240CC8C3331A
:1024E300C4540F4420C8834004F456800146F6DFE9
:1024F300E4800B0102040810204080902DAAE47EA2
:10250300019360BCA3FF543F30E509541FFEE493DD
:10251300A360010ECF54C025E060A840B8E493A3A4
:10252300FAE493A3F8E493A3C8C582C8CAC583CACF
:10253300F0A3C8C582C8CAC583CADFE9DEE780BE87
:012DD2000000
:1010EC00BC000BBE0029EF8DF084FFADF022E4CCE8
:1010FC00F875F008EF2FFFEE33FEEC33FCEE9DECB1
:10110C00984005FCEE9DFE0FD5F0E9E4CEFD22EDF6
:10111C00F8F5F0EE8420D21CFEADF075F008EF2F40
:10112C00FFED33FD4007985006D5F0F222C398FD31
:05113C000FD5F0EA22CE
:10114100C5F0F8A3E028F0C5F0F8E5821582700239
:061151001583E038F022D6
:09115700E6FB08E6FA08E6F922BD
:09116000E0FBA3E0FAA3E0F92290
:09116900E2FB08E2FA08E2F922B7
:0C117200E493FB740193FA740293F922D9
:00000001FF
