:1083BD00005EBCE2613FDD83C29C7E20A3FD1F41B8
:1083CD009DC3217FFCA2401E5F01E3BD3E6082DCA8
:1083DD00237D9FC1421CFEA0E1BF5D0380DE3C6298
:1083ED00BEE0025CDF81633D7C22C09E1D43A1FF88
:1083FD004618FAA427799BC584DA3866E5BB590778
:10840D00DB856739BAE406581947A5FB7826C49A67
:10841D00653BD987045AB8E6A7F91B45C6987A2457
:10842D00F8A6441A99C7257B3A6486D85B05E7B947
:10843D008CD2306EEDB3510F4E10F2AC2F7193CD37
:10844D00114FADF3702ECC92D38D6F31B2EC0E5027
:10845D00AFF1134DCE90722C6D33D18F0C52B0EE17
:10846D00326C8ED0530DEFB1F0AE4C1291CF2D7307
:10847D00CA947628ABF517490856B4EA6937D58BF7
:10848D005709EBB536688AD495CB2977F4AA4816E7
:10849D00E9B7550B88D6346A2B7597C94A14F6A8D7
:1084AD00742AC896154BA9F7B6E80A54D7896B35C7
:1084BD00FB04FD82FEC1FF60FF96FFB0FFCBFFE521
:0484CD00FFEEFFF7C8
:03BF5400011D0AC2
:10C65100901C93121BCFFFFFFFFF901C93121B7BBB
:01C6610022B6
:10A15C0090FFFE121D77ECF0A3EDF090FFFD121DA9
:0AA16C0077121C5090FFFC121D77C3
:10A17600851083851182A3A3E4F08510838511825F
:10A18600F0A3F0900007121D9BE0FEA3E0FF8510F0
:10A1960083851182E0FCA3E0C39FEE6480F8EC6443
:10A1A60080985051900004121D9B121C308510831C
:10A1B600851182E0FEA3E0F5828E8312171EFF85CD
:10A1C6001083851182A3A3E06FFF900003121D9BED
:10A1D600EFF0900003121D9BE09083BD93851083E2
:10A1E600851182A3A3F0851083851182E475F001A1
:0FA1F60012184F808E851083851182A3A3E0FF7E
:07A20500900009121D7722F1
:0BC2C000901C9FEFF0A3ECF0A3EDF04A
:10C2CB00901CA0E0A3E0FF901C9FE0FEEF6E786E49
:07C2DB00F6E69083BD93FF1E
:01C2E2002239
:08BA9B009019F2EFF0A3EDF0A9
:10BAA3009019F2E0703DF584759850F58475911501
:10BAB300F58475C908A3E025E024BBF582E434844A
:10BAC300F583E493F5CB9019F3E025E024BCF582EC
:10BAD300E43484F583E493F5CA75C804E4F584D2A9
:05BAE300ACC2BCD2AFB3
:01BAE800223B
:10B45000901C69121BCF00000000901C6D121BCFC6
:10B4600000000000901C607464F0E47812F678121A
:10B47000E6C39402748094805043E625E025E024DE
:10B4800061F582E4341CF583E4F0E625E025E02450
:10B4900062F582E4341CF583E4F0E625E025E0243F
:10B4A00063F582E4341CF583E4F0E625E025E0242E
:0DB4B00064F582E4341CF583E4F00680B1FD
:01B4BD00226C
:10C3CE00D2AFD2A9C2BBE4F584E589540F4401F57E
:10C3DE0089758E02758CAFE4F58AD28C12B4502218
:10815C00E4901C5FF07402F0E4F0F0901C5FE0C35C
:10816C00940274809480400302828EE025E025E026
:10817C002464F582E4341CF583E0D3940074809479
:10818C0080500302825D901C5FE025E025E02462B4
:10819C00F582E4341CF583E0600302825D901C5F81
:1081AC00E025E025E02464F582E4341CF583E0301E
:1081BC00E027901C5FE025E025E02464F582E434A0
:1081CC001CF583E0D3940174809480400C7D009066
:1081DC001C5FE0FF12A360800A7D01901C5FE0FF32
:1081EC0012A360901C5FE025E025E02464F582E496
:1081FC00341CF583E06401700A7D01901C5FE0FF84
:10820C0012A360901C5FE025E025E02464F582E475
:10821C00341CF583E014F0901C5FE025E025E0248D
:10822C0064F582E4341CF583E06026901C5FE02545
:10823C00E025E02463F582E4341CF583E0FF901C18
:10824C005FE025E025E02462F582E4341CF583EF41
:10825C00F0901C5FE025E025E02462F582E4341CFC
:10826C00F583E06014901C5FE025E025E02462F5C6
:10827C0082E4341CF583E014F0901C5FE004F002FF
:02828C00816708
:01828E0022CD
:03000B0002AE3909
:10AE3900C0E0C0F0C083C082C0D0E8C0E0E9C0E093
:10AE4900EAC0E0EBC0E0ECC0E0EDC0E0EEC0E0EF4E
:10AE5900C0E012C3AD901C69121B7BE47B01FAF9B7
:10AE6900F81219AF901C69121BC3901C60E014F012
:10AE7900E07017901C6D121B7BE4F81219AF901C3F
:10AE89006D121BC3901C607464F012815C12B72DA3
:10AE9900D0E0FFD0E0FED0E0FDD0E0FCD0E0FBD078
:10AEA900E0FAD0E0F9D0E0F8D0D0D082D083D0F069
:03AEB900D0E032B4
:10B9A60090FFFF121D77EDF090FFFF121D77EFF06D
:10B9B600851083851182E0C3940274809480502D93
:10B9C600A3E0FF851083851182E025E025E0246150
:10B9D600F582E4341CF583EFF0851083851182A38C
:10B9E600E0FD851083851182E0FF12A360900002BE
:04B9F600121D772285
:109E660090FFFE121D77EAF0A3EBF090FFFF121DA4
:109E760077EDF090FFFF121D77EFF08510838511C7
:109E860082E0C39402748094804003029F1EE02502
:109E9600E025E02464F582E4341CF583E0707985DE
:109EA6001083851182E025E025E02462F582E43402
:109EB6001CF583E07062851083851182A3E025E09E
:109EC60004FF851083851182E025E025E02464F5F2
:109ED60082E4341CF583EFF0851083851182A3A3F9
:109EE600E0FEA3E0FF7C007D0A1218198510838529
:109EF6001182E025E025E02463F582E4341CF58335
:109F0600EFF0851083851182E025E025E02462F5D7
:0F9F160082E4341CF583E4F0900004121D7722DE
:10A3600090FFFF121D77EDF090FFFF121D77EFF0C9
:06A3700090FFFF121D77B3
:10A37600851083851182A3E0C39402748094805073
:10A3860033851083851182A3E025E025E02461F55D
:10A3960082E4341CF583E0601B851083851182A35B
:10A3A600A3E070047F0180027F00851083851182FF
:10A3B600A3A3EFF0851083851182E584F075840FE1
:10A3C600851083851182A3E0700F85108385118225
:10A3D600A3A3E024FF92828019851083851182A3AE
:10A3E600E06401700D851083851182A3A3E024FF2C
:0BA3F6009283851083851182E0F584BE
:07A40100900003121D7722F9
:10C57300C2AF901C69121B7B9019DE121BC3D2AF92
:06C583009019DE121B7B83
:01C58900228F
:06C24F0090FFFC121D77B8
:10C25500C2AF901C6D121B7B851083851182121B4A
:0CC26500C3D2AF851083851182121B7BB1
:07C27100900004121D77226A
:10B3E10090FFFF121D77EFF090FFFF121D77851080
:10B3F10083851182A3E07005781EF608F6781DE6B4
:10B4010075F064A4FF08E6FC08E6C39FEC95F050D4
:01B411003703
:10B41200851083851182E584F075840175D480E4FA
:10B42200F58475D103758401AFD2EF9400748094D2
:10B432008040047F0080027FFF8FD285D2D38510A7
:07B4420083851182E0F5840F
:07B44900900002121D7722A2
:10C52800901A03EFF0D209E4781EF608F6E06004EA
:09C53800781DF622781D760A2216
:10C5F300C209E4781EF608F6781D76FF75FFDE752E
:03C60300FFAD2266
:10B72D0090FFFF121D77781F06E618700106781D31
:10B73D00E675F064A4FF08E6FC08E6C39FEC95F0FF
:02B74D00503773
:10B74F00851083851182E584F075840175D480E4BA
:10B75F00F58475D103758401AFD2EF940074809492
:10B76F008040047F0080027FFF8FD285D2D3851067
:07B77F0083851182E0F584CF
:07B78600900001121D772263
:08BEA9009019F2EEF0A3EFF096
:10BEB100E4A3F0A3F09019F2E0FEA3E0FFA3E0FCFD
:10BEC100A3E0C39FEC9E50187FE87E0312ACA07FD5
:10BED1000112B3E19019F4E475F00112184F80D505
:01BEE100223E
:08ACA0009019FEEEF0A3EFF0A5
:0FACA8009019FEE0FEA3E0D394FAEE9400502A38
:10ACB7009019FEE0A3E0F526D3E52694007480946E
:10ACC700804060752701D3E5279400748094804005
:0AACD7000500152780F0152680DE29
:10ACE1009019FEE0FEA3E0FFA3EEF0A3EFF0901AAF
:10ACF10000E0FEA3E0D394FAEE940040147FFA7EC4
:10AD01000012ACA0901A0074FF75F00612184F8063
:10AD1100DD9019FEE0FEA3E0D39400EE940040091B
:09AD2100A3E0FEA3E0FF12ACA0C8
:01AD2A002206
:10C469004D53434246464600323032342D30352D45
:0DC479003037202D20626463626537650056
:04BF57004100120093
:1091B300E4F584901A03F0A3F0758F04901A03E08A
:1091C300FEA3E0F5828E83742E93FE742F93B43442
:1091D30007EEB41203D38001C39202E4F58F200299
:1091E3002F7BFF7AC47969782D7C057D0112200FCE
:1091F300E4900007F0A37450F0A374C2F0A3744684
:10920300F0A374DFF0A374FFF0E4900A56F08053E8
:10921300758F04901A03E0FEA3E0AA06F97BFF789A
:109223002D7C057D0112200F901A03E0FEA3E0249C
:1092330014FFE43EFAA9077BFF78567C0A7D0112EE
:10924300200F901A03E0FEA3E02428FFE43EFAA9CE
:10925300077BFF78077C007D017E007F061216DF07
:10926300E4F58FE4900000F0A3F0C207900541F00D
:109273009019B6121C30900541E075F010A4F582E8
:1092830085F08312171ED394007480948040089055
:079293000541E004F080D961
:01929A0022B1
:06B2FF00901A00121C5021
:10B30500901A00121C3090002E1218A66434700496
:10B31500E5F0641260037F0022C2AFE4F58412C534
:10B32500F3E47812F608F643B701758F0718E6FEC1
:10B3350008E6F5828E83E4F0758F05901A00121CDD
:10B3450030C00218E6FE08E6AA06F8AC027D01D078
:10B35500027E007F301216DF53B7FEE4F58FD2AFC1
:0AB365007F0A12C5281291B37F0180
:01B36F0022BB
:03002300025F9DDC
:0D5F9D00C0E0C0F0C083C082C0D075D00845
:105FAA00309972C299900004E004F0A3E0FF9000D7
:105FBA0004E0C39F5054E0C3940474809480501149
:105FCA00E0240DF582E43400F583E06004D29B807E
:035FDA0002C29B65
:105FDD00752214D3E52294007480948040177523A4
:105FED0001D3E5239400748094804005001523802F
:055FFD00F0152280DE1A
:10600200900004E02449F582E43409F583E0F5992F
:10601200800BC284900005E4F0900004F030982BCD
:10602200300628900002E0FEA3E0C3EE940450196B
:10603200900002E475F001121865FE744925F0F52E
:106042008274053EF583E599F0C2982098030262B6
:1060520010300603026210209A0F20080CC298909A
:106062000002E4F0A3F0026210C29A900002E4750A
:10607200F001121865FE744925F0F58274053EF5AB
:1060820083E599F0C298900002E0FEA3E064014E1D
:10609200700F900549E07009900002F0A3F00262CF
:1060A20010900549E05407FF9019D8E4F0A3EFF0EF
:1060B2009019D8E0FEA3E064074E7053900002E00E
:1060C200FEA3E0D39401EE9400404490054AE024FC
:1060D20003FFE4339019D8F0A3EFF09019D8E0A3AE
:1060E200E030E735900002E0FEA3E0D39402EE94A4
:1060F20000402690054AE0547FFEA3E02404FDE41C
:10610200334EFEEDFF9019D8EEF0A3EFF0800A9027
:1061120019D8E475F00212184F9019D8E0FEA3E0E6
:10612200FF9019D6EEF0A3EFF0900002E0FEA3E09C
:10613200B4000EEEB4040A900002E4F0A3F002628E
:10614200109019D6E0FEA3E0FF900002E0FCA3E06D
:10615200C39FEC9E5003026210900002E0FEA3E097
:1061620024FFFDEE34FFFC7B017A05794912A15C24
:10617200900002E0FCA3E02448F58274053CF5831C
:10618200E06F600A900002E4F0A3F0026210900552
:1061920049E064B76005E064BF700BD20090000272
:1061A200E4F0A3F0806830080B7A007B327D017F37
:1061B20000129E6690052CE004F07B017A09794971
:1061C20090FFFD121D77121C507B017A057949124E
:1061D20000269019D8EEF0A3EFF09019D8E0FEA3B4
:1061E200E0D39400EE940040157A007B327D017F6B
:1061F20001129E669019D8E0A3E0FF12B59930050E
:0E6202000675840075EF10900002E4F0A3F022
:0B621000D0D0D082D083D0F0D0E0329C
:01C6ED00222A
:06C6D70090052CE0FF229B
:10C1750012B72D900546E0FEA3E0D39400EE94009F
:10C18500400A90054674FFF5F012184F900546E0F9
:0DC19500FEA3E04E7006900000F0A3F02223
:1054DC007BFF7AC479719019DE121C509019DE1280
:1054EC001C30121705FF3395E04F600C9019DFE468
:1054FC0075F00112184F80E47BFF7AC47971C003F8
:10550C00C002C0019019DE121C30D3D082D083D0DF
:10551C00E0E99582EA958340199019DE121C30124D
:10552C001705642D600C9019DF74FFF5F012184FFD
:10553C0080C69019DE121C30EB8A8389827BFF7A3D
:10554C00C47971F4700A74716582700474C46583D3
:10555C0070030257CA9019DFE475F00212184F90CD
:10556C0019DE121C3090000112171EFF3395E0FE5D
:10557C00C3EF9430EE64809480402D9019DE121CA1
:10558C003090000112171EFF3395E0FED3EF9439D3
:10559C00EE6480948050119019DE121C3090000142
:1055AC0012171E24D0FF804B9019DE121C30900075
:1055BC000112171EFF3395E0FEC3EF9461EE648079
:1055CC009480402D9019DE121C3090000112171E91
:1055DC00FF3395E0FED3EF9466EE64809480501117
:1055EC009019DE121C3090000112171E24A9FF80A6
:1055FC00027F00EF7D00FC9019DE121C30121705A3
:10560C00FF3395E0FEC3EF9430EE64809480402726
:10561C009019DE121C30121705FF3395E0FED3EF04
:10562C009439EE64809480500E9019DE121C301266
:10563C00170524D0FF80429019DE121C301217057A
:10564C00FF3395E0FEC3EF9461EE648094804027B5
:10565C009019DE121C30121705FF3395E0FED3EFC4
:10566C009466EE64809480500E9019DE121C3012F9
:10567C00170524A9FF80027F00EFC454F04CFCED09
:10568C009019DE121C3090000212171EFF3395E0A9
:10569C00FEC3EF9430EE64809480402D9019DE129E
:1056AC001C3090000212171EFF3395E0FED3EF94CE
:1056BC0039EE6480948050119019DE121C309000E9
:1056CC000212171E24D0FF804B9019DE121C309052
:1056DC00000212171EFF3395E0FEC3EF9461EE64D7
:1056EC00809480402D9019DE121C3090000212170D
:1056FC001EFF3395E0FED3EF9466EE6480948050E9
:10570C00119019DE121C3090000212171E24A9FFF2
:10571C0080027F00EF75F010A4FFE5F04CFEEF4D1A
:10572C00FF9019DE121C3090000312171EFD3395EA
:10573C00E0FCC3ED9430EC64809480402D9019DE35
:10574C00121C3090000312171EFD3395E0FCD3EDB4
:10575C009439EC6480948050119019DE121C3090B6
:10576C00000312171E24D0FD804B9019DE121C3042
:10577C0090000312171EFD3395E0FCC3ED9461EC11
:10578C0064809480402D9019DE121C30900003121E
:10579C00171EFD3395E0FCD3ED9466EC6480948089
:1057AC0050119019DE121C3090000312171E24A900
:0E57BC00FD80027D00EEEF4D786CA60608F62B
:0157CA0022BC
:09621B009019F2EFF0A3121C50DF
:106224009019F3121C3012170564207004D205FF74
:10623400229019F3121C3012170564616003026383
:106244002A9019F6121C30747812177E9019F612DF
:106254001C309000017405121790786CE6FE08E675
:10626400EEFF9019F6121C30900002EF121790788E
:106274006CE608E6FF9019F6121C30900003EF124A
:10628400179012C24F9019F9121BC39019F9121BDF
:106294007BEFE49019F6121C30900007EF12179070
:1062A4009019F9121B7B7808121AE79019F9121B3E
:1062B400C39019F9121B7BEFE49019F6121C30906D
:1062C4000006EF1217909019F9121B7B7808121A26
:1062D400E79019F9121BC39019F9121B7BEFE49094
:1062E40019F6121C30900005EF1217909019F9124C
:1062F4001B7B7808121AE79019F9121BC39019F93D
:10630400121B7BEFE49019F6121C30900004EF127C
:1063140017909019F9121B7B7808121AE79019F953
:10632400121BC37F08229019F3121C301217056444
:10633400687055900A56E0FF3395E0FEEF4E602DED
:106344007B017A0A7956C003C002C0019019F31286
:106354001C30E92401F9E43AA801FCAD03D001D0D2
:1063640002D003121F26EF3395E04F700D9019F6FB
:10637400121C30747812177E800B9019F6121C30A0
:1063840074FF12177E7F01229019F3121C3012172A
:10639400056498703E9019F3121C30E92401F9E465
:1063A4003AFA12B2FFEF601D9019F6121C3074789D
:1063B40012177E9019F6121C30900001E412179007
:1063C400D2057F02229019F6121C3074FF12177E38
:1063D4007F01229019F3121C3012170564416003E7
:0363E40002646EE2
:1063E7009019F2E0FF3395E0FE7C007D3D1217B275
:1063F700747B2FF974123EFA7B019019FD121C5021
:106407009019F3121C3090000112171E6401703CA2
:106417009019FD121C30E92404F9E43AFA78427C19
:10642700057D017E007F041216DF9019FD121C30D6
:106437009000021218A6FF900000E5F0F0A3EFF01D
:106447009005467403F0A374E8F0800DE490000013
:10645700F0A3F0900546F0A3F09019F6121C3074E3
:076467007812177E7F01226D
:02646E007F00AD
:016470002209
:08954B009019F2EFF0A3EDF01E
:10955300E4900002F0A3F0F584FE7F04FD7B017A22
:1095630000790D1221D69019F3E030E02FE4A3F037
:109573009019F2E0FF9019F4E0C39F501FE0C394E9
:1095830004748094805015E0240DF582E43400F5D2
:10959300837401F09019F4E004F080D49019F3E09F
:1095A30030E53D900949E0641070089019F57402A4
:1095B300F080069019F57404F0E49019F4F0901912
:1095C300F5E0FF9019F4E0C39F5015E0240DF582F8
:1095D300E43400F5837401F09019F4E004F080DEC4
:1095E30090000DE024FF929B9019F2E0900005F0AB
:1095F300752614D3E526940074809480401775274C
:1096030001D3E527940074809480400500152780DA
:05961300F0152680DEC9
:0F961800D284900949E0F599E4900004F07F01B5
:019627002220
:05B599009019DAEFF04B
:10B59E00E4F584C29BE0900005F0E4900004F09086
:10B5AE0019DBF09019DAE0FFA3E0C39F5014E024FA
:10B5BE000DF582E43400F583E4F09019DBE004F03D
:02B5CE0080E11A
:10B5D000752414D3E5249400748094804017752555
:10B5E00001D3E525940074809480400500152580E2
:05B5F000F0152480DECF
:0AB5F500D284900949E0F5997F0126
:01B5FF002229
:05B600009019E0EFF0DD
:10B60500E4F584C29BE0900005F0E4900004F0901E
:10B6150019E1F09019E0E0FFA3E0C39F5014E02486
:10B625000DF582E43400F583E4F09019E1E004F0CF
:02B6350080E1B2
:10B63700752614D3E52694007480948040177527E7
:10B6470001D3E52794007480948040050015278076
:05B65700F0152680DE65
:0AB65C00D284900949E0F5997F01BE
:01B6660022C1
:095A79009019F2EFF0A3121C5089
:105A82009019F2E030E104E4FEFF229019F2E030D6
:105A9200E20B9019FAE4F0A37432F0801D9019F22F
:105AA200E030E30C9019FA7475F0A37430F0800AB8
:105AB2009019FA7401F0A374F4F0E49019F6F0A3CB
:105AC200F09019FCF0A3F09019F8F0A3F09019FAF5
:105AD200E0FEA3E0FF9019F8E0FCA3E0C39FEC9E78
:105AE2004003025CF19019FCE0FEA3E0FF9000028B
:105AF200E0FCA3E09FEC9E4017E49019F8F0A3F0BD
:105B0200900002E0FEA3E0FF9019FCEEF0A3EFF09C
:105B1200900949E0641A703E900002E0FEA3E0643E
:105B2200014E7032900549E06478702A7B017A0553
:105B32007949C003C002C0019019F3121C30A801B8
:105B4200AC02AD03D001D002D0037E007F01121659
:105B5200DF7E007F0122900949E064A1600DE064CC
:105B62000A704690094DE064A1703E900002E0FE8A
:105B7200A3E064014E7032900549E06478702A7B9C
:105B8200017A057949C003C002C0019019F3121CC1
:105B920030A801AC02AD03D001D002D0037E007F59
:105BA200011216DF7E007F0122900949E064A260A3
:105BB2000DE0640A704690094DE064A2703E9000C8
:105BC20002E0FEA3E064014E7032900549E0647881
:105BD200702A7B017A057949C003C002C00190197D
:105BE200F3121C30A801AC02AD03D001D002D003E5
:105BF2007E007F011216DF7E007F0122900002E00C
:105C0200FEA3E0D39400EE94005003025CD890050A
:105C120049E0547864786003025CD8E05407FF904E
:105C220019F6E4F0A3EFF09019F6E0FEA3E06407A2
:105C32004E7053900002E0FEA3E0D39401EE940074
:105C4200404490054AE02403FFE4339019F6F0A3A0
:105C5200EFF09019F6E0A3E030E735900002E0FEA5
:105C6200A3E0D39402EE9400402690054AE0547FCC
:105C7200FEA3E02404FDE4334EFEEDFF9019F6EEA0
:105C8200F0A3EFF0800A9019F6E475F00212184FB3
:105C92009019F6E0FEA3E0FF900002E0FCA3E0B55D
:105CA2000734ECB506309019F6E0A3E07B017A05E3
:105CB2007949C003C002C0019019F3121C30A80137
:105CC200AC02AD03D001D002D0031216DF9019F658
:105CD200E0FEA3E0FF227F0012B3E17F647E0012A8
:105CE200ACA09019F8E475F00112184F025ACF9047
:105CF20019FAE0FEA3E0FF9019F8E0FCA3E0B50773
:105D020014ECB506109019F3121C3074FF12177EB2
:085D12007E007F0122E4FEFF88
:015D1A002266
:10AF3F007B017A1B79D0C002C001E49019E7F0A31E
:10AF4F00F0A37402F0A37411F0E4A3F07A00791364
:10AF5F00A3121C509019EF7401F0A37413F0D001D9
:10AF6F00D0027D997C0412A7419019DEEFF0E0FF2B
:10AF7F003395E0FE7C007D3D1217B2747B2FF97480
:10AF8F00123EFA7B01A3121C507A017926C003C02E
:10AF9F0002C0019019DF121C3090000E121CF890A5
:10AFAF0019DF121C30900011740475F0051219820C
:01AFBF00226F
:067B18009019F2121C504E
:107B1E0090165DE0901A01F0E070057EFF7F9D22C9
:107B2E00901A01E0640A6005E0640B700990164D2E
:107B3E00121B7B128FDB12C0EB9019F8EFF0E020D6
:107B4E00E103027C66E490127DF0A3F0FE7F04FD5B
:107B5E007B017A12797F1221D67E007F107D007B09
:107B6E00017A0079131221D67B017A1979F912471D
:107B7E008D9019FFEEF0A3EFF07B007A007900C034
:107B8E0003C002C0019019F9121C30D082D083D0EC
:107B9E00E06B7008E965827003EA65837003FEFF8F
:107BAE00229019F9121C30900013121CC89019FC67
:107BBE00121C509019FC121C3012187B2406FFE484
:107BCE0035F0FE9019FFE0FCA3E06F7002EE6C60E2
:107BDE0004E4FEFF229019FC121C309000051217CF
:107BEE001E640560149019FC121C309000061217CA
:107BFE001E64616004E4FEFF229019FC121C30909A
:107C0E0000021218A6FF9019F9121C3090002CE5F4
:107C1E00F08FF01219829019F9121C309000131285
:107C2E001CC8C003C002C0019019F2121C30121CF5
:107C3E00799019F9121C3090001C12171EFF901922
:107C4E00F5121C30EF12177E9019F9121C309000AD
:0B7C5E00191218A6FFAEF022E4FEFF92
:017C690022F8
:0B8D02009019F2EFF0A3ECF0A3EDF0ED
:108D0D009019F2E0C3748094804009E0941074804F
:108D1D0094804004E4FEFF229019F3E0FEA3E0D31B
:108D2D009406EE648094844004E4FEFF229019F2D0
:108D3D00E075F03DA4247BF9741235F0FA7B0190B7
:108D4D0019F5121C507A0179269019F8121C5090C1
:108D5D0019F8121C3090000574051217909019F334
:108D6D00E0FEA3E0FF9019F8121C30EE8FF01219FF
:108D7D00639019F5121C3090002C1218A6FF901953
:108D8D00F8121C30900002E5F08FF0121982901944
:108D9D00F8121C30900004E41217909019F3E0FEC5
:108DAD00A3E02406FFE43EFEA3121C30900011EE5A
:108DBD008FF01219829019F5121C3012732490192C
:108DCD00FBEEF0A3EFF09019FBE0FEA3E0C39406D9
:108DDD00EE940050089019FBE0A3E0FF229019FBE0
:0B8DED00E0FEA3E024FAFFEE34FFFEDE
:018DF8002258
:10C4A300C208C203C205C206E4900002F0A3F01260
:0CC4B30054DC1291B312C32812AF3F22D8
:062AB7009019F2121C5000
:102ABD009019F2121C301217055407FF9019FEE4FD
:102ACD00F0A3EFF09019FEE0FEA3E064074E7057FF
:102ADD009019F2121C3090000112171E30E72C9045
:102AED0019F2121C3090000112171E547FFE90191E
:102AFD00F2121C3090000212171EFDEEED2404FFA1
:102B0D00E43E9019FEF0A3EFF080269019F2121C0E
:102B1D003090000112171E547F2403FFE4339019E7
:102B2D00FEF0A3EFF0800A9019FEE475F002121882
:102B3D004F9019FEE0FEA3E024FFFDEE34FFFC9064
:102B4D0019F2121C3012A15C9019F2121C3090195E
:102B5D00FEE0FCA3E024FFFDEC34FF8D82F5831233
:102B6D00171E6F6004E4FEFF22E49019FCF0A3F041
:102B7D009019F2121C3012170564B76003022DF87C
:102B8D009019FEE0FEA3E024F7FFEE34FFFEE4FC17
:102B9D00FD901A04121BC39019F2121C3090000301
:102BAD0012171E901A08F09019F2121C30900004A2
:102BBD0012171EFFE4FCFDFE901A00121BC39019A4
:102BCD00F2121C3090000512171EFFE4FCFDFEC032
:102BDD0004C005C006C007901A00121B7B780812AE
:102BED001AFAA804A905AA06AB07D007D006D00586
:102BFD00D004121A98901A00121BC39019F2121CCD
:102C0D003090000612171EFFE4FCFDFEC004C00547
:102C1D00C006C007901A00121B7B7808121AFAA87A
:102C2D0004A905AA06AB07D007D006D005D004121B
:102C3D001A98901A00121BC39019F2121C309000B2
:102C4D000712171EFFE4FCFDFEC004C005C006C040
:102C5D0007901A00121B7B7808121AFAA804A9050E
:102C6D00AA06AB07D007D006D005D004121A98904B
:102C7D001A00121BC3901A00121B7B781C121AE744
:102C8D00E4FBFAF9F8C3121AD66003022DF4901A78
:102C9D0000121B7BEFEEEDEC540FFC901A00121B93
:102CAD00C3E4FF12C68F901A08E0FF12BF8C901A72
:102CBD0000121B7B7810121AE7EFEE540FFEE4FDA5
:102CCD00FCFBFAF9F8C3121AD650427F1412AA5718
:102CDD00901A00121B7B7818121AE7EFE412AA570C
:102CED00901A00121B7B7810121AE7EFE412AA5704
:102CFD00901A00121B7B7808121AE7EFE412AA57FC
:102D0D00901A00121B7BEFE412AA57804C901A0008
:102D1D00121B7B7808121AE7EFE4FEFDFCFBFAF9B3
:102D2D00F8C3121AD650227F1212AA57901A001207
:102D3D001B7B7808121AE7EFE412AA57901A0012BB
:102D4D001B7BEFE412AA5780107F1112AA57901A1D
:102D5D0000121B7BEFE412AA57E49019FAF0A3F0CE
:102D6D009019FAE0FEA3E0FFE4FCFD901A04121B9B
:102D7D0087D3121AD640299019F2121C309019FAE5
:102D8D00E0FEA3E02408FFE43E8F82F58312171EB8
:102D9D00FF12AA579019FAE475F00112184F80C06E
:102DAD007FFF12BF8C7F0112C68F9019F5121C3058
:102DBD00747812177E901A04121B7BAD07AC069027
:102DCD0019F2121C30E92408F9E43AFA12A15C90C8
:102DDD0019F5121C30900001EF1217909019FCE4B8
:102DED00F0A37402F08004E4FEFF229019F2121C8D
:102DFD003012170564BF60030231229019F2121CC4
:102E0D003090000212171EFE9019F2121C30900025
:102E1D000312171EFDEEEDFFEE3395E0FDFC901A4B
:102E2D0004121BC39019F2121C3090000412171ECD
:102E3D00901A08F09019F2121C3090000512171E0E
:102E4D00FFE4FCFDFE901A00121BC39019F2121C38
:102E5D003090000612171EFFE4FCFDFEC004C005F5
:102E6D00C006C007901A00121B7B7808121AFAA828
:102E7D0004A905AA06AB07D007D006D005D00412C9
:102E8D001A98901A00121BC39019F2121C30900060
:102E9D000712171EFFE4FCFDFEC004C005C006C0EE
:102EAD0007901A00121B7B7808121AFAA804A905BC
:102EBD00AA06AB07D007D006D005D004121A9890F9
:102ECD001A00121BC39019F2121C30900008121731
:102EDD001EFFE4FCFDFEC004C005C006C007901A2D
:102EED0000121B7B7808121AFAA804A905AA06ABD2
:102EFD0007D007D006D005D004121A98901A0012E8
:102F0D001BC3901A04121B7BEF2404FBE43EFAE46E
:102F1D003DF9E43CF89019F8E0FEA3E0FFEE33959F
:102F2D00E0FDFCD3121AD64004E4FEFF22901A04F1
:102F3D00121B7B7D009019F5121C30E92403F9E476
:102F4D003AFA1221D6901A00121B7B781C121AE73E
:102F5D00E4FBFAF9F8C3121AD6600302311E901A77
:102F6D0000121B7BEFEEEDEC540FFC901A00121BC0
:102F7D00C3E4FF12C68F901A08E0FF12BF8C901A9F
:102F8D0000121B7B7810121AE7EFEE540FFEE4FDD2
:102F9D00FCFBFAF9F8C3121AD650427F2412AA5735
:102FAD00901A00121B7B7818121AE7EFE412AA5739
:102FBD00901A00121B7B7810121AE7EFE412AA5731
:102FCD00901A00121B7B7808121AE7EFE412AA5729
:102FDD00901A00121B7BEFE412AA57804C901A0036
:102FED00121B7B7808121AE7EFE4FEFDFCFBFAF9E1
:102FFD00F8C3121AD650227F2212AA57901A001225
:10300D001B7B7808121AE7EFE412AA57901A0012E8
:10301D001B7BEFE412AA5780107F2112AA57901A3A
:10302D0000121B7BEFE412AA57901A04121B7BEFC0
:10303D00E412AA57E49019FAF0A3F09019FAE0FE01
:10304D00A3E0FFE4FCFD901A04121B87D3121AD6DD
:10305D00402912A69E9019F5121C309019FAE0FC29
:10306D00A3E02403FDE43C8D82F583EF12179090CD
:10307D0019FAE475F00112184F80C07FFF12BF8C52
:10308D007F0112C68F9019F5121C30747F12177EB6
:10309D00901A04121B7B7808121AE7EF547FFFE495
:1030AD00EF4480FFE49019F5121C30900001EF12EF
:1030BD001790901A04121B7BEFE49019F5121C3037
:1030CD00900002EF121790901A04121B7BEF24034D
:1030DD00FDE43EFC9019F5121C3012A15CC0079066
:1030ED001A04121B7BEF2403FFE43EFE9019F51228
:1030FD001C308F828E83D007EF121790901A041216
:10310D001B7BEF2404FFE43E9019FCF0A3EFF0804D
:0D311D0004E4FEFF229019FCE0FEA3E0FF99
:01312A002282
:10B9FA007B017A057949C002C0017A09794990190F
:10BA0A00F5121C509019F87401F0A3740DF0D001CE
:10BA1A00D002122AB79019DEEEF0A3EFF09019DEE9
:10BA2A00E0FEA3E0D39400EE940040157A007B3246
:10BA3A007D017F01129E669019DEE0A3E0FF12B637
:01BA4A0000FB
:01BA4B0022D8
:0F00260090FFFD121D77121C5090FFF2121D77F4
:1000350090000E121D9B121C301217055407FF7EEF
:1000450000900005121D9BEEF0A3EFF09000051245
:100055001D9BE0FEA3E064074E707090000E121D1C
:100065009B121C3090000112171E30E73A90000ECB
:10007500121D9B121C3090000112171E547F7F0029
:10008500FE90000E121D9B121C3090000212171ECE
:10009500FDEEEF4D2404FFE43EFE900005121D9B8E
:1000A500EEF0A3EFF0803190000E121D9B121C3074
:1000B50090000112171E547F2403FFE433FE9000C5
:1000C50005121D9BEEF0A3EFF0800D900005121DAB
:1000D5009BE475F00212184F900005121D9BE0FE7F
:1000E500A3E024FFFDEE34FFFC90000E121D9B12D1
:1000F5001C3012A15C90000E121D9B121C3090004A
:1001050005121D9BE0FCA3E024FFFDEC34FF8D826E
:10011500F58312171E6F6006E4FEFF02123290008F
:1001250003121D9BE4F090000E121D9B121C301251
:100135001705121D5101650A023B1001E712016501
:100145001A025120025628042A2907113307D537E8
:1001550008475008E561064A7008E1980000093C27
:1001650090000E121D9B121C3090000112171E7F6D
:1001750000FE90000E121D9B121C309000021217FB
:100185001EFDEEEF4DFF9019BDE0FCA3E06F700280
:10019500EE6C7044D20890000604F07A007B32FDC4
:1001A5007F00129E6690000E121D9B121C301217C6
:1001B50005641A600302093C900011121D9B121C74
:1001C50030900003121D9BE0FF04F08F82758300C1
:1001D500747812179002093CC208E4900006F002F8
:1001E500093C90000E121D9B121C30900001121745
:1001F5001E7F00FE90000E121D9B121C3090000207
:1002050012171EFDEEEF4DFF9019BFE0FCA3E0B500
:10021500071AEEB50416D2089000067402F07A00AB
:100225007B327D017F00129E6602093CC208E49084
:100235000006F002093CD2089000067403F07A002B
:100245007B327D017F00129E6602093CD2050209C0
:100255003C900011121D9B121C30900003121D9B37
:10026500E0FF04F08F82758300747F121790900071
:1002750011121D9B121C30900003121D9BE0FF0400
:10028500F08F827583007418121790900011121D5B
:100295009B121C30900003121D9BE0FF04F08F821F
:1002A5007583007405121790900541E0FF900011C9
:1002B500121D9B121C30900003121D9BE0FE04F0E2
:1002C5008E82758300EF1217909019BDE0FEA3E0B2
:1002D500EEFF900011121D9B121C30900003121DA1
:1002E5009BE0FE04F08E82758300EF121790901943
:1002F500BDE0A3E0FF900011121D9B121C30900081
:1003050003121D9BE0FE04F08E82758300EF121729
:10031500909019BFE0FEA3E0EEFF900011121D9B27
:10032500121C30900003121D9BE0FE04F08E8275B6
:100335008300EF1217909019BFE0A3E0FF90001122
:10034500121D9B121C30900003121D9BE0FE04F051
:100355008E82758300EF121790786CE6FE08E6EE44
:10036500FF900011121D9B121C30900003121D9B63
:10037500E0FE04F08E82758300EF121790786CE62C
:1003850008E6FF900011121D9B121C30900003120D
:100395001D9BE0FE04F08E82758300EF1217908599
:1003A5001083851182E4F0851083851182E0C39462
:1003B50010748094805033E024C1F582E43419F53B
:1003C50083E0FF900011121D9B121C309000031258
:1003D5001D9BE0FE04F08E82758300EF1217908559
:1003E5001083851182E004F080BD900003121D9BEF
:1003F500E0FD7C00900011121D9B121C3012A15CC7
:10040500900011121D9B121C30900003121D9BE0E1
:10041500F582758300EF121790900003121D9BE083
:1004250004F002093C90000E121D9B121C30900036
:100435000112171EFF900541E0FEEFC39E40030227
:0204450006208F
:1004470090000E121D9B121C3090000112171E7592
:10045700F010A4FF9019B6121C30E92FF9EA35F015
:10046700FA90000B121D9B121C50900011121D9B3D
:10047700121C30900003121D9BE0FF04F08F827561
:100487008300747F121790900011121D9B121C306D
:10049700900003121D9BE0FF04F08F8275830074A8
:1004A7000D12179090000B121D9B121C301217058E
:1004B700FF900011121D9B121C30900003121D9B10
:1004C700E0FE04F08E82758300EF12179090000B08
:1004D700121D9B121C3090000112171EFF90001175
:1004E700121D9B121C30900003121D9BE0FE04F0AE
:1004F7008E82758300EF12179090000B121D9B12CE
:100507001C3090000212171EFF900011121D9B1243
:100517001C30900003121D9BE0FE04F08E82758351
:1005270000EF12179090000B121D9B121C309000C9
:100537000312171EFF900011121D9B121C30900012
:1005470003121D9BE0FE04F08E82758300EF1217E5
:100557009090000B121D9B121C3090000412171E66
:10056700FF900011121D9B121C30900003121D9B5F
:10057700E0FE04F08E82758300EF121790851083DA
:10058700851182E4F0851083851182E0C394087495
:10059700809480504990000B121D9B121C30E92457
:1005A70005F9E43AFA851083851182E07E0029F97E
:1005B700EE3AFA121705FF900011121D9B121C301C
:1005C700900003121D9BE0FE04F08E82758300EFFE
:1005D700121790851083851182E004F080A79000A0
:1005E70003121D9BE0FD7C00900011121D9B121C45
:1005F7003012A15C900011121D9B121C3090000359
:10060700121D9BE0F582758300EF1217909000038F
:06061700121D9BE004F03F
:10061D0002093C900011121D9B121C3074781217A8
:10062D007E900011121D9B121C30900001E41217D8
:10063D0090900003121D9B7402F002093C12C24FF0
:10064D00900007121D9B121BC3900011121D9B12CF
:10065D001C30747C12177E900007121D9BE0FF90DA
:10066D000011121D9B121C30900001EF1217907B90
:10067D0001900007121D9BA982AA839000011217F9
:10068D001EFF900011121D9B121C30900002EF12E4
:10069D0017907B01900007121D9BA982AA839000E1
:1006AD000212171EFF900011121D9B121C3090009C
:1006BD0003EF1217907B01900007121D9BA982AAD0
:1006CD008390000312171EFF900011121D9B121C28
:1006DD0030900004EF1217907C007D0590001112F0
:1006ED001D9B121C3012A15C900011121D9B121C3F
:1006FD0030900005EF121790900003121D9B7406A9
:10070D00F002093C90000E121D9B121C309000014E
:10071D0012171E6401703090000E121D9B121C30BA
:10072D0090000212171E7F00FE90000E121D9B12EC
:10073D001C3090000312171EFDEEEF4DFF9019BDFA
:10074D00EEF0A3EFF0807C90000E121D9B121C307A
:10075D0090000112171E6402702890000E121D9B4E
:10076D00121C3090000212171EFF7F0090000E1217
:10077D001D9B121C3090000312171E4F9019BDF0D7
:10078D00804190000E121D9B121C3090000112171B
:10079D001E6403702E90000E121D9B121C309000D3
:1007AD000212171E7F00FE90000E121D9B121C30B0
:1007BD0090000312171EFDEEEF4DFF9019BFEEF0E6
:1007CD00A3EFF0D20402093C851083851182E4F079
:1007DD00851083851182E0C39410748094805050ED
:1007ED0090000E121D9B121C3090000112171EFF5F
:1007FD00851083851182E0C39F5035E02402FFE40C
:10080D0033FE90000E121D9B121C308F828E8312B0
:10081D00171EFF851083851182E024C1F582E43413
:10082D0019F583EFF0851083851182E004F080A027
:10083D00E49019D0F0D20402093C20064D9000112D
:10084D00121D9B121C30747912177E900011121D0F
:10085D009B121C3090000174011217907C007D02D8
:10086D00900011121D9B121C3012A15C90001112F0
:10087D001D9B121C30900002EF1217909000031276
:10088D001D9B7403F0D20302093C900011121D9BB5
:10089D00121C30747912177E900011121D9B121CC0
:1008AD003090000174021217907C007D02900011AF
:1008BD00121D9B121C3012A15C900011121D9B1277
:1008CD001C30900002EF121790900003121D9B74C4
:1008DD0003F0805BD2048057900011121D9B121CF7
:1008ED0030747912177E90000E121D9B121C3090E1
:1008FD00000112171EFF900011121D9B121C30904B
:10090D000001EF1217907C007D02900011121D9BCB
:10091D00121C3012A15C900011121D9B121C309004
:10092D000002EF121790900003121D9B7403F090BC
:10093D00000E121D9B121C3012170554F864A06096
:10094D0003020EE190000E121D9B121C30121705B2
:10095D0064A16003020C0590000E121D9B121C3049
:10096D0090000112171EFF900004121D9BEFF090D6
:10097D000541E0FF900004121D9BE0C39F40030260
:10098D000BEB9019B6121C30900004121D9BE075F4
:10099D00F010A4F58285F08312171EFF900003124C
:1009AD001D9BEFF0900004121D9BE075F010A4FF4D
:1009BD009019B6121C30E92FF9EA35F0FA900004BF
:1009CD0012171E20E203020A64900011121D9B12E1
:1009DD001C30747F12177E900011121D9B121C305B
:1009ED00E92402F9E43AFA900004121D9BE0FF128B
:1009FD009A68900003121D9BEFF0900003121D9B4F
:100A0D00E0FF900011121D9B121C30900001EF129F
:100A1D001790900003121D9BE02402F0900003122A
:100A2D001D9BE0FD7C00900011121D9B121C3012CD
:100A3D00A15C900011121D9B121C30900003121D21
:100A4D009BE0F582758300EF121790900003121D45
:100A5D009BE004F0020EE1900003121D9BE0D39485
:100A6D0006748094805003020B1D900011121D9B83
:100A7D00121C30747F12177E900003121D9BE0FF35
:100A8D00900011121D9B121C30900001EF12179057
:100A9D00851083851182E4F0900003121D9BE0FF09
:100AAD00851083851182E0C39F5058900004121D5C
:100ABD009BE075F010A4FF9019B6121C30E92FF9C8
:100ACD00EA35F0FA90000D121CC88510838511824D
:100ADD00E0F58275830012171EFF85108385118244
:100AED00E02402FDE433FC900011121D9B121C301A
:100AFD008D828C83EF121790851083851182E0040F
:100B0D00F08095900003121D9BE02402F0020BB0C3
:100B1D00900003121D9BE02478FF900011121D9B85
:100B2D00121C30EF12177E851083851182E4F09030
:100B3D000003121D9BE0FF851083851182E0C39F8A
:100B4D005058900004121D9BE075F010A4FF9019F1
:100B5D00B6121C30E92FF9EA35F0FA90000D121C8F
:100B6D00C8851083851182E0F58275830012171EEA
:100B7D00FF851083851182E02401FDE433FC900094
:100B8D0011121D9B121C308D828C83EF12179085D4
:100B9D001083851182E004F08095900003121D9B57
:100BAD00E004F0900003121D9BE0FD7C009000110D
:100BBD00121D9B121C3012A15C900011121D9B1274
:100BCD001C30900003121D9BE0F582758300EF121F
:100BDD001790900003121D9BE004F0020EE19000AF
:100BED0011121D9B121C30747812177E9000031287
:100BFD001D9B7401F0020EE190000E121D9B121C44
:100C0D003012170564A26003020EE190000E121D52
:100C1D009B121C3090000112171EFF900541E0FE43
:100C2D00EFC39E4003020ECA90000E121D9B121CB4
:100C3D003090000212171EFF900541E0FEEFC39E9B
:100C4D004003020ECA90000E121D9B121C30900024
:100C5D000212171EFF90000E121D9B121C309000E9
:100C6D000112171ED39F4003020ECA90000E121DD3
:100C7D009B121C3090000112171E85108385118266
:100C8D00F0A3A3E4F090000E121D9B121C309000F7
:100C9D000212171EFF851083851182E0D39F5030FD
:100CAD009019B6121C30851083851182E075F010F5
:100CBD00A4F58285F08312171EFF8510838511829E
:100CCD00A3A3E02FF0851083851182E004F080B599
:100CDD00900003121D9BE4F0900011121D9B121C3D
:100CED0030900003121D9BE0FF04F08F827583008E
:100CFD00747F121790851083851182A3A3E0C3948E
:100D0D0080748094805028851083851182A3A3E080
:100D1D00FF900011121D9B121C30900003121D9BA1
:100D2D00E0FE04F08E82758300EF121790804F85E0
:100D3D001083851182A3A3E0E47480FF900011124B
:100D4D001D9B121C30900003121D9BE0FE04F08EC3
:100D5D0082758300EF121790851083851182A3A3EE
:100D6D00E0FF900011121D9B121C30900003121D0C
:100D7D009BE0FE04F08E82758300EF1217909000B9
:100D8D000E121D9B121C3090000112171E85108330
:100D9D00851182F090000E121D9B121C30900002E6
:100DAD0012171EFF851083851182E0D39F40030229
:100DBD000E90A3E4F09019B6121C308510838511A6
:100DCD0082E075F010A4F58285F08312171EFF8561
:100DDD001083851182A3E0C39F4003020E8485100A
:100DED0083851182E075F010A4FF9019B6121C30A6
:100DFD00E92FF9EA35F0FA90000412171E30E21EC1
:100E0D00900011121D9B121C30900003121D9BE0CF
:100E1D00FF04F08F82758300E4121790804C8510CB
:100E2D0083851182E075F010A4FF9019B6121C3065
:100E3D00E92FF9EA35F0FA90000D121CC8851083E0
:100E4D00851182A3E0F58275830012171EFF9000B5
:100E5D0011121D9B121C30900003121D9BE0FE040D
:100E6D00F08E82758300EF121790851083851182A5
:100E7D00A3E004F0020DC2851083851182E004F019
:100E8D00020DA1900003121D9BE0FD7C009000114E
:100E9D00121D9B121C3012A15C900011121D9B1291
:100EAD001C30900003121D9BE0F582758300EF123C
:100EBD001790900003121D9BE004F0801790001115
:100ECD00121D9B121C30747812177E900003121D98
:100EDD009B7401F090000E121D9B121C3012170511
:100EED0054F86480601590000E121D9B121C301278
:100EFD00170554F86488600302122890000E121D25
:100F0D009B121C301217055407FF900003121D9BF6
:100F1D00EFF0900003121D9BE06407703B8510837A
:100F2D00851182A304F090000E121D9B121C3090AF
:100F3D00000112171EFF900003121D9BEFF0900091
:100F4D000E121D9B121C3090000212171EFF9000F6
:100F5D0004121D9BEFF08021851083851182A3E47F
:100F6D00F090000E121D9B121C3090000112171EE6
:100F7D00FF900004121D9BEFF0900003121D9BE0EB
:100F8D0014F0900541E0FF900004121D9BE0C39FFB
:100F9D0040030212289019B6121C30900004121D45
:100FAD009BE075F010A4F58285F08312171EFF905B
:100FBD000003121D9BE0D39F40229019B6121C30E6
:100FCD00900004121D9BE075F010A4F58285F0834E
:100FDD0012171EFF900003121D9BEFF085108385E5
:100FED001182E4F0900003121D9BE0FF85108385B4
:100FFD001182E0C39F40030211BA900004121D9BA1
:10100D00E075F010A4FF9019B6121C30E92FF9EA23
:10101D0035F0FA90000412171E30E2030211AE9063
:10102D000004121D9BE075F010A4FF9019B6121C60
:10103D0030E92FF9EA35F0FA90000112171E6438E5
:10104D006003021125900003121D9BE0D3940474DC
:10105D00809480405F851083851182A3E02402FF78
:10106D00E433FE851083851182E07C002FFFEC3E7A
:10107D00FE90000E121D9B121C308F828E83121754
:10108D001EFD900004121D9BE075F010A4FF901939
:10109D00B6121C30E92FF9EA35F0FA90000D121C4A
:1010AD00C8851083851182E0F582758300ED1217D6
:1010BD00900211AE900005121D9BE0FEA3E024FEF0
:1010CD00FFEE34FFFE851083851182E0FDC3EF9D99
:1010DD00FFEE9400FE90000E121D9B121C308F82AD
:1010ED008E8312171EFD900004121D9BE075F010EB
:1010FD00A4FF9019B6121C30E92FF9EA35F0FA90D9
:10110D00000D121CC8851083851182E0F582758350
:10111D0000ED1217900211AE9019B6121C3090000E
:10112D0004121D9BE075F010A4F58285F083121753
:10113D001EFF7E00900005121D9BE0FCA3E024FF26
:10114D00FDEC34FFFCC3ED9FFFEC9EFE8510838507
:10115D001182E07C002FFFEC3EFEA3E02FFFEC3E62
:10116D00FE90000E121D9B121C308F828E83121763
:10117D001EFD900004121D9BE075F010A4FF901948
:10118D00B6121C30E92FF9EA35F0FA90000D121C59
:10119D00C8851083851182E0F582758300ED1217E5
:1011AD0090851083851182E004F0020FF190000EFE
:1011BD00121D9B121C30900004121D9BE0FF129C0F
:1011CD001390000E121D9B121C3012170554F8645B
:1011DD00887048900011121D9B121C3074781217E4
:1011ED007E90000E121D9B121C30900005121D9B4F
:1011FD00E0FEA3E024FFFFEE34FF8F82F58312178C
:10120D001EFF900011121D9B121C30900001EF1259
:10121D001790900003121D9B7402F0900003121D95
:05122D009BE0FF7E00C4
:07123200900014121D772249
:10312B0012C6DDEF4E60142007117B007A00790088
:10313B007F807EF47DFF7CFF12BFC190165DE06443
:10314B0009700B12C6DDEF4E6004D2078002C20776
:10315B00300719900012E070137D01FF12B9A67DA4
:10316B00017F0012A3609000127401F020071990E8
:10317B000012E060137D007F0012B9A67D017F0075
:10318B0012A360E4900012F07B017A1979DEC00281
:10319B00C0017A1979EE9019F5121C50D001D002AA
:1031AB00127B189019EAEEF0A3EFF0D39400EE9493
:1031BB000050030236609019DE121C309019EF128A
:1031CB001C507B017A01792C9019E1121C50900054
:1031DB0000E0FEA3E04E605D9019EEE0FF3395E05A
:1031EB00FE90127D75F03DEF121C24EE75F03DA4A0
:1031FB002583F583E0FEA3E0FF900000E0FCA3E055
:10320B006F7002EC6E60030236709019EEE0FF33C4
:10321B0095E0FE7C007D3D1217B2747F2FF974127E
:10322B003EFA78427C057D017E007F041221B2EFCD
:10323B006003023670900000E0FEA3E04E606790E2
:10324B0019EEE0FF3395E0FE90127D75F03DEF1225
:10325B001C24EE75F03DA42583F583E0FEA3E0FF6F
:10326B00900000E0FCA3E06F7002EC6E70389019D8
:10327B00EEE0FF3395E0FE7C007D3D1217B2747FCC
:10328B002FF974123EFA7B0178427C057D017E009A
:10329B007F041221B2EF3395E04F700A900546740C
:1032AB0003F0A374E8F09019EAE0FEA3E0D39413C3
:1032BB00EE940140030236709019EF121C30E92492
:1032CB0006F9E43AFA9019E6121C509019EF121C09
:1032DB003090000412171E5410D394007480948005
:1032EB0040047F0180027F009019E5EFF09019EF09
:1032FB00121C3012187BFF9019ECE5F0F0A3EFF0E5
:10330B009019EF121C3090000412171E9019E4F064
:10331B009019ECE0FEA3E02406FFE43EFE9019EAD0
:10332B00E0FCA3E06F7002EE6C6003023670901944
:10333B00EF121C3090000512171E640560109019D7
:10334B00E6121C30121705646160030236707A00B6
:10335B007B327D017F00129E669019E5E0605390F1
:10336B0019EEE0FF9019E6121C30C003C002C00139
:10337B009019E1121C309019F6121C50D001D0029A
:10338B00D00312621B9019EAE4F0A3EFF09019EA54
:10339B00E0FEA3E0D39400EE94005003023660905D
:1033AB0019EEE0FF9019EAE0FCA3E0FD128D02029A
:1033BB0036609019E6121C3012170564B7600D9039
:1033CB0019E6121C3012170564BF70559019E612DE
:1033DB001C30C003C002C0019019E1121C309019BF
:1033EB00F5121C509019F87404F0A3E4F0D001D03E
:1033FB0002D003122AB79019EAEEF0A3EFF090195E
:10340B00EAE0FEA3E0D39400EE9400500302367082
:10341B009019EEE0FF9019EAE0FCA3E0FD128D029B
:10342B00229019E1121C3090FFFD121D77121C50D7
:10343B009019E6121C301200269019EAEEF0A3EF59
:10344B00F09019EAE0FEA3E0D39400EE9400401054
:10345B009019EEE0FF9019EAE0FCA3E0FD128D025B
:10346B002008030235539019E6121C30121705542D
:10347B000724029019E9F0E0FF9019ECE0FCA3E0BF
:10348B00D39FEC940050030235539019E9E0901947
:10349B00E7E48FF012184FD2069019E6121C301287
:1034AB00170564B7600D9019E6121C3012170564EE
:1034BB00BF70549019E6121C30C003C002C00190BB
:1034CB0019E1121C309019F5121C509019F8740464
:1034DB00F0A3E4F0D001D002D003122AB79019EA7E
:1034EB00EEF0A3EFF09019EAE0FEA3E0D39400EE28
:1034FB00940040109019EEE0FF9019EAE0FCA3E075
:10350B00FD128D02C206229019E1121C3090FFFDB4
:10351B00121D77121C509019E6121C3012002690C7
:10352B0019EAEEF0A3EFF09019EAE0FEA3E0D394D2
:10353B0000EE940040109019EEE0FF9019EAE0FCC9
:10354B00A3E0FD128D02C206300803023604901967
:10355B00ECE0FEA3E0FF9019E6121C3078497C09E1
:10356B007D011216DFD2069019ECE0A3E0FF901953
:10357B00E4E0FD12954BEF607C900005E060077F67
:10358B000012B3E180F39019E4E0FF9019E1121CF3
:10359B0030125A799019EAEEF0A3EFF09019EAE0A5
:1035AB00FEA3E0D39400EE940040329019EAE0A31E
:1035BB00E064014E700C9019E1121C30121705F4E7
:1035CB00600B7A007B327D017F01129E669019EEB3
:1035DB00E0FF9019EAE0FCA3E0FD128D029009498F
:1035EB00E06410701090094BE064397008A3E0FDA3
:1035FB00E4FF12BA9BC206805C900006E064026096
:10360B0005E06403704F9019ECE0FEA3E0FF901906
:10361B00E6121C3078497C097D011216DFD2069028
:10362B0019ECE0A3E0FF9019E4E0FD12954B90003C
:10363B0005E060077F0012B3E180F3900949E06475
:10364B0010701090094BE064397008A3E0FDE4FFA3
:10365B0012BA9BC20630050D7F647E0012BEA9E430
:05366B00F58475EF106D
:013670002237
:10C58A0075840FC2E8C2E9C2EAD2DBD2D9D2DAC2D2
:06C59A00ECC2EED2EB2220
:10C02900901A12EFF0A3EDF075840FE0701BC2D9DE
:10C03900901A12E01392E8E0FFC313F0E01392E9BB
:10C04900E0FFC313F0E01392EA901A13E024FF9281
:02C05900DA22E9
:05BC6300901CABEFF0A6
:10BC680075840FE4A3F0901CACE0C394087480942E
:10BC780080502A901CABE05401940074809480405A
:10BC880003D38001C392D9901CABE0FFC313F0D259
:0FBC9800DBD2DBD2DBC2DBA3E004F080C9C2D970
:01BCA700227A
:05A9BF00901A12EFF0F8
:10A9C40075840FE0F526E5263392D9E52625E0F5D2
:10A9D40026D2DBD2DBD2DBC2DB3392D9E52625E0FB
:10A9E400F526D2DBD2DBD2DBC2DB3392D9E52625D6
:10A9F400E0F526D2DBD2DBD2DBC2DB3392D9E5260B
:10AA040025E0F526D2DBD2DBD2DBC2DB3392D9E5FB
:10AA14002625E0F526D2DBD2DBD2DBC2DB3392D9AA
:10AA2400E52625E0F526D2DBD2DBD2DBC2DB33928E
:10AA3400D9E52625E0F526D2DBD2DBD2DBC2DB3337
:10AA440092D9E52625E0F526D2DBD2DBD2DBC2DBC8
:02AA5400C2D965
:01AA560022DD
:10A5FB0075840FE49019ECF0E0FF25E0FFA2D8E49E
:10A60B00334FF0D2DBD2DBD2DBC2DBE0FF25E0FF46
:10A61B00A2D8E4334FF0D2DBD2DBD2DBC2DBE0FFDC
:10A62B0025E0FFA2D8E4334FF0D2DBD2DBD2DBC282
:10A63B00DBE0FF25E0FFA2D8E4334FF0D2DBD2DB27
:10A64B00D2DBC2DBE0FF25E0FFA2D8E4334FF0D230
:10A65B00DBD2DBD2DBC2DBE0FF25E0FFA2D8E433A9
:10A66B004FF0D2DBD2DBD2DBC2DBE0FF25E0FFA277
:10A67B00D8E4334FF0D2DBD2DBD2DBC2DBE0FF25F9
:10A68B00E0FFA2D8E4334FF0D2DBD2DBD2DBC2DB6C
:02A69B00E0FFDE
:01A69D00229A
:10C34A00901CADEFF0A3EDF0901CADE0FFE4FD1200
:10C35A00C029901CAEE0FF12BC630DE4FF12C02995
:01C36A0022B0
:10C36B00901CAFEFF0A3EDF0901CAFE0FFE4FD12DB
:10C37B00C029901CB0E0FF12A9BF0DE4FF12C02929
:01C38B00228F
:0EC68F00901A09EFF075840FE024FF92EB2261
:05BCA800901CB1EFF05B
:10BCAD0075840FE4A3F0901CB2E0C39408748094E3
:10BCBD0080502A901CB1E05401940074809480400F
:10BCCD0003D38001C392EE901CB1E0FFC313F0D2F9
:0FBCDD00ECD2ECD2ECC2ECA3E004F080C9C2EED2
:01BCEC002235
:05AA5700901A09EFF068
:10AA5C0075840FE0F526E5263392EEE52625E0F524
:10AA6C0026D2ECD2ECD2ECC2EC3392EEE52625E009
:10AA7C00F526D2ECD2ECD2ECC2EC3392EEE52625E4
:10AA8C00E0F526D2ECD2ECD2ECC2EC3392EEE52619
:10AA9C0025E0F526D2ECD2ECD2ECC2EC3392EEE50A
:10AAAC002625E0F526D2ECD2ECD2ECC2EC3392EEB9
:10AABC00E52625E0F526D2ECD2ECD2ECC2EC3392B2
:10AACC00EEE52625E0F526D2ECD2ECD2ECC2EC3346
:10AADC0092EEE52625E0F526D2ECD2ECD2ECC2ECD7
:02AAEC00C2EEB8
:01AAEE002245
:10A69E0075840FE4901A09F0E0FF25E0FFA2EFE4C5
:10A6AE00334FF0D2ECD2ECD2ECC2ECE0FF25E0FF5F
:10A6BE00A2EFE4334FF0D2ECD2ECD2ECC2ECE0FFDE
:10A6CE0025E0FFA2EFE4334FF0D2ECD2ECD2ECC295
:10A6DE00ECE0FF25E0FFA2EFE4334FF0D2ECD2EC3A
:10A6EE00D2ECC2ECE0FF25E0FFA2EFE4334FF0D254
:10A6FE00ECD2ECD2ECC2ECE0FF25E0FFA2EFE433AB
:10A70E004FF0D2ECD2ECD2ECC2ECE0FF25E0FFA28F
:10A71E00EFE4334FF0D2ECD2ECD2ECC2ECE0FF25FA
:10A72E00E0FFA2EFE4334FF0D2ECD2ECD2ECC2EC6D
:02A73E00E0FF3A
:01A7400022F6
:0BBF5B00481C7EFFFFFFFFFFFFFFFF01
:10B66700E49019E0F09019E0E0C3940474809480AA
:10B677005028E0FF7B087D0A12BEE29019E0E0FF48
:10B68700E4FBFD12BEE29019E0E0FFE4FB7D01124E
:10B69700BEE29019E0E004F080CB7FFF12BF8C7B05
:10B6A700017D017F031297057B017D027F031297BE
:10B6B700057B017D037F03129705E4FF12C306E4B0
:04B6C700FF12C0BDF1
:01B6CB00225C
:10BEE200901A0FEFF0A3EDF0A3EBF0E4FD7F011247
:10BEF200C029901A0FE05407FF25E04440FF12A921
:10BF0200BF901A10E0FF12A9BF901A11E0FF12A908
:09BF1200BF7D01E4FF12C02922E9
:08BE6E00901CA2EFF0A3EDF01F
:10BE7600E4FD7F0112C029901CA2E05407FF25E0D3
:10BE86004441FF12A9BF901CA3E0FF12A9BF12A54F
:10BE9600FB901CA4EFF07D01E4FF12C029901CA4C6
:02BEA600E0FFBB
:01BEA8002277
:0B970500901A0BEFF0A3EDF0A3EBF0C7
:10971000901A0CE0C39408748094805007E4901A67
:109720000EF0800D901A0E7401F0901A0CE024F8DF
:10973000F0901A0DE06039A3E0FF901A0BE025E0ED
:10974000247EF582E4341CF583E5822FF582E4352E
:1097500083F583C083C082E0FF901A0CE0FEF874AA
:1097600001088002C333D8FC4FD082D083F0803A06
:10977000901A0EE0FF901A0BE025E0247EF582E4BB
:10978000341CF583E5822FF582E43583F583C083AD
:10979000C082E0FF901A0CE0FEF87401088002C35A
:1097A00033D8FCF45FD082D083F0901A0EE0FF90A3
:1097B0001A0BE025E0247EF582E4341CF583E58273
:1097C0002FF582E43583F583E0FB901A0BE0FF90E0
:0E97D0001A0EE070047D1480027D1512BEE2B8
:0197DE002268
:10C4BF00901CB3EFF0A3EDF0901CB3E0FFA3E0707E
:0BC4CF00047D1280027D1312BE6E225D
:06BD31009019E0121C5005
:10BD3700E49019E3F09019E3E0C3941074809480C1
:10BD4700502AE0FD9019E0121C309019E3E0F582CB
:10BD570075830012171E20E0047B0180027B007FA1
:0CBD6700021297059019E3E004F080C977
:01BD730022AD
:05BF8C00901A09EFF01E
:10BF9100E4A3F0901A0AE0C3941074809480501FB7
:10BFA100E0FD901A09E0FFA3E06F60047B018002CD
:0FBFB1007B00E4FF129705901A0AE004F080D499
:01BFC000225E
:0FC662009019DFEFF0E0FBE4FD7F031297052254
:10C60600E4FB7D017F031297057B017D017F031209
:03C6160097052263
:10C61900E4FB7D027F031297057B017D027F0312F4
:03C6290097052250
:10C62C00E4FB7D037F031297057B017D037F0312DF
:03C63C009705223D
:10C306009019E1EFF0E05401FB7D047F03129705DD
:10C316009019E1E0FFC3135401FB7D057F031297DB
:02C326000522EE
:10C0BD009019E1EFF0E020E0047B0180027B007D30
:10C0CD000A7F031297059019E1E0FFC31320E004E6
:0EC0DD007B0180027B007D0B7F031297052202
:0CB8A7009019E5EFF0A3EDF0A3121C5087
:10B8B300E4FDFF12C0299019E5E0FFC454F0FFA393
:10B8C300E0540F4FFF12A9BFE49019EBF09019EA6F
:10B8D300E0FFA3E0C39F501912A5FB9019E7E4759D
:10B8E300F001121C39EF12177E9019EBE004F0807F
:08B8F300DC7D01E4FF12C02915
:01B8FB00222A
:10C38C009019E0EFF0A3EDF0E4FDFF12C029901935
:10C39C00E0E0FFC454F0FFA3E0540F4FFF12A9BF1D
:01C3AC00226E
:080003007D01E4FF12C0292277
:0BC6B8009019E0EFF0E0FF12A9BF2294
:10C1CE00E4FD7F0712C38CE4FD7F0D12C38C7FFF4D
:10C1DE0012C6B87FFF12C6B8E4FF12C6B8E4FF124B
:0BC1EE00C6B87F1512C6B8120003226D
:057DAA009019DEEFF06E
:107DAF00E0FD7B017A1979DF9019EA7402F0FF1276
:107DBF00B8A79019DFE0FEA3E0FFEEC4F854F0C8B7
:107DCF0068FCEFC4540F48FDE41214DCE4FBFA79AD
:107DDF00207840121331E4FBFA7980784512143A77
:107DEF009019E1121BC39019DEE0121D517E0F0096
:107DFF007E54017E6B037E84047E9D0500007EB45D
:107E0F009019E1121B7B7BCD7ACC794C78431213FE
:107E1F00319019E1121BC3E4FFFE7D207C419019C4
:107E2F00E1121B87121331E4FBFAF9783F1212406B
:107E3F00128EEBE4FBFA7920784112143A9019E193
:107E4F00121BC380609019E1121B7BE4FBFAF978D7
:107E5F00401213319019E1121BC380499019E1129E
:107E6F001B7B7BCD7ACC79CC783D12143A9019E1FB
:107E7F00121BC380309019E1121B7B7B8B7A2E79FA
:107E8F003A783F12143A9019E1121BC380179019D8
:107E9F00E1121B7B7B907AC279F5783E12143A90EF
:107EAF0019E1121BC3E4FFFE7DC87C429019E11259
:107EBF001B87121331E4FBFAF9783F121240128E2E
:107ECF00EBE4FBFA79C8784212143A9019E1121BCD
:077EDF00C39019E1121B7BA7
:017EE6002279
:10F00000C2AF7584015398FC75FFDE75FFADE478DF
:10F0100013F618F6E4F584209848E47817F608F615
:0FF0200020983BC37818E6948818E69413502F75
:10F02F0075260AD3E52694007480948040177527BF
:10F03F0001D3E52794007480948040050015278044
:05F04F00F0152680DE33
:10F05400781806E61870C50680C2B28280B57812A8
:10F06400A699C298E6FF7E00641A600302F1BB7899
:10F0740017F608F620983BC37818E6948818E694A7
:03F0840013502FF7
:10F0870075280AD3E5289400748094804017752961
:10F0970001D3E529940074809480400500152980E8
:05F0A700F0152880DED9
:10F0AC00781806E61870C50680C220980302F01482
:10F0BC007813A699C298E47817F608F620983BC303
:0BF0CC007818E6948818E69413502F83
:10F0D700752A0AD3E52A9400748094804017752B0B
:10F0E70001D3E52B940074809480400500152B8094
:05F0F700F0152A80DE87
:10F0FC00781806E61870C50680C220980302F01432
:10F10C007813A699C298E47817F608F620983BC3B2
:0BF11C007818E6948818E69413502F32
:10F12700752C0AD3E52C9400748094804017752DB4
:10F1370001D3E52D940074809480400500152D803F
:05F14700F0152C80DE34
:10F14C00781806E61870C50680C220980302F014E1
:0AF15C007813A699C298D284C299D4
:10F16600752E14D3E52E9400748094804017752F65
:10F1760001D3E52F940074809480400500152F80FC
:05F18600F0152E80DEF3
:06F18B007599783099FD32
:10F1910075300AD3E530940074809480401775313E
:10F1A10001D3E531940074809480400500153180CD
:05F1B100F0153080DEC6
:10F1B600C28402F976EF64504E600302F2C67817F5
:10F1C600F608F620983BC37818E6948818E6941358
:02F1D600502FB8
:10F1D80075320AD3E53294007480948040177533F1
:10F1E80001D3E53394007480948040050015338082
:05F1F800F0153280DE7D
:10F1FD00781806E61870C50680C220980302F01430
:0AF20D007813A699C298D284C29922
:10F21700753414D3E53494007480948040177535A1
:10F2270001D3E5359400748094804005001535803E
:05F23700F0153480DE3B
:08F23C007599793099FDC29922
:10F24400753614D3E536940074809480401775376E
:10F2540001D3E5379400748094804005001537800D
:05F26400F0153680DE0C
:08F269007599013099FDC2996D
:10F27100753814D3E538940074809480401775393B
:10F2810001D3E539940074809480400500153980DC
:05F29100F0153880DEDD
:06F29600E4F5993099FD3A
:10F29C00753A0AD3E53A9400748094804017753B14
:10F2AC0001D3E53B940074809480400500153B80AD
:05F2BC00F0153A80DEB0
:10F2C100C28402F9767812E6FF7E006401600302CF
:06F2D100F359D284C2993A
:10F2D700753C14D3E53C9400748094804017753DC9
:10F2E70001D3E53D940074809480400500153D806E
:05F2F700F0153C80DE73
:08F2FC007599783099FDC29963
:10F30400753E14D3E53E9400748094804017753F95
:10F3140001D3E53F940074809480400500153F803C
:05F32400F0153E80DE43
:06F32900E4F5993099FDA6
:10F32F0075400AD3E540940074809480401775416E
:10F33F0001D3E5419400748094804005001541800D
:05F34F00F0154080DE16
:10F35400C28402F976EF64024E600302F4837817E4
:10F36400F608F620983BC37818E6948818E69413B8
:02F37400502F18
:10F3760075420AD3E5429400748094804017754321
:10F3860001D3E543940074809480400500154380C2
:05F39600F0154280DECD
:10F39B00781806E61870C50680C220980302F01490
:10F3AB007813A699C298E408F618E6FF13B3928275
:10F3BB00EF25E0FEC3E49400EE94F0502CE6FD7FC5
:10F3CB000025E0FEC394E05020ED20E023E4F5841B
:10F3DB0043B701758F037819EEF608EFF6F5828EB9
:10F3EB0083F053B7F0F58F8004781476FFE4F5843F
:04F3FB00D284C2995D
:10F3FF00754414D3E5449400748094804017754588
:10F40F0001D3E54594007480948040050015458034
:05F41F00F0154480DE41
:08F424007599783099FDC29939
:10F42C00754614D3E5469400748094804017754754
:10F43C0001D3E54794007480948040050015478003
:05F44C00F0154680DE12
:08F451007814E6F5993099FDED
:10F4590075480AD3E548940074809480401775492B
:10F4690001D3E549940074809480400500154980D2
:05F47900F0154880DEE3
:10F47E00C28402F9767812E66403600302F67078AD
:10F48E0017F608F620983BC37818E6948818E69489
:03F49E0013502FD9
:10F4A100754A0AD3E54A9400748094804017754BDD
:10F4B10001D3E54B940074809480400500154B8086
:05F4C100F0154A80DE99
:10F4C600781806E61870C50680C220980302F01464
:10F4D6007813A699C298E47817F608F620983BC3E5
:0BF4E6007818E6948818E69413502F65
:10F4F100754C0AD3E54C9400748094804017754D87
:10F5010001D3E54D940074809480400500154D8031
:05F51100F0154C80DE46
:10F51600781806E61870C50680C220980302F01413
:10F526007815A699C2987813E6FF139282EF25E024
:10F53600FEC3E49400EE94F0400302F014E625E0E6
:10F54600FCC394E0400302F014E4F58443B701756C
:10F556008F017815E675F020A42400FFE5F03C78CD
:10F5660019F608A607E4F5847816F67816E6C39425
:10F5760020748094805063E408F608F620983BC314
:0BF586007818E6948818E69413502FC4
:10F59100754E0AD3E54E9400748094804017754FE0
:10F5A10001D3E54F940074809480400500154F808D
:05F5B100F0154E80DEA4
:10F5B600781806E61870C50680C220980302F01473
:10F5C60078190806E618860670010614F5828E83F9
:10F5D600E599F0C2987816068091E4F58453B7F061
:08F5E600F58FF584D284C2996F
:10F5EE00755014D3E5509400748094804017755173
:10F5FE0001D3E5519400748094804005001551802C
:05F60E00F0155080DE44
:08F613007599783099FDC29948
:10F61B00755214D3E552940074809480401775533F
:10F62B0001D3E553940074809480400500155380FA
:05F63B00F0155280DE15
:06F64000E4F5993099FD8C
:10F6460075540AD3E5549400748094804017755518
:10F6560001D3E555940074809480400500155580CB
:05F66600F0155480DEE8
:10F66B00C28402F9767812E6FD7C00640460030222
:10F67B00F78F7817F608F620983BC37818E694882E
:06F68B0018E69413502F55
:10F6910075560AD3E55694007480948040177557C7
:10F6A10001D3E5579400748094804005001557807C
:05F6B100F0155680DE9B
:10F6B600781806E61870C50680C220980302F01472
:10F6C6007813A699C298E625E0781BF6087600E43A
:10F6D6007814F67817F608F6781B0806E6188606F4
:10F6E60070010614F5828E83E493781426F6781852
:10F6F60006E6187001067818E6B400DC18E6B402CF
:05F70600D7D284C29976
:10F70B00755814D3E558940074809480401775593C
:10F71B0001D3E559940074809480400500155980FD
:05F72B00F0155880DE1E
:08F730007599783099FDC2992A
:10F73800755A14D3E55A9400748094804017755B09
:10F7480001D3E55B940074809480400500155B80CC
:05F75800F0155A80DEEF
:08F75D007814E6F5993099FDDE
:10F76500755C0AD3E55C9400748094804017755DE0
:10F7750001D3E55D940074809480400500155D809B
:05F78500F0155C80DEC0
:10F78A00C28402F976ED64054C600302F96A7817BF
:10F79A00F608F620983BC37818E6948818E694137E
:02F7AA00502FDE
:10F7AC00755E0AD3E55E9400748094804017755F93
:10F7BC0001D3E55F940074809480400500155F8050
:05F7CC00F0155E80DE77
:10F7D100781806E61870C50680C220980302F01456
:10F7E1007813A699C298E47817F608F620983BC3D7
:0BF7F1007818E6948818E69413502F57
:10F7FC0075600AD3E560940074809480401775613D
:10F80C0001D3E561940074809480400500156180FB
:05F81C00F0156080DE24
:10F82100781806E61870C50680C220980302F01405
:0AF831007815A699C298D284C299F6
:10F83B00756214D3E56294007480948040177563ED
:10F84B0001D3E563940074809480400500156380B8
:05F85B00F0156280DEE3
:08F8600075997F3099FDC299F2
:10F86800756414D3E56494007480948040177565BA
:10F8780001D3E56594007480948040050015658087
:05F88800F0156480DEB4
:10F88D007599203099FD7813E625E0FC7815E6751D
:10F89D00F020A42400FFE5F03C781BF608A607E451
:10F8AD007814F67816F67816E6C394207480948052
:04F8BD005053C29949
:10F8C100756614D3E566940074809480401775675B
:10F8D10001D3E5679400748094804005001567802A
:05F8E100F0156680DE59
:10F8E600781BE6FE08E6F5828E83E493F599309957
:10F8F600FD781B0806E618860670010614F5828E4A
:0EF9060083E493781426F678160680A1C29941
:10F91400756814D3E5689400748094804017756901
:10F9240001D3E569940074809480400500156980D2
:05F93400F0156880DE03
:08F939007814E6F5993099FD00
:10F94100756A0AD3E56A9400748094804017756BD8
:10F9510001D3E56B940074809480400500156B80A1
:05F96100F0156A80DED4
:10F96600C284800C7812E664067005F58475EF1083
:0CF976007812E66407600302F014D2AFC0
:01F982002262
:1051E60046455F4343000134000000537461747503
:1051F60073000001195004180000015532340000F4
:10520600000000011951041800000155332E330027
:10521600000000011955041800000155352E300014
:10522600000000011959040800000154656D700062
:1052360000000001195D0132000000464542303091
:10524600000000011961013200000046454230317C
:10525600000000011962013200000046454230326A
:105266000000000119630132000000464542303358
:105276000000000119640132000000464542303446
:105286000000000119650132000000464542303534
:105296000000000119660132000000464542303622
:1052A6000000000119670132000000464542303710
:1052B60000000001196801320000004645423038FE
:1052C60000000001196901320000004645423039EC
:1052D60000000001196A01320000004645423130E3
:1052E60000000001196B01320000004645423131D1
:1052F60000000001196C01320000004645423132BF
:1053060000000001196D01320000004645423133AC
:1053160000000001196E013200000046454231349A
:1053260000000001196F0132000000464542313588
:1053360000000001197001320000004D61786366BB
:10534600670000011971013200000452737446505F
:1053560047410000000001320000045273744350BC
:1053660055000000000001320000045273744D41E4
:10537600580000000000013400000042504D6F64E8
:1053860065000001197201340000004174746E005A
:105396000000000119730137000004535049000052
:1053A60000000000000001340000005350495F5324
:1053B6004C540001197401340000004E31575465F5
:1053C6006D70000119750408000001315754656DB0
:1053D6007030300119760408000001315754656DAC
:1053E60070303101197A0408000001315754656D97
:1053F60070303201197E0408000001315754656D82
:105406007030330119820408000001315754656D6C
:105416007030340119860408000001315754656D57
:1054260070303501198A0408000001315754656D42
:1054360070303601198E0408000001315754656D2D
:105446007030370119920408000001315754656D18
:105456007030380119960408000001315754656D03
:1054660070303901199A0408000001315754656DEE
:1054760070313001199E0408000001315754656DE2
:105486007031310119A20408000001315754656DCD
:105496007031320119A60408000001315754656DB8
:1054A6007031330119AA0408000001315754656DA3
:1054B6007031340119AE0408000001315754656D8E
:1054C6007031350119B20000000000000000000034
:0654D600000000000000D0
:0DBF66004319B6FF51EC441888000000009C
:1099920012C5F375840F75E104E4F5E275E34075D1
:1099A200A4FF75A5FF75A6FF75A7FF759DDE759EC1
:1099B2007F7580E0F590F5A075B0FF75D8FF75E86A
:1099C200FF758A83F597F589F58475B71075840F4D
:1099D200438901758D01758F01758E029019DEF034
:1099E200A3F09019DEE0FEA3E0C3EE9401500C90C8
:1099F20019DEE475F00112184F80E7438902E49002
:109A020019DEF0A3F09019DEE0FEA3E0FFE4FCFD16
:109A12007B507AC3F9F8D3121AC04011E589541069
:109A2200700B9019DE75F00112184F80D8759702ED
:109A3200E4F58475A3D775A1B7C2847F0AFE12BE6E
:109A4200A9C2857D08E4FF12BA9BD2BC12B4507A37
:109A5200007B967D037F00129E667A007B967D03D3
:059A62007F01129E6669
:019A670022DC
:05A20C009019DEEFF0E7
:10A21100E0602DE4A3F09019DFE0C3941B748094F7
:10A22100805014E02461F582E43419F583E4F09060
:10A2310019DFE004F080DFE4901971F0A3F0A3F0DE
:10A241009019507401F0E4901974F012C58A12B695
:10A251006712C1CE7B017A19796112BD31E4FF1217
:10A26100C68FE49019DFF09019DFE0C39410748079
:10A271009480501DE025E025E02476F582E4341930
:10A28100F583121BCFC479C0009019DFE004F08080
:10A29100D612890B901975EFF090188C121BCF0014
:10A2A1000000007B007A0079007F00129C13E4908B
:05A2B10019D3F0A3F039
:01A2B6002285
:109C130090FFFD121D77121C5090FFFF121D77EF6E
:079C2300F090FFFE121D7717
:109C2A00851083851182A3A3E07008901950E0245F
:109C3A00FF92DC851083851182A3A3E0641B7077F1
:109C4A00900003121D9B121C301217055407851031
:109C5A0083851182F0A37402F0851083851182E056
:109C6A006407701A900003121D9B121C30900001A9
:109C7A0012171E851083851182F0A37403F08510D4
:109C8A0083851182E014F0E0FF7E00900003121D2C
:109C9A009B121C30851083851182A3E07C0029F970
:109CAA00EC3AFA78107C197D011216DF851083854B
:109CBA001182E09019D5F0851083851182A3A3E063
:0C9CCA002490F582E43418F5837401F056
:079CD600900006121D772229
:109A680090FFFD121D77121C5090FFFF121D77EF1B
:079A7800F090FFFE121D77C4
:109A7F00851083851182A3A3E06416601A85108375
:109A8F00851182A3A3E06417600D85108385118271
:109A9F00A3A3E064187012900003121D9B121C30D8
:109AAF00E412177E7F01029B37851083851182A3F5
:109ABF00A3E0641B7070851083851182F0A3F0857D
:109ACF001083851182E0FEA3E0C3EE9401504B900A
:109ADF0019D3E0FFA3E06F60419019D3E024D0F5D4
:109AEF0082E43418F583E0FF900003121D9B121CD3
:109AFF0030851083851182E0FCA3E0F5828C83EF23
:109B0F001217909019D3E004543FF08510838511FC
:109B1F0082E475F00112184F80A58510838511829C
:089B2F00E0A3E0FF80027F00CB
:079B3700900006121D7722C9
:10938300E49019DEF09019DEE0C3941074809480A9
:10939300502DE02495F582E43418F583E060187BC2
:1093A300017A19796112BD319019DEE02495F582B5
:1093B300E43418F583E4F09019DEE004F080C690FD
:1093C30018A5E0600D901971E0FF12C662E49018D1
:1093D300A5F09018A6E0600812C606E49018A6F05F
:1093E3009018A7E0600812C619E49018A7F0901827
:1093F300A8E0600812C62CE49018A8F09018A9E021
:10940300600D901972E0FF12C306E49018A9F09062
:1094130018AAE0600D901973E0FF12C0BDE4901824
:10942300AAF09018ABE0603B901974E0FF12BF8C78
:10943300E49019DEF09019D5E0FF9019DEE0C39FA8
:109443005017E02410F582E43419F583E0FF12AAE3
:10945300579019DEE004F080DC7FFF12BF8CE490AC
:0394630018ABF053
:0194660022E3
:10C2E3009019D4E0FF9019D3E0B50716A3E024D04A
:10C2F300F582E43418F5837458F09019D4E00454AB
:03C303003FF022E6
:10A4B0007E007F167D007B017A1979BD1221D67E40
:10A4C000007F667D007B017A1979501221D6E4F570
:10A4D000849019DEF0A37480F0758F049019DEE08B
:10A4E000FEA3E0AA06F97BFF78BD7C197D017E0002
:10A4F0007F161216DF9019DEE4F0A37496F090191F
:10A50000DEE0FEA3E0AA06F97BFF78507C197D010E
:10A510007E007F661216DFE4F58F9019D1E0FEA36E
:10A52000E064347003EE6412602774FF9019BDF08C
:10A53000A3F0A3F0A3F0FB7A5179E678C17C197DF2
:10A540000112200F9019D17412F0A37434F07F011E
:05A5500022D2017F0092
:01A5550022E3
:10B0BB0012C5F3C2AFE4F5847812F608768043B775
:10B0CB0001758F0718E6FE08E6F5828E83E4F075AE
:10B0DB008F0518F60876807B017A1979BDC00218A6
:10B0EB00E6FE08E6AA06F8AC027D01D0027E007FE0
:10B0FB00161216DF781276000876967B017A19798C
:10B10B0050C00218E6FE08E6AA06F8AC027D01D094
:10B11B00027E007F6A1216DF53B7FEE4F58FD2AFC3
:05B12B007F0A12C52897
:01B1300022FC
:10BAE90012C573901888121B871219BCE47B0AFAD5
:10BAF900F9F8D3121AD6503512C573901888121B4B
:10BB0900C37F03127DAA901951121BC37F04127DB2
:10BB1900AA901955121BC37F05127DAA90195912B3
:0DBB29001BC3E4FF127DAA90195D121BC31F
:01BB360022EC
:108DF900E4F58475EF029019DC7464F09019DCE0F5
:108E0900D39400748094804005E014F080EE1299A8
:108E190092C204C203C20012A4B09019DCEFF0E0C0
:108E2900FF12A20C12C4A37F0A12C5289019DD747F
:108E390001F030010320020B7A007B327D017F00B3
:108E4900129E6630040AC20412B0BBD20112A4B049
:108E590030030CC2037F0A7E0012BEA912F0003053
:108E6900000512B9FAC2009019DDE0601C12C24F68
:108E7900E47B05FAF9F8D3121AD6500DE49019DDFE
:108E8900F090189004F01293837F0012B3E112312D
:108E99002B12BAE912938312C2E312C573A804A96B
:108EA90005AA06AB0790188C121B7BEF2464FFE41C
:108EB9003EFEE43DFDE43CFCD3121AD65003028E7B
:108EC9003B12C57390188C121BC37B017A197976F2
:108ED900127EE77A007B647D017F00129E66028E16
:018EE9003B4D
:018EEA002265
:10C05B0075840FD2DE7FF47E0112ACA0C2DE7F4B63
:10C06B007E0012ACA020DD047F0180027F009019BE
:10C07B00EBEFF07FF47E0112ACA0C2DE9019EBE087
:01C08B00FFB5
:01C08C002291
:0CA2B7009019EDEFF0C2DED2DEE0602571
:10A2C30075260FD3E526940074809480403C75274F
:10A2D30001D3E527940074809480400500152780FE
:05A2E300F0152680DEED
:10A2E800752869D3E52894007480948040177529EF
:10A2F80001D3E529940074809480400500152980D5
:05A30800F0152880DEC5
:08A30D00C2DE9019EDE06025AD
:10A31500752A69D3E52A940074809480403C752B96
:10A3250001D3E52B940074809480400500152B80A3
:05A33500F0152A80DE96
:10A33A00752C0FD3E52C9400748094804017752DEA
:10A34A0001D3E52D940074809480400500152D807A
:05A35A00F0152C80DE6F
:01A35F0022DB
:05BBCF009019EBEFF0FE
:10BBD400E4A3F09019ECE0C3940874809480503589
:10BBE400E0FF7E007401A807088005C333CE33CE7E
:10BBF400D8F9FF9019EBE0FDE4EF5DD39400748075
:10BC0400948040047F0180027F0012A2B79019EC57
:05BC1400E004F080BE19
:01BC19002208
:04AEBC00C2DED2DE42
:10AEC00075260AD3E5269400748094804017752770
:10AED00001D3E527940074809480400500152780F5
:05AEE000F0152680DEE4
:02AEE500C2DECB
:10AEE70075280AD3E5289400748094804017752943
:10AEF70001D3E529940074809480400500152980CA
:05AF0700F0152880DEBA
:08AF0C00A2DDE4339019EDF021
:10AF1400752A50D3E52A9400748094804017752BC9
:10AF240001D3E52B940074809480400500152B8098
:05AF3400F0152A80DE8B
:05AF39009019EDE0FF9E
:01AF3E0022F0
:10BB3700E49019ECF09019EBF09019EBE0C394083E
:10BB470074809480503012AEBCEF60189019EBE00F
:10BB5700FF7E007401A807088005C333CE33CED813
:10BB6700F9FF80047E007F009019ECE04FF09019F8
:0BBB7700EBE004F080C39019ECE0FF4D
:01BB820022A0
:10890B007F0012B3E1C2AF12C05B9019E0EFF0E051
:10891B007002FF227FCC12BBCF7F9912BBCF7F5A45
:10892B0012BBCF7FA512BBCF12BB379019E1EFF073
:10893B007FF47E0112ACA0E4901AD6F0901AD6E028
:10894B00C394107480948040030289E07F0012B3BB
:10895B00E112C05B7F0F12BBCFE49019E0F09019CE
:10896B00E0E0C3940874809480502D12BB379019AB
:10897B00E0E0FE901AD6E075F008A424D7F582E467
:10898B00341AF583E5822EF582E43583F583EFF017
:10899B009019E0E004F080C6901AD7E09019E2F04D
:1089AB00901AD6E075F008A424D7F582E4341AF5B2
:1089BB0083E0F460207F9912BBCF7F9612BBCF7FF1
:1089CB006912BBCF12BB379019E1EFF0901AD6E0CA
:1089DB0004F00289477F0A7E0012BEA912C05B7F9A
:1089EB00CC12BBCF7F9912BBCF7F3C12BBCF7FC3C7
:1089FB0012BBCF12BB379019E1EFF0D2AF7F001251
:078A0B00B3E1901AD6E0FF71
:018A12002241
:067EE7009019DE121C5090
:107EED0012C6D79019E6EFF0E49019E3F0901AD688
:107EFD00E0FF9019E3E0C39F40030280077F00126B
:107F0D00B3E112C05B9019E2EFF0E0701D9019DE45
:107F1D00121C309019E3E075F004A4F58285F0830E
:107F2D00121C00C479C000027FFE7F5512BBCFE446
:107F3D009019E1F09019E1E0C39408748094805099
:107F4D002AE0FF9019E3E075F008A424D7F582E448
:107F5D00341AF583E5822FF582E43583F583E0FF4E
:107F6D0012BBCF9019E1E004F080C97FBE12BBCFE8
:107F7D0012BB379019E4EFF012BB379019E5EFF013
:107F8D0012C6D79019E6E06F70709019E5E0FE907B
:107F9D0019E4E0FDEEFCEDEC1214DCE4FBFA79AA39
:107FAD007842121331E4FBFA79AA784412143A900C
:107FBD0019E7121BC3E4FFFE7D207C419019E712E7
:107FCD001B87121331E4FBFAF9783F121240128E1F
:107FDD00EBE4FBFA7920784112143A9019DE121C69
:107FED00309019E3E075F004A4F58285F083121B3F
:107FFD00579019E3E004F0027EFA7F0012B3E1120C
:10800D00C05BC2AF7FCC12BBCF7F4412BBCFD2AF10
:05801D007F0012B3E139
:01802200223B
:0300000002AAEF62
:10AAEF00787FE4F6D8FD75102075110075816E0220
:02AAFF00AB3C6E
:05BF730042164B000026
:10C2780090166374FFF07E027F247D007B017A169E
:10C2880079641221D67E007F167D007B017A1679AB
:04C298004D0221D65C
:0FBFC1009019F2EBF0A3EAF0A3E9F0A3121BC36F
:10BFD0007E007F047D007B017A1C79491221D69076
:10BFE000165D7401F09019F2E0FBA3E0FAA3E0F90A
:04BFF000A31243B69F
:01BFF400222A
:10C40E00E4FFFE90165DE060157407F07B007A0085
:0EC41E0079007D007C001243C1E490165DF0B1
:01C42C0022ED
:068FDB00901A02121BC3F4
:108FE10090165EE060030290B790165DE0C39409AD
:108FF10050030290B77B007A007900901A02124365
:10900100B6901A06EEF0A3EFF064014E70030290E1
:10901100AF90165DE0B40A47E47B02FAF9F89016C6
:109021004DE0FCA3E0FDA3E0FEA3E0FF121A0690D1
:109031001655E0F8A3E0F9A3E0FAA3E0FBC3121A86
:10904100D6701C901655E0FCA3E0FDA3E0FEA3E062
:10905100FFE47B02FAF9F8121A06901655804C903B
:10906100165DE0B40B48E47B08FAF9F890164DE080
:10907100FCA3E0FDA3E0FEA3E0FF121A069016593F
:10908100E0F8A3E0F9A3E0FAA3E0FBC3121AD6705B
:109091001D901659E0FCA3E0FDA3E0FEA3E0FFE470
:1090A1007B02FAF9F8121A06901659121BC3901690
:1090B1005D7409F08008901A06E4F0A304F0901A98
:0690C10006E0FEA3E0FF43
:0190C7002286
:1094670090165EE0600302954A90165DE0C394098A
:10947700500302954A90164CE004F0700690164B84
:10948700E004F090164BE07004A3E0646470289049
:10949700164BF0A3F0901651E0FCA3E0FDA3E0FE0D
:1094A700A3E024FFFFEE34FFFEED34FFFDEC34FFB5
:1094B700FC901651121BC3901655E0FCA3E0FDA3C8
:1094C700E0FEA3E0FF901651E0F8A3E0F9A3E0FA6D
:1094D700A3E0FBD3121AD6506AE4FFFEFDFC9016F8
:1094E70051E0F8A3A3A3E0C3121AD6700590165D46
:1094F700F022901659E0FCA3E0FDA3E0FEA3E0FFF5
:10950700901651E0F8A3E0F9A3E0FAA3E0FBD31229
:109517001AD6500790165D740BF022901655E0FC92
:10952700A3E0FDA3E0FEA3E0FF901651E0F8A3E05F
:10953700F9A3E0FAA3E0FBD3121AD6500690165D02
:03954700740AF0B3
:01954A0022FE
:0B43B600E0FCA3E0FDA3E0FEA3E0FF9D
:0F43C100901A08EBF0A3EAF0A3E9F0A3121BC3D4
:1043D000E4901A0FF0A3F0A3F0A3F0901A1EF0A33C
:1043E000F090165DE07003024784E064076004E02B
:1043F000B40A10901A207401F0A37416F0A3745F2D
:10440000F0800E901A207401F0A3741BF0A374CCFA
:10441000F0901ABCE4F0A37443F0A37411F0E4A389
:10442000F0A304F0A37416F0A37464F0A37402F074
:10443000A37424F0901A20E0FBA3E0FAA3E0F97D36
:10444000447C00124EB3901A13EFF0C36480948042
:104450005003024775E0FF3395E0FE7C007D3D127E
:1044600017B2747B2FF974123EFA901A157401F08A
:10447000A3EAF0A3E9F0901A0FE07002A3E0600352
:10448000024765901A14F0901A08E0FBA3E0FAA323
:10449000E0F9A3E0FCA3E0FDA3E0FEA3E0FF123FF0
:1044A000C8901A18121BC3901A1EE0FCA3E0FDEC82
:1044B00090166CF0EDA3F0901A20E0FBA3E0FAA3B5
:1044C000E0F97401901BCC6B7008E965827003EA17
:1044D0006583700790166304F08005E4901663F01E
:1044E0007B017A167964C003C002C001901A15E0FE
:1044F000FBA3E0FAA3E0F990000E121CF8901A1545
:10450000E0FBA3E0FAA3E0F9900011740275F02437
:10451000121982127324901A11EEF0A3EFF0901684
:104520005DE0B4070B901A0FE4F0A304F0024748D3
:10453000901A14E02401FEE433901A1CF0A3CEF08C
:10454000C3901A11E0648094805015901A1CE0FE0C
:10455000A3E0FF7C007D641217B212C50E0247393A
:104560009016637401F07B017A167964901A2774AF
:1045700002F0A37424F0901A1CE0FEA3E0FF7C007C
:104580007D641217B2901A29EEF0A3EFF0901A137F
:10459000E0FF127148901A11EEF0A3EFF0D39400EF
:1045A000EE64809480500302471B90166BE0FFE49A
:1045B000FCFDFE7808121AFAA804A905AA06AB07A2
:1045C00090166AE0FFEB4FFFEAFEE9FDE8FC780891
:1045D000121AFAA804A905AA06AB07901669E0FF0B
:1045E000EB4FFFEAFEE9FDE8FC7808121AFAA8048E
:1045F000A905AA06AB07901668E0FFEB4FFFEAFE9D
:10460000E9FDE8FC901A18E0F8A3E0F9A3E0FAA3AA
:10461000E0FBC3121AD6600302471B901664E064E5
:1046200002600302471B90165DE024FD602324F91D
:10463000601F14601C240A600302470F12000EBFA3
:10464000020C90165D7403F012C42D02472F02472E
:104650000F12000EEF6405600302470478497C1CCA
:104660007D017B017A167974FE7F041216DF12C475
:104670004B12C486127C6A901651121BC3901651BD
:10468000E0FCA3E0FDA3E0FEA3E0FF90164D121BAB
:10469000C312C42D74FFFFFEFDFC901651E0F8A379
:1046A000E0F9A3E0FAA3E0FBC3121AD67007901654
:1046B0005E04F0803FE47B02FAF9F8901651E0FCCA
:1046C000A3E0FDA3E0FEA3E0FF121A069016551228
:1046D0001BC3E47B08FAF9F8901651E0FCA3E0FD57
:1046E000A3E0FEA3E0FF121A06901659121BC3E4C2
:1046F00090165EF090165D7409F0901A0FE4F0A326
:1047000004F0802B12000EBF020302456680009069
:104710001A0F74FFF0A3749CF08014901A1CE0FE32
:10472000A3E0FF901A1FE02FF0901A1EE03EF090D9
:104730001A0FE07002A3E0700F901A14E004F0E08A
:10474000C394035003024487901A11E0FEA3E0FFD4
:10475000D39400EE648094804003024476901A0F54
:10476000EEF0A3EFF090166374FFF0901A13E0FFE1
:1047700012A408800F901A13E0FE3395E0901A0FF0
:0C478000F0A3CEF0901A0FE0FEA3E0FFC3
:01478C00220A
:0F3FC800901A23EBF0A3EAF0A3E9F0A3121BC3B6
:103FD70090165DE024FD700302409024FC601424D9
:103FE700FD7003024090147003024090240A60039E
:103FF70002412E12C6ABEF2401FFE43EFEE433FD7F
:10400700E433FC7810121AFAC004C005C006C007D2
:1040170012C6ABEF2401FFE43EFED003D002D0016D
:10402700D000EB4FFFEA4EFEE9FDE8FC901A2A129A
:104037001BC3901A2AE0FCA3E0FDA3E0FEA3E0FF68
:10404700901668EFF0901A2AA3A3A3E07808121A33
:10405700E7901669EFF0901A2AE0FCA3E0FDA3E0D1
:10406700FEA3E0FF7810121AE790166AEFF0901A95
:104077002AE0FCA3E0FDA3E0FEA3E0FF7818121AF4
:10408700E790166BEFF002413890166BE0FFE4FC07
:10409700FDFE901A2A121BC3901A2AE0FCA3E0FD2A
:1040A700A3E0FEA3E0FF7808121AFAA804A905AA5C
:1040B70006AB0790166AE0FFEB4FFFEAFEE9FDE863
:1040C700FC901A2A121BC3901A2AE0FCA3E0FDA356
:1040D700E0FEA3E0FF7808121AFAA804A905AA06C9
:1040E700AB07901669E0FFEB4FFFEAFEE9FDE8FC3E
:1040F700901A2A121BC3901A2AE0FCA3E0FDA3E042
:10410700FEA3E0FF7808121AFAA804A905AA06ABCD
:1041170007901668E0FFEB4FFFEAFEE9FDE8FC9029
:104127001A2A121BC3800A901A2A121BCF000000FA
:10413700009016647401F0A3F0A37406F07E007F6C
:10414700047D007B017A1679781221D67E007F04E0
:104157007D007B017A16797C1221D678807C167DCA
:10416700017B017A0079077E007F061216DF901A1D
:1041770023A3E0FAA3E04A601478D07C167D01906F
:104187001A23E0FBA3A3E0F912200F8005E49016A1
:10419700D0F0901A2E7401F0A37417F0A37450F0A6
:1041A700901A2EE0FBA3E475F001121865A9F0FA46
:1041B700746312177E901A2EE0FBA3E475F00112C8
:1041C7001865A9F0FA748212177E901A2EE0FBA3E5
:1041D700E475F001121865A9F0FA745312177E906E
:1041E7001A2EE0FBA3E475F001121865A9F0FA7422
:1041F7006312177E901A2EE0FBA3E475F0011218E4
:1042070065A9F0FA743512177E901A2EE0FBA3E425
:1042170075F001121865A9F0FA740112177E90164D
:104227005DE024FD605A24FC700302436224FD70A4
:104237000302432F14700302432F240A600302432F
:104247009790166E7480F07E007F047D007B017A64
:104257001679741221D67E007F047D007B017A16C1
:1042670079701221D6901A2EE0FBA3E475F00112A3
:104277001865A9F0FA740112A9341284D102435DBA
:1042870090166E7480F07E007F047D007B017A16A5
:1042970079701221D612A92212B1A7901A2EEBF02B
:1042A700A3EAF0A3E9F0901A2EE0FBA3E475F0016E
:1042B700121865A9F0FA743212177E901A2EE0FBD5
:1042C700A3E475F001121865A9F0FA740412177EB9
:1042D700E4FF74742FF582E43416F583E0FE901A38
:1042E7002EE0FBA3E475F001121865A9F0FAEE12AF
:1042F700177E0FEFB404DB901A2EE0FBA3E0FAA3BE
:10430700E0F91284DC12AFC012B131901A2EEBF033
:10431700A3EAF0A3E9F07E007F047D007B017A1613
:1043270079741221D6024397E490166EF0FE7F044B
:10433700FD7B017A1679741221D678707C167D017F
:104347007B017A1C79497E007F041216DF12A922AD
:104357001284D112AFC012B131802AE490166EF0E8
:10436700FE7F04FD7B017A1679741221D6901A2EEE
:10437700E0FBA3E475F001121865A9F0FA740712BF
:10438700A93412B1A7901A2EEBF0A3EAF0A3E9F033
:10439700901A2EE0FBA3E0FAA3E0F974FF12177E50
:0E43A700901A2AE0FCA3E0FDA3E0FEA3E0FFD5
:0143B50022E5
:109F25007B017A177954901A2AEBF0A3EAF0A3E99A
:109F3500F02437F9EA3401FAA3EBF0A3EAF0A3E938
:109F4500F0901A2AE0FBA3E0FAA3E0F9121705FE48
:109F5500B50702807EEEF46029901A2DE0FBA3E0A0
:109F6500FAA3E0F9C003C002C001901A2AA3E0FADF
:109F7500A3E0F9D3D082D083D0E0E99582EA958336
:109F8500400B901A2AE4F0A3F0A3F08046EE701C73
:109F9500901A2BE475F00112184F901A2AE0FBA3D2
:109FA500E0FAA3E0F912170560E68095901A2BE414
:109FB50075F00112184F901A2AE0FBA3E0FAA3E00E
:109FC500F912170504FEFD901A2BE48DF012184FB7
:0E9FD500029F46901A2AE0FBA3E0FAA3E0F9EF
:019FE300225B
:10000E00E4FC7F35129F25E94A6007900002121723
:04001E001EFCAF0411
:0100220022BB
:107C6A00901A23121BCF000000007F33129F259029
:107C7A001A27EBF0A3EAF0A3E9F0AE024E70030272
:107C8A007D9B901A28E475F00212184F901A27E08B
:107C9A00FBA3E0FAA3E0F9121705FFE4FCFDFE7866
:107CAA0018121AFA901A23121BC3901A28E475F0B4
:107CBA000112184F901A23E0F8A3E0F9A3E0FAA3FF
:107CCA00E0FBC000C001C002C003A3E0FBA3E0FACE
:107CDA00A3E0F9121705FFE4FCFDFE7810121AFA68
:107CEA00D003D002D001D000EB2FFFEA3EFEE93DDF
:107CFA00FDE83CFC901A23121BC3901A28E475F085
:107D0A000112184F901A23E0F8A3E0F9A3E0FAA3AE
:107D1A00E0FBC000C001C002C003A3E0FBA3E0FA7D
:107D2A00A3E0F9121705FFE4FCFDFE7808121AFA1F
:107D3A00D003D002D001D000EB2FFFEA3EFEE93D8E
:107D4A00FDE83CFC901A23121BC3901A28E475F034
:107D5A000112184F901A23E0F8A3E0F9A3E0FAA35E
:107D6A00E0FBC001C002C003A3E0FBA3E0FAA3E06A
:107D7A00F9121705FFE4FCFDFED003D002D001EB97
:107D8A002FFFEE3AFEED39FDEC38FC901A23121B58
:0F7D9A00C3901A23E0FCA3E0FDA3E0FEA3E0FFEB
:017DA90022B7
:10C42D007F36129F25E94A6014740229F9E43AFA1D
:0DC43D00785F7C167D017E007F041216DF03
:01C44A0022CF
:10A92200901A2EE0FBA3E475F001121865A9F0FA63
:10A93200740312177E901A2EE0FBA3E0FAA3E0F94B
:0BA94200901A31EBF0A3EAF0A3E9F05B
:10A94D00901A31E0FBA3E475F001121865A9F0FA35
:10A95D00743D12177E901A31E0FBA3E475F00112DD
:10A96D001865A9F0FA740712177E901A31E0FBA34F
:10A97D00E475F001121865A9F0FA740112177EE45E
:10A98D00FF74072FF582E43400F583E0FE901A3151
:10A99D00E0FBA3E475F001121865A9F0FAEE1217A9
:10A9AD007E0FEFB406DB901A31E0FBA3E0FAA3E0D3
:01A9BD00F9A0
:01A9BE002276
:0BB1A700901A2EEBF0A3EAF0A3E9F0F1
:0BB1B200901A31EBF0A3EAF0A3E9F0E3
:10B1BD00901A31E0FBA3E475F001121865A9F0FABD
:10B1CD00743612177E901A31E0FBA3E475F001126C
:10B1DD001865A9F0FA740412177EE4FF745F2FF559
:10B1ED0082E43416F583E0FE901A31E0FBA3E4759A
:10B1FD00F001121865A9F0FAEE12177E0FEFB404E4
:0CB20D00DB901A31E0FBA3E0FAA3E0F9AB
:01B219002212
:0BAFC000901A2EEBF0A3EAF0A3E9F0DA
:0BAFCB00901A31EBF0A3EAF0A3E9F0CC
:10AFD600901A31E0FBA3E475F001121865A9F0FAA6
:10AFE600740C12177E7B017A05792D12C5B6901A5C
:10AFF60031E0FBA3E475F001121865A9F0FAEF122F
:10B00600177EE4FEEEC39F5023742D2EF582E434A2
:10B0160005F583E0FD901A31E0FBA3E475F001121B
:10B026001865A9F0FAED12177E0E80D8901A31E055
:07B03600FBA3E0FAA3E0F91F
:01B03D0022F0
:1084D100901A2EEBF0A3EAF0A3E9F0901A26E0FC43
:0984E100A3E0FDA3E0FEA3E0FF0F
:1084EA00901A31EBF0A3EAF0A3E9F0A3121BC3E45C
:1084FA00FFFEFDFC901A34E0F8A3E0F9A3E0FAA32A
:10850A00E0FBC3121AD6700A901A34121BCF00006D
:10851A008CA0901A31E0FBA3E475F001121865A94A
:10852A00F0FA743312177E901A31E0FBA3E475F067
:10853A0001121865A9F0FA740412177E901A34E031
:10854A00FCA3E0FDA3E0FEA3E0FF7818121AE7906F
:10855A001A31E0FBA3E475F001121865A9F0FAEFED
:10856A0012177E901A34E0FCA3E0FDA3E0FEA3E01C
:10857A00FF7810121AE7901A31E0FBA3E475F001B4
:10858A00121865A9F0FAEF12177E901A34E0FCA3CC
:10859A00E0FDA3E0FEA3E0FF7808121AE7901A3183
:1085AA00E0FBA3E475F001121865A9F0FAEF1217BF
:1085BA007E901A34A3A3A3E0FF901A31E0FBA3E450
:1085CA0075F001121865A9F0FAEF12177E901A31A8
:0985DA00E0FBA3E0FAA3E0F922A2
:0BB13100901A2EEBF0A3EAF0A3E9F067
:10B13C00901A31EBF0A3EAF0A3E9F0901A31E0FB9E
:10B14C00A3E475F001121865A9F0FA743712177E92
:10B15C00901A31E0FBA3E475F001121865A9F0FA1E
:10B16C00740212177E901A31E0FBA3E475F0011201
:10B17C001865A9F0FA740112177E901A31E0FBA33E
:10B18C00E475F001121865A9F0FA740312177E9099
:0BB19C001A31E0FBA3E0FAA3E0F92267
:10C44B007F01129F25E94A6014740229F9E43AFA34
:0DC45B0078537C1C7D017E007F041216DFEB
:01C4680022B1
:10C486007F03129F25E94A6013740229F9E43AFAF8
:0CC4960078577C1C7D017E000F1216DF21
:01C4A2002277
:05BF7800421BC50000A2
:10B52C00E4901BC7F0A3F0F9A3C9F0A3F0A3E9F0D2
:10B53C007E007F047D007B017A1C79251221D67E4A
:10B54C00007F047D007B017A1B79D41221D67E000A
:10B55C007F047D007B017A1B79D01221D67E007F7F
:10B56C00497D007B017A1B79D81221D6901BCF74B0
:10B57C00FFF0901BCEF0901BCDF0901BCCF0901CEC
:0DB58C002174E0F0E4A3F0A3F0A304F0228A
:10C0EB001286F1901A39EFF030E210127834C3EF68
:10C0FB00648094804012128C0A800D901A39E030C3
:0DC10B00E60612769512929B901A39E0FF1D
:01C118002204
:1086F100E4901BC7F0A3F0126D68D3EF9400EE6411
:1087010080948050037F002212BA4CEF901A9BF0A4
:10871100A3E4F012BA4C901A9CE02FF0901A9BE05F
:108721003EF0E0FEA3E0FFD394EEEE94055004EF9B
:108731004E700612C5A07F0022900A73E0FBA3E0F1
:10874100FAA3E0F9901A9BE0FEA3E0FFE92FF9EA12
:108751003EFAA3EBF0A3EAF0A3E9F0901A9DA3E09F
:10876100FAA3E0D39012779582EA9583500E901A7E
:108771009DE0F9A3A3E0901BC9C9802C900A73A3C3
:10878100E0FAA3E0FFC374779FFF74129AFEC390CF
:108791001A9CE09FFF901A9BE09EFE74772FF9745C
:1087A1000E3EFA901BC97401F0A3EAF0A3E9F0129E
:1087B100AD2BEF1460090470037F20227F00221289
:1087C1006471901A9AEFF06004E030E30512929B15
:1087D1008025901A9AE0FF20E00620E10330E2179D
:1087E100901ABA7401F0A3741CF0A3744DF07B01CC
:0C87F1007A1C7925129CDD901A9AE0FF9A
:0187FD002259
:10691600901A6EEDF0901A6BEBF0A3EAF0A3E9F093
:106926004A70037F8522901663E0FEF46017901A82
:106936006BE0FBA3E0FAA3E0F912187B644445F090
:1069460060037FA422EE6401601D78497C1C7D01F2
:106956007B017A1B79D07E007F041221B2EF33953A
:10696600E04F70037F8522901A70E02414F0901A8D
:106976006FE03400F0901BC6E004F07006901BC573
:10698600E004F0901BC5E0FFA3E0901A77CFF0A3D8
:10699600EFF0901A6BE0FBA3E0FAA3E0F990001D7C
:1069A60012171E901A6E30E406E0FF74048004E0AD
:1069B600FF7440901A79F0A3EFF0901A6FE0FCA3F1
:1069C600E0FDE4901AB7F0A3F0901A79E0FFA3E097
:1069D600901AB9CFF0A3EFF0A37401F0A3741CF0E2
:1069E600A37449F0901A6BE0FBA3E0FAA3E0240439
:1069F600F9E43AFA901ABEEBF0A3EAF0A3E9F0E460
:106A0600A3F0901A77E0FAA3E0FB7F007E45125DC3
:106A16001B901A71121BC3901A71E0FCA3E0FDA330
:106A2600E0FEA3E0FF7808121AE7A3EFF0901A71D0
:106A3600A3A3E0FEA3E0FF901A76EFF0901A6EE0B3
:106A4600B40107E4901A7BF08012901663E0B4015B
:106A5600047F0180027F00901A7BEFF0901A6BE0B2
:106A6600FBA3E0FAA3E0F9901A7BE0901A81F07D8F
:106A7600007C081279C1EF64016001227F4512C5CE
:106A86005AE4FF12C55A901A6FE0FF12C55A901ABF
:106A96006FA3E0FF12C55A901A77E0FF12C55A900D
:106AA6001A77A3E0FF12C55AE4FF12C55AE4FF1293
:106AB600C55A901A6BE0FBA3E0FAA3E0F990001D1B
:106AC60012171E30E4047F0480027F4012C55A90DC
:106AD6001A6EE0FF12C55A901A75E0FF12C55A9059
:106AE6001A76E0FF12C55A901C49E0FF12C55A906B
:106AF6001C4AE0FF12C55A901C4BE0FF12C55A9083
:106B06001C4CE0FF12C55A901A6BE0FBA3E0FAA3F7
:106B1600E0F990000412171EFF12C55A901A6BE096
:106B2600FBA3E0FAA3E0F990000512171EFF12C5B9
:106B36005A901A6BE0FBA3E0FAA3E0F99000061264
:106B4600171EFF12C55A901A6BE0FBA3E0FAA3E0EA
:0D6B5600F990000712171EFF12C55A7F01AB
:016B6300220F
:10929B00901BC9E0FBA3E0FAA3E0F9C003C002C036
:1092AB0001900A73E0FBA3E0FAA3E0F9D082D0832C
:1092BB00D0E06B7008E965827003EA658370030286
:1092CB009382901BC9E0FBA3E0FAA3E0F9C003C0B3
:1092DB0002C001900A73A3E0FAA3E0F9C3D082D0D5
:1092EB0083D0E0E99582EA9583501F900A73A3A37C
:1092FB00E0AE02FF901BC9A3E0FAA3E0C39FFFEA15
:10930B009E901AA3F0A3EFF08027901BC9A3E0FA5D
:10931B00A3E0AE02FF900A73A3E0FAA3E0C39FFFA2
:10932B00EA9EFEC3E49F901AA4F074049E901AA3C5
:10933B00F0901278E0FEA3E0FFD3901AA4E09F9088
:10934B001AA3E09E400302C5A0C2AF901AA3E0FE91
:10935B00A3E0FFC3901279E09FF0901278E09EF0AB
:10936B00901BC9E0F9A3E0FAA3E0900A73C9F0A33C
:07937B00EAF0A3E9F0D2AF14
:0193820022C8
:10647100E4901AA8F012BA4C901AA5EFF0E0FE547D
:106481000FA3F0EEC4540F640460030266C4E0FF7E
:10649100C3940550030266C4EF25E025E0F0C394E0
:1064A10014A3F012BA4C901AA0EFF012BA4CEF906C
:1064B1001BC7F0A3E4F012BA4C901BC8E02FF09078
:1064C1001BC7E03EF0C3A3E09414901BC7E0940007
:1064D10050037F002212BA4CEF901AA9F0A3E4F006
:1064E10012BA4C901AAAE02FF0901AA9E03EF012CD
:1064F100BA4CEF901AABF0A3E4F012BA4C901AAC7C
:10650100E02FF0901AABE03EF0A3E030E507901ADF
:10651100A8E04410F012BA4C901AA1EFF012BA4C54
:10652100901AA2EFF014601D14602324F1600D2471
:106531000B7024901AA8E04401F08022901AA8E080
:106541004402F08019901AA8E04404F08010901AD7
:10655100A8E04440F08007901AA8E04408F012BA7D
:106561004C901AA3EFF012BA4C901AA4EFF012BAA1
:106571004C901C25EFF012BA4C901C26EFF012BA89
:106581004C901C27EFF012BA4C901C28EFF0901C95
:1065910025E0FFC394E04009EFD394EF50037F005F
:1065A1002212BA4C901BD4EFF012BA4C901BD5EFCB
:1065B100F012BA4C901BD6EFF012BA4C901BD7EFE9
:1065C100F012B8FCEF7047901C49E0FF901BD4E03B
:1065D100FE6F6004EEF47033901C4AE0FF901BD50F
:1065E100E0FE6F6004EEB4FF22901C4BE0FF901BB5
:1065F100D6E0FE6F6004EEB4FF11901C4CE0FF90FA
:106601001BD7E0FE6F6007EEF460037F0022901A53
:10661100A5E0FE901AA0E0FDEDFFC006C007901BAB
:10662100C7E0FCA3E0FD901AABE0FFA3E0901AB72E
:10663100CFF0A3EFF0901AA1E0FEA3E0FBEBFF90F7
:106641001AB9EEF0A3EFF0A37401F0A3741BF0A349
:1066510074D4F0A37401F0A3741CF0A37425F0901A
:106661001AA7E0901AC1F0901AA9E0FAA3E0FBD0B2
:1066710007D006125D1B901AAD121BC3901AADE034
:10668100FCA3E0FDA3E0FEA3E0FF7808121AE79067
:106691001AA3E0B50711901AADA3A3A3E0FF901AC6
:1066A100A4E0FEEF6E60037F0022901AA6E0FFC314
:1066B100901BC8E09FF0901BC7E09400F0901AA8CF
:0566C100E0FF227F0054
:0166C60022B1
:10B8FC00E4901AB1F078D47C1B7D017B017A1C7921
:10B90C0021FE7F041221B2EF7005901AB104F09061
:10B91C001AB1E0702A7B017A1B79D412AC1BE94A6C
:10B92C00601D90000612171E601590000712171E5E
:10B93C00FF64016004EFB40206901AB17401F09038
:04B94C001AB1E0FF4D
:01B9500022D4
:0E5D1B00901AB3ECF0A3EDF0A3EAF0A3EBF0C6
:105D2900E4FCFD901AC2121BC3901AC2E0F8A3E06A
:105D3900F9A3E0FAA3E0FBC000C001C002C00390D0
:105D49001ABBE0FBA3E0FAA3E0F990000112171EC9
:105D5900FD121705FEEDFFE4FCFDD003D002D001D2
:105D6900D000EB2FFFEA3EFEED39FDEC38FC901A2E
:105D7900C2121BC3901AC2E0F8A3E0F9A3E0FAA388
:105D8900E0FBC000C001C002C003901ABBE0FBA346
:105D9900E0FAA3E0F990000212171EFE9000031228
:105DA900171EFDEDFFE4FCFDD003D002D001D000A9
:105DB900EB2FFFEA3EFEED39FDEC38FC901AC212DA
:105DC9001BC3901AC2E0F8A3E0F9A3E0FAA3E0FB31
:105DD900901AB3E0FEA3E0FFE4FCFDEB2FFFEA3EDF
:105DE900FEED39FDEC38FC901AC2121BC3901AC2A1
:105DF900E0F8A3E0F9A3E0FAA3E0FB901AB5E0FE0E
:105E0900A3E0FFE4FCFDEB2FFFEA3EFEED39FDECDC
:105E190038FC901AC2121BC3901AC2E0F8A3E0F929
:105E2900A3E0FAA3E0FB901AB7E0FEA3E0FFE4FCCD
:105E3900FDEB2FFFEA3EFEED39FDEC38FC901AC26E
:105E4900121BC3901AC2E0F8A3E0F9A3E0FAA3E099
:105E5900FB901AB9E0FEA3E0FFE4FCFDEB2FFFEA9B
:105E69003EFEED39FDEC38FC901AC2121BC3901AA4
:105E7900C2E0F8A3E0F9A3E0FAA3E0FBC000C00187
:105E8900C002C003901ABEE0FBA3E0FAA3E0F990B8
:105E9900000112171EFD121705FEEDFFE4FCFDD0EF
:105EA90003D002D001D000EB2FFFEA3EFEED39FD11
:105EB900EC38FC901AC2121BC3901AC2E0F8A3E096
:105EC900F9A3E0FAA3E0FBC000C001C002C003903F
:105ED9001ABEE0FBA3E0FAA3E0F990000212171E34
:105EE900FE90000312171EFDEDFFE4FCFDD003D068
:105EF90002D001D000EB2FFFEA3EFEED39FDEC3870
:105F0900FC901AC2121BC3901AC1E0606120E05EC6
:105F1900E4901AC8F0901AC1E0FF901AC8E0C39F34
:105F2900504C12BA4CEF901AC6F0A3E4F012BA4CD6
:105F3900901AC7E02FF0901AC6E03EF0901AC2E01E
:105F4900F8A3E0F9A3E0FAA3E0FBA3E0FEA3E0FFD6
:105F5900E4FCFDEB2FFFEA3EFEED39FDEC38FC9049
:105F69001AC2121BC3901AC8E02402F080A7901A23
:105F7900C2E0FCA3E0FDA3E0FEA3E0FF12B3709032
:105F89001AC2121BC3901AC2E0FCA3E0FDA3E0FEF3
:035F9900A3E0FF83
:015F9C0022E2
:10783400901A3B74FFF012BA4C901A3AEFF06408B5
:1078440060030279B8901BC7E0FEA3E0FFD394481D
:10785400EE940040030279B8C3EF9404EE94005010
:10786400030279B8E4901ABCF0A3F0A304F0E4A3F3
:10787400F0F9A3C9F0A3F0A3E9F0E4A3F0A3F07B2B
:10788400017A1C7925FDFC124EB3901A3BEFF0C32C
:107894006480948050030279B812BA4C901A3AEF7B
:1078A400F0901BC8E024FEFE901BC7E034FF901A42
:1078B4003DF0A3CEF0901A3BE0901BD8F0901A3D17
:1078C400E0FCA3E0FDEC901BD9F0EDA3F0901A3E90
:1078D40024FEF0901A3DE034FFF012BA4C901A3CAA
:1078E400EFF012BA4C901A3CE02408F0C39408500C
:1078F400010F901A3CE0901BDBF0A3EFF0901A3FCD
:107904007401F0A3741BF0A374DDF0900A73A3E078
:10791400FAA3E0FFC374779FFF74129ACF2401CFB8
:107924003400901A42F0FCA3EFF0FD901A3DE0FE03
:10793400A3E0FFD39DEE9C501AA3E0FBA3E0FAA3BF
:10794400E0F8AC02AD03900A73E0FBA3E0FAA3E015
:10795400F9805E901A42E0FEA3E0FF901A3FE0FB3C
:10796400A3E0FAA3E0F8AC02AD03900A73E0FBA332
:10797400E0FAA3E0F91216DF901A42E0FEA3E0FF5A
:10798400C3901A3EE09FF0901A3DE09EF0E0FCA305
:10799400E0FDC004C005A3E0FBA3E0FAA3E02FF9D7
:1079A400EA3EA801FCAD037B017A0E7978D007D0BA
:0C79B400061216DF12929B901A3BE0FFB7
:0179C00022A4
:108C0A00901BD8E0901A3CF0C36480948050030211
:108C1A008D01E0FFFD3395E0FC90129975F03DED72
:108C2A00121C24EC75F03DA42583F583E020E003B3
:108C3A00028D01EF3395E0FE7C007D3D1217B27480
:108C4A007B2FF974123EFA7B01901A3DEBF0A3EAEE
:108C5A00F0A3E9F090001B12171E64016003028D55
:108C6A0001901BD9E0901A3AF0A3E4F0901BDAE0E5
:108C7A00FF901A3BE02FF0901A3AE03400F0E0FE41
:108C8A00A3E0FFD39446EE940050647A1B79DBC0CC
:108C9A0003C002C001901A3DE0FBA3E0FAA3E0F989
:108CAA0090000E121CF8901A3DE0FBA3E0FAA3E034
:108CBA00F9900011EE8FF0121982EF2402FFE43EC0
:108CCA00901A6FF0A3EFF07D01126916EF6020E4AD
:108CDA00FF12C55AE4FF12C55A901A3DE0FBA3E001
:108CEA00FAA3E0F9901A3AE0FCA3E0FD12BE329032
:078CFA001A3CE0FF12A40880
:018D0100224F
:10C5A000C2AF12C29C901BC97401F0A3740EF0A319
:06C5B0007478F0D2AF2206
:10C3EE00901ABCEFF07B017A0A7978900A6AEBF02A
:10C3FE00A3EAF0A3E9F0A3EBF0A3EAF0A3E9F0229D
:10C29C007B017A0E7978900A73EBF0A3EAF0A3E9AC
:10C2AC00F0900A70EBF0A3EAF0A3E9F0E4901278B6
:04C2BC00F0A3F022D9
:0EC69D0012C29CE4FF12C3EEE490127AF02267
:10BDF50090127AE0601F7B017A1A79B77D587C0230
:10BE050012AB817B017A1A79B712B78DEF70069064
:10BE1500127AE070EE90127AE070057F0112C3EE9F
:0CBE250090127AE070047F0180027F0020
:01BE310022EE
:10C54100C2AF438901758C60758A7FD28CD2A9E410
:09C55100900A76F0A3F0D2AF22AB
:10C3AD00C28C758C60758A7FD28C900A77E004F010
:10C3BD007006900A76E004F012C17512946702BD02
:01C3CD0074FB
:10C328007E037FD07D007B017A12797B1221D612A1
:10C33800B52C12C54112C68012C27812C67112C637
:01C34800C331
:01C3490022D1
:10A74100C003C002C0019019E7E0FFA3E0901ABC6A
:10A75100CFF0A3EFF09019EAE0901ABEF09019EB58
:10A76100E0901ABFF09019ECE0F9A3E0FAA3E090B1
:10A771001AC0C9F0A3EAF0A3E9F09019EFE0FFA332
:10A78100E0901AC3CFF0A3EFF0D001D002D00312B2
:10A791004EB39019F1EFF09019EAE06406703D9024
:10A7A10019F1E0FFC3648094804031EF3395E0FEFE
:10A7B1007C007D3D1217B2747B2FF974123EFA7B37
:10A7C100019019E9E0FF128A13D3EF64809480505D
:10A7D1000B9019F1E0FF12A4087F84229019F1E097
:01A7E100FF78
:01A7E2002254
:104EB300901AB7EBF0A3EAF0A3E9F0A3ECF0A3EDAB
:014EC300F0FE
:104EC400901AC57482F0901ABEE0FE146018146043
:104ED4001524FC601124F5600D240D700E901ABF8A
:104EE400E0B420078000E4901AC5F0901AC5E0FFF2
:104EF400B4820122901AB7E0FBA3E0FAA3E0F9120E
:104F04001705FFC394E0400DEFD394EF5007901AB8
:104F1400BFE04410F0901ABAE07002A3E0700EEE05
:104F240064066036901ABEE0B41102802D901ABE59
:104F3400E0B40607A3E030E402801F12170564E022
:104F4400702190000112171E701990000212171E92
:104F5400701190000312171E7009901AC57485F021
:104F64000251E0901ABCE0FCA3E0FD901AB7E0FB0C
:104F7400A3E0FAA3E0F9901ABEE0901AD0F0901AD8
:104F8400BAE0FEA3E0FF128023901AC6EBF0A3EA76
:104F9400F0A3E9F04A602C901AC6E0FBA3E0FAA360
:104FA400E0F990001C12171E75F03DA42499F582B7
:104FB400E5F03412F583E030E009901AC57481F00D
:104FC4000251E012C1F9901AC5EFF0648070030237
:104FD40051E07E007F3DC006C0077F00C007E0FFB0
:104FE4003395E0FE7C007D3D1217B2747B2FF9747B
:104FF400123EFA7B01D005D007D0061221D6901AB2
:10500400C5E0FF3395E0FE7C007D3D1217B2747B52
:105014002FF974123EFA7B01A3EBF0A3EAF0A3E9A3
:10502400F0901AC5E090001C121790901ABAE0FF95
:10503400A3E0CF8FF0121963901ABCE0FEA3E0FF47
:10504400901AC6E0FBA3E0FAA3E0F9900002EE8F09
:10505400F0121982901AB7E0FBA3E0FAA3E0F91268
:105064001705FF901AC6E0FBA3E0FAA3E0F990004D
:1050740004EF121790901AB7E0FBA3E0FAA3E0F94B
:1050840090000112171EFF901AC6E0FBA3E0FAA3DA
:10509400E0F9900005EF121790901AB7E0FBA3E037
:1050A400FAA3E0F990000212171EFF901AC6E0FB63
:1050B400A3E0FAA3E0F9900006EF121790901AB754
:1050C400E0FBA3E0FAA3E0F990000312171EFF909F
:1050D4001AC6E0FBA3E0FAA3E0F9900007EF121769
:1050E40090901ABFE0FF64207044901ABEE06404FC
:1050F400703C901C4DE0900008121790901C4EE0FC
:10510400900009121790901C4FE090000A1217901B
:10511400901C50E090000B121790901C51E09000EE
:105124000C121790901C52E090000D121790901AD8
:10513400BEE0FE901AC6E0FBA3E0FAA3E0F99000FB
:105144001BEE12179090001DEF121790901AC0E0FA
:10515400FBA3E0FAA3E0F9EA494B604EA3E0FCA309
:10516400E0FD4C6045C003C002C001901AC6E0FBDC
:10517400A3E0FAA3E0F9900013121CF8901AC0E01F
:10518400FBA3E0FAA3E02DF9EA3CFAE924FFF9EAEB
:1051940034FFFAC003C002C001901AC6E0FBA3E0CA
:1051A400FAA3E0F9900016121CF8EEB4060E901A59
:1051B400C6E0FBA3E0FAA3E0F91290C8901AC5E098
:1051C400FF3395E0FE90129975F03DEF121C24EE2A
:1051D40075F03DA42583F583E04401F0901AC5E001
:0151E400FFCB
:0151E50022A7
:1074E800901C72EBF0A3EAF0A3E9F0901C71EFF0A6
:1074F800901C7A74FFF0A37489F0E4A3F0A3F0C39E
:10750800EF64809480400B901C71E0FD648094903F
:1075180040057EFF7F8522EDFF3395E0FE901299AE
:1075280075F03DEF121C24EE75F03DA42583F5831C
:10753800E020E0057EFF7F862290165DE0FF700563
:107548007EFF7F9D22901663E0B4FF1AEF640A6005
:1075580004EFB40B1190164DE0FCA3E0FDA3E0FE90
:10756800A3E0FF128FDB12B03E901C71E0FF339551
:10757800E0FE7C007D3D1217B2747B2FF974123E39
:10758800FA901C777401F0A3EAF0A3E9F0901C725A
:10759800E0FBA3E0FAA3E0F9EA494B6034A3E0FE7C
:1075A800A3E0FF4E602BC003C002C001901C77E02F
:1075B800FBA3E0FAA3E0F990000E121CF8901C77E8
:1075C800E0FBA3E0FAA3E0F9900011EE8FF01219A6
:1075D80082901C77E0FBA3E0FAA3E0F990001B126D
:1075E800171E6406600302767A901C77E0FBA3E01E
:1075F800FAA3E0F9126F59901C7CEEF0A3EFF0D3D8
:107608009400EE648094804060901C7AE0B4FF237C
:10761800A3E0B4891E901C71E0FF7B007A0079001A
:10762800E4901A27F0A312713F901C7AEEF0A3EFB2
:10763800F080D6901C7AE0FEA3E0FFC3EE6480944D
:10764800805011EF64877002EEF46008A3EEF0A397
:10765800EFF08015901C77E0FBA3E0FAA3E0F99027
:1076680000241218A645F07080901C7CE0FEA3E070
:10767800FF22901C77E0FBA3E0FAA3E0F990001B3F
:0C76880012171EB41103027324E4FEFF6D
:0176940022D3
:10C63F00901C91E0FDA3E0901A27CDF0A3ED1271AD
:02C64F003F2288
:09713F00F0A37402F0A37458F0EF
:0D714800901A24EBF0A3EAF0A3E9F0AD07E4
:10715500E4901A2BF0A3F0C3ED648094804007ED12
:10716500648094904003027236EDFB3395E0FA900B
:10717500129975F03DEB121C24EA75F03DA42583A8
:10718500F583E020E0057EFF7F862290165DE070A6
:10719500057EFF7F9D227C007D3DAF03AE02121769
:1071A500B2747B2FF974123EFA901A2D7401F0A374
:1071B500EAF0A3E9F0901A24E0FBA3E0FAA3E0F9D2
:1071C500EA494B604EA3E0FEA3E0FF4E6045C003D5
:1071D500C002C001901A2DE0FBA3E0FAA3E0F990EC
:1071E5000013121CF8901A24E0FBA3E0FAA3E02F89
:1071F500F9EA3EFAE924FFF9EA34FFFAC003C002CE
:10720500C001901A2DE0FBA3E0FAA3E0F990001667
:10721500121CF8901A2DE0FBA3E0FAA3E0F9900008
:107225001B12171EB4110F900013121CC8E94A70E7
:10723500057EFF7F8522901A2DE0F9A3E0FAA3E0F1
:10724500A3C9F0A3EAF0A3E9F0901A29E0FCA3E0B2
:10725500FD4C60097B017A1A793312AB8112C0EBC0
:10726500901A38EFF054077029901A29E07002A39C
:10727500E0600C7B017A1A793312B78DEF60057ED9
:10728500FF7F872212B03E12C6E7BF9AD07EFF7FEE
:107295009A22901A38E0FF20E2C3EF30E0197B0113
:1072A5007A1A792D1222CE901A2BEEF0A3EFF0BEAA
:1072B500FF1DBFFA1A805F901A38E030E1117B019B
:1072C5007A1A792D12478D901A2BEEF0A3EFF090D4
:1072D5001A30E0FBA3E0FAA3E0F9C003C002C00145
:1072E500901A2DE0FBA3E0FAA3E0F9D082D083D079
:1072F500E06B7008E965827003EA65836018901A8F
:1073050030E0F9A3E0FAA3E0901A2DC9F0A3EAF062
:0E731500A3E9F0027262901A2BE0FEA3E0FFE3
:017323002247
:05A0A100901C97EFF098
:10A0A600C3648094804008E0FD6480949040057EFF
:10A0B600FF7F8522EDFF3395E0FE90129975F03D06
:10A0C600EF121C24EE75F03DA42583F583E020E015
:10A0D600057EFF7F862290165DE0700D901C97E04E
:10A0E600FF12A4087EFF7F9D22901C97E0FF339508
:10A0F600E0FE7C007D3D1217B2747B2FF974123E90
:10A10600FA7B01A3EBF0A3EAF0A3E9F090001B129F
:10A11600171EB4060E901C98E0FBA3E0FAA3E0F924
:10A1260012BDB6901C97E0FF3395E0FE901299752C
:10A13600F03DEF121C24EE75F03DA42583F583E473
:10A14600F0901C98E0FBA3E0FAA3E0F9E4F5F01226
:05A156001963E4FEFFA7
:01A15B0022E1
:05A40800901AB7EFF00F
:10A40D00C3648094804008E0FD6480949040057E94
:10A41D00FF7F8522EDFF3395E0FE90129975F03D9B
:10A42D00EF121C24EE75F03DA42583F583E020E0AA
:10A43D00057EFF7F8622901AB7E0FF3395E0FE7C04
:10A44D00007D3D1217B2747B2FF974123EFA7B0119
:10A45D00A3EBF0A3EAF0A3E9F090001B12171EB4D2
:10A46D00060E901AB8E0FBA3E0FAA3E0F912B6CC01
:10A47D00901AB7E0FF3395E0FE90129975F03DEF1D
:10A48D00121C24EE75F03DA42583F583E4F0901A9B
:10A49D00B8E0FBA3E0FAA3E0F9E4F5F0121963E4E8
:02A4AD00FEFFB0
:01A4AF00228A
:10BE320090165DE06033E94A601390001B12171EF2
:10BE4200B4060A90002074FF12174B800090127AF9
:10BE52007401F01257CBE490127AF0D3EF9400EE13
:0BBE62006480948040057F01227F9DDA
:01BE6D0022B2
:10C1A200EE7024EF24EC601314601024FC60102461
:10C1B200D4601024F570107D81800E7D02800A7D8E
:0BC1C2000480067D088002E4FDAF054C
:01C1CD00224F
:10802300901AC9EEF0A3EFF0A3ECF0A3EDF0A3EBED
:07803300F0A3EAF0A3E9F05D
:10803A00901663E0901AD5F0901AD2E4F0A3F0A358
:10804A00F0901ACDA3E0FAA3E04A7003028150E44B
:10805A00901AD1F0901AD1E0FFC394104003028124
:10806A005075F03DEFA4247BF582E5F03412F583D8
:10807A00E0FEA3E0FF901AC9E0FCA3E0FDEF6D70FB
:10808A0002EE6C6003028147901AD1E0FF75F03D61
:10809A00A4247DF582E5F03412F583E0FCA3E0FD2B
:1080AA00901ACBE0FAA3E0FBED6B7002EC6A600376
:1080BA0002814775F03DEFA42496F582E5F034126B
:1080CA00F583E0FF901AD0E0FEEF6E7070901AD53B
:1080DA00E0B40124901AD1E075F03DA4247FF9742C
:1080EA001235F0A801FC7D017B017A1B79CC7E0058
:1080FA007F041221B2EF6029901AD1E075F03DA4F5
:10810A00247FF9741235F0A801FC7D01901ACDE0A4
:10811A00FBA3E0FAA3E0F97E007F041221B2EF701C
:10812A001C901AD1E075F03DA4247BF9741235F045
:10813A00FAA37401F0A3EAF0A3E9F08009901AD136
:10814A00E004F002805E901AD2E0FBA3E0FAA3E01A
:01815A00F92B
:01815B002201
:10C1F9007F80E4FEEEFD3395E0FC90129975F03DE9
:10C20900ED121C24EC75F03DA42583F583E020E0B4
:0AC2190004AF0680050EEEB410DA43
:01C2230022F8
:04C6DD0012C5DF2281
:0B478D00901A39EBF0A3EAF0A3E9F06A
:1047980012BA4CEF901A42F0A3E4F012BA4C901AF5
:1047A80043E02FF0901A42E03EF012BA4CEF901A14
:1047B80040F0A3E4F012BA4C901A41E02FF0901A9E
:1047C80040E03EF0E0FEA3E0FFA3E0FCA3E0FD7BB9
:1047D800017A1C7925901AD07411F0128023901A4E
:1047E8004CEBF0A3EAF0A3E9F04A60030248859095
:1047F8001A40E0FEA3E0FF7B017A1C7925901AD0CD
:104808007411F0E4FDFC128023901A4CEBF0A3EA3B
:10481800F0A3E9F04A7025901A40E0FEA3E0FF7B80
:10482800017A1B79D0901AD07411F0E4FDFC128043
:1048380023901A4CEBF0A3EAF0A3E9F0901A4CE0AD
:10484800FBA3E0FAA3E0F94A6012901A42E0FFA342
:10485800E0900002CF8FF012198280217B007A004D
:104868007900C003C002C001901A39E0FBA3E0FA46
:10487800A3E0F9121C7912929BE4FEFF22901A4CD5
:10488800E0FBA3E0FAA3E0F9C003C002C001901A5C
:1048980039E0FBA3E0FAA3E0F9121C79901A4CE086
:1048A800FBA3E0FAA3E0F990000412171E705490DD
:1048B800001D12171E30E423901BD4E09000041250
:1048C8001790901BD5E0900005121790901BD6E02A
:1048D800900006121790901BD78021901C25E0901D
:1048E8000004121790901C26E09000051217909073
:1048F8001C27E0900006121790901C28E0900007F3
:1049080012179012BA4CEF901A46F0A3E4F012BABC
:104918004C901A47E02FF0901A46E03EF0C3A3E00F
:104928009408901A46E0940050227B007A0079009F
:10493800C003C002C001901A39E0FBA3E0FAA3E06B
:10494800F9121C7912929B7EFF7FFF2212BA4CEF5C
:10495800901A3EF0A3E4F012BA4C901A3FE02FF000
:10496800901A3EE03EF0901A48121BCF000000005B
:10497800E4901A4FF0A3F0901A3EE07002A3E060B2
:1049880042901A46E0FCA3E0FD901A42E0FFA3E043
:10499800901A70CFF0A3EFF0A37401F0A3741BF08A
:1049A800A374D4F0A37401F0A3741CF0A37425F0CD
:1049B800901A40E0FAA3E0FB7F11126B64901A484A
:1049C800121BC3901A47E024F8F0901A46E034FF0F
:1049D800F0E0FEA3E0FF901A44EEF0A3EFF04E7073
:1049E80003024AD1E4901A3DF0901A44E0FEA3E095
:1049F800FF901A4CE0FBA3E0FAA3E0F912C6CE122E
:104A0800BA4C901A3CEFF0901A3EE07002A3E060B6
:104A180057901A3DE0901A3C700FE0901A4FF0A39F
:104A2800E4F0901A3D04F0803FE0FF901A50E02F28
:104A3800F0901A4FE03400F0901A48E0F8A3E0F93B
:104A4800A3E0FAA3E0FB901A4FE0FEA3E0FFE4FC2A
:104A5800FDEB2FFFEA3EFEED39FDEC38FC901A48DD
:104A6800121BC3E4901A3DF0901A3CE0FF901A4CD8
:104A7800E0FBA3E0FAA3E0F912A556901A4474FFEC
:104A8800F5F012184F45F06003024A07901A3EE00D
:104A98007002A3E06047901A3DE06041901A48E038
:104AA800F8A3E0F9A3E0FAA3E0FB901A4FE0FEA315
:104AB800E0FFE4FCFDEB2FFFEA3EFEED39FDEC38AC
:104AC800FC901A48121BC38014901A4CE0FBA3E018
:104AD800FAA3E0F9900019E4F5F0121982901A3E51
:104AE800E07002A3E0603E901A48E0FCA3E0FDA35A
:104AF800E0FEA3E0FF12B370901A48121BC3901A8D
:104B08003EE0FEA3E0FFE4FCFD901A48E0F8A3E0D5
:104B1800F9A3E0FAA3E0FBC3121AD6600812929B2D
:104B28007EFF7FFC22901A4CE0FBA3E0FAA3E0F999
:104B380012C6E112929B901A4CE0FBA3E0FAA3E0A4
:0A4B4800F99000191218A6FFAEF054
:014B52002240
:0B732400901A23EBF0A3EAF0A3E9F0BD
:10732F004A70057EFF7F8522901A23E0FBA3E0FAC7
:10733F00A3E0F912C119901A26EEF0A3EFF04E70E8
:10734F0003FEFF22901A23E0FBA3E0FAA3E0F990DB
:10735F00000E121CC8901A2AEBF0A3EAF0A3E9F072
:10736F00901A27E02408FF901A26E03400FE901AA6
:10737F0028F0FCA3EFF0FD901A23E0FBA3E0FAA3A3
:10738F00E0F912187BFBAAF0C002C003901A23E0A9
:10739F00FBA3E0FA9000021218A6FF901A70E5F016
:1073AF00F0A3EFF0A37401F0A3741CF0A37449F0E1
:1073BF00901A23A3A3E02404F9E43AFA901A75EB88
:1073CF00F0A3EAF0A3E9F0D003D0027F11126B64AF
:1073DF00C007901A2AE0FBA3E0FAA3E0F9901A265F
:1073EF00E0FFA3E0901A72CFF0A3EFF0D007128561
:1073FF00E312B370901A2DEEF0A3EFF0901A23E082
:10740F00FBA3E0FAA3E0F990001B12171EFD901AE0
:10741F0028E0FFA3E0901A6FCFF0A3EFF0901A23AC
:10742F00A3A3E0126916EF640160030274CD901AF2
:10743F0023E0FBA3E0FAA3E0F912187BE5F0FF12BB
:10744F00C55A901A23E0FBA3E0FAA3E0F912187BC8
:10745F00FF12C55A901A23E0FBA3E0FAA3E0F990BC
:10746F0000021218A6E5F0FF12C55A901A23E0FB8E
:10747F00A3E0FAA3E0F99000021218A6FF12C55A72
:10748F00901A28E0FF12C55A901A28A3E0FF12C5E0
:10749F005A901A2DE0FF12C55A901A2DA3E0FF1231
:1074AF00C55A901A23E0FBA3E0FAA3E0F9A3E0FC8E
:1074BF00A3E0FD12BE32D3EF648094805006EF3309
:1074CF0095E0FE22901A23E0FBA3E0FAA3E0F990E7
:0874DF0000111218A6FFAEF027
:0174E7002282
:104B5300901AB274FFF012BA4CEF4E6003024EADDE
:104B630012BA4CEF64014E6003024EAD12BA4CEF21
:104B730064084E6003024EAD12BA4CEF4E6003025E
:104B83004EAD12BA4CEF64064E6003024EAD12BA3C
:104B93004CEF64044E6003024EAD12BA4CEF4E600C
:104BA30003024EAD12BA4CEF24FE7003024DE4042F
:104BB3006003024EADE4901AA3F012BA4C901AA30C
:104BC300E024ACF582E4341AF583EFF0901AA3E005
:104BD30004F0E0C3940640E2E4901AA3F012BA4C46
:104BE300901AA3E024A8F582E4341AF583EFF09039
:104BF3001AA3E004F0E0C3940440E2E4901AA3F0A3
:104C030012BA4C901AA3E004F0E0C3940640F1E416
:104C1300901AA3F012BA4C901AA3E024A4F582E4EC
:104C2300341AF583EFF0901AA3E004F0E0C3940480
:104C330040E2901C49E0FF901AA4E06F6003024E2B
:104C4300AD901C4AE0FF901AA5E06F6003024EADE1
:104C5300901C4BE0FF901AA6E06F6003024EAD90EC
:104C63001C4CE0FF901AA7E06F6003024EAD7B017E
:104C7300901ABA04F0A3741AF0A374ACF07A1A79F8
:104C8300A8129CDD74FF901ABCF0A3F0A37404F087
:104C9300A37420F0A3E4F0A3F0A3F0A3F0A3F07BAC
:104CA300017A1A79A874FFFDFC124EB3901AB3EF80
:104CB300F0C3648094805003024EAD901663E0F419
:104CC3006003024DD912BDF5EF7003024DD9901A5E
:104CD300B3E0FF3395E0FE7C007D3D1217B2747B99
:104CE3002FF974123EFA7B01A3EBF0A3EAF0A3E9D8
:104CF300F0E4FD12C08DE4FF12C55A7F0212C55ABB
:104D0300E4901AA3F0901AA3E0FFC394065017741B
:104D1300072FF582E43400F583E0FF12C55A901A99
:104D2300A3E004F080DFE4901AA3F0901AA3E0FF5D
:104D3300C39404501774A42FF582E4341AF583E066
:104D4300FF12C55A901AA3E004F080DFE4901AA37F
:104D5300F0901AA3E0FFC394065027901AB4E0FB27
:104D6300A3E0FAA3E02408F9E43AFA7E00E92FF974
:104D7300EE3AFA121705FF12C55A901AA3E004F08F
:104D830080CFE4901AA3F0901AA3E0FFC3940450D9
:104D930027901AB4E0FBA3E0FAA3E02404F9E43A71
:104DA300FA7E00E92FF9EE3AFA121705FF12C55AF7
:104DB300901AA3E004F080CF901AB4E0FBA3E0FACA
:104DC300A3E0F9E4FDFC12BE32D3EF64809480408B
:104DD30005E4901AB2F0901AB3E0FF12A408024E51
:104DE300ADE4901AA3F012BA4C901AA3E024ACF5E8
:104DF30082E4341AF583EFF0901AA3E004F0E0C3E1
:104E0300940640E2E4901AA3F012BA4C901AA3E07D
:104E130024A8F582E4341AF583EFF0901AA3E00492
:104E2300F0E0C3940440E2E4901AA3F012BA4C9069
:104E33001AA3E004F0E0C3940640F1E4901AA3F04F
:104E430012BA4C901AA3E024A4F582E4341AF58331
:104E5300EFF0901AA3E004F0E0C3940440E2901C46
:104E630049E0FF901AA4E06F7040901C4AE0FF9065
:104E73001AA5E06F7034901C4BE0FF901AA6E0B5C2
:104E83000728901C4CE0FF901AA7E0B5071C901A66
:104E9300BA7401F0A3741AF0A374ACF07B017A1A0C
:0F4EA30079A8129CDDE4901AB2F0901AB2E0FFE9
:014EB20022DD
:0FC671007E007F6E7D007B017A1B79570221D6F8
:039CDD00901AB723
:109CE00012B28D901ABDEBF0A3EAF0A3E9F04A702E
:109CF0000E12B21A901ABDEBF0A3EAF0A3E9F090AD
:109D00001ABDE0FBA3E0FAA3E0F990000A12171EC7
:109D100030E003029DA3E9240AF9E43AFA12170598
:109D2000440112177EE4FF901AB7E0FBA3E0FAA308
:109D3000E0F98F8275830012171EFE901ABDE0FBBA
:109D4000A3E0FAA3E0F98F82758300EE1217900F5B
:109D5000EFB404D3E4FF901ABAE0FBA3E0FAA3E067
:109D6000F98F8275830012171EFE901ABDE0FBA3C7
:109D7000E0FAA3E02404F9E43AFAEF7C0029F9ECD4
:109D80003AFAEE12177E0FEFB406CB901ABDE0FB45
:109D9000A3E0FAA3E0240AF9E43AFA12170554FE04
:039DA00012177E19
:019DA300229D
:03962800901A860F
:10962B0012B28D901A89EBF0A3EAF0A3E9F04A602D
:10963B00030296F9F9901A89C9F0A3F0A3E9F07423
:10964B00FF901ABCF0A3F0A37404F0A37420F0A352
:10965B00E4F0A3F0A3F0A3F0A3F0901A86E0FBA331
:10966B00E0FAA3E0F974FFFDFC124EB3901A8DEFF4
:10967B00F0C3648094804076E0FF3395E0FE7C007D
:10968B007D3D1217B2747B2FF974123EFAA374014D
:10969B00F0A3EAF0A3E9F0E4901A8CF0901A8EE0B4
:1096AB00FBA3E0FAA3E0F9128B0FEF6039901A8E4F
:1096BB00E0FBA3E0FAA3E0F912BCEDEF601C901AFB
:1096CB0086E0FBA3E0FAA3E0F912B295901A89EBBE
:1096DB00F0A3EAF0A3E9F04A700C901A8CE004F0C6
:1096EB00E0C3940640B6901A8DE0FF12A408901ABE
:0996FB0089E0FBA3E0FAA3E0F909
:019704002242
:08B28D00EBF0A3EAF0A3E9F0E5
:0BB29500901AC0EBF0A3EAF0A3E9F070
:10B2A000E4A3F0901AC3E0FFC3940A504BEF75F08B
:10B2B0000BA42457F9741B35F0FA7B01C003C002BC
:10B2C000901AC0E0FBA3E0FAA3E0F8AC02AD03D013
:10B2D00002D0037E007F041221B2EF7013901AC3D4
:10B2E000E075F00BA42457F9741B35F0FA7B0122AA
:0EB2F000901AC3E004F080AB7B007A00790076
:01B2FE00222D
:10B21A00E4901AC0F0901AC0E0FFC3940A501FEFDE
:10B22A0075F00BA42457F582E4341BF583E070060D
:10B23A00901AC0E0803E901AC0E004F080D712C68F
:10B24A00AB7C007D0A1217C4901AC0EDF0901AC0A8
:10B25A00E0FF75F00BA42461F582E4341BF583E06A
:10B26A0030E010901AC0E004F0E075F00A84E5F0CE
:10B27A00F080DAEF75F00BA42457F9741B35F0FA55
:02B28A007B0146
:01B28C00229F
:0B8B0F00901A91EBF0A3EAF0A3E9F04C
:108B1A00E4901A95F0901663E064017003028C04E5
:108B2A0012BDF5EF7003028C04901A91E0FBA3E0EA
:108B3A00FAA3E0F97D0112C08DE4FF12C55A7F0144
:108B4A0012C55AE4901A94F0901A94E0FFC394065E
:108B5A00501774072FF582E43400F583E0FF12C53D
:108B6A005A901A94E004F080DFE4901A94F0901A74
:108B7A0094E0FFC39404501774492FF582E4341C1F
:108B8A00F583E0FF12C55A901A94E004F080DFE4FE
:108B9A00901A94F0E4FF12C55A901A94E004F0E097
:108BAA00C3940640EFE4901A94F0901A94E0FFC33D
:108BBA0094045027901A91E0FBA3E0FAA3E024045E
:108BCA00F9E43AFA7E00E92FF9EE3AFA121705FFAC
:108BDA0012C55A901A94E004F080CF901A91E0FBE3
:108BEA00A3E0FAA3E0F9E4FDFC12BE32D3EF6480FD
:0F8BFA0094804006901A957401F0901A95E0FF50
:018C09002248
:0BBCED00901A91EBF0A3EAF0A3E9F03D
:10BCF8007B017A1A79957D587C0212AB817B017A97
:10BD08001A799512B78DEF701D1286F1901A94EF7B
:10BD1800F030E5037F0122901A94E0FF60DF20E312
:08BD2800DC12929B80D77F0022
:01BD300022F0
:0EBF7D00441C5BC0A80202441C49C0A8020379
:0BC11900901A2FEBF0A3EAF0A3E9F06E
:10C1240090000E121CC8E94A7004FEFF8014901A95
:10C134002FE0FBA3E0FAA3E0F99000111218A6FF88
:02C14400AEF05B
:01C1460022D6
:09C6CE00900019E4F5F002198254
:0BA55600901A51EBF0A3EAF0A3E9F02B
:10A56100900013121CC8E94A700302A5FA901A510F
:10A57100E0FBA3E0FAA3E0F9900013121CC8C003AA
:10A58100C002C001901A51E0FBA3E0FAA3E0F990E8
:10A5910000191218A6D001D002D00329F9EA35F02A
:10A5A100FA901A54EBF0A3EAF0A3E9F0901A51E003
:10A5B100FBA3E0FAA3E0F9900016121CC8C003C087
:10A5C10002C001901A54A3E0FAA3E0F9D3D082D0DB
:10A5D10083D0E0E99582EA9583501E901A54E0FBFE
:10A5E100EF12177E901A51E0FBA3E0FAA3E0F99075
:09A5F1000019E475F001121916BD
:01A5FA00223E
:03C6E1007F0122B4
:10A88300901A59EBF0A3EAF0A3E9F0901A59E0FB10
:10A89300A3E0FAA3E0F99000111218A6FDACF0D3DF
:10A8A300EF9DEE9C40028004AC06AD07AE04AF05FD
:10A8B3009000111218A6D39400E5F09400401E9066
:10A8C3001A59E0FBA3E0FAA3E02411F9E43AFA12DF
:10A8D300187BC39FFDE5F09E8DF0121963901A5902
:10A8E300E0FBA3E0FAA3E0F99000111218A6D394B9
:10A8F30000E5F09400400A90000EA3EE8FF00219D9
:10A90300167B007A007900C003C002C001901A5977
:0FA91300E0FBA3E0FAA3E0F990000E121CF8227B
:03C6E4007F0022B2
:03C6E7007F0022AF
:03C6EA007F0022AC
:0BC6C300C2AF12C69DD2AF1297DF225B
:10AD2B00901AA274FFF090165DE06078E4901AA17F
:10AD3B00F012BA4C901AA1E004F0E0C3940640F173
:10AD4B00E4901AA1F012BA4C901AA1E0244DF582AE
:10AD5B00E4341CF583EFF0901AA1E004F0E0C39407
:10AD6B000640E212BA4C901AA0EFF012BA4C901AAD
:10AD7B00A0E0B40821EF24FA600C24067018901A96
:10AD8B00A27401F08010901663E064016008124B0E
:10AD9B0053901AA2EFF0901AA2E0D36480948050E3
:09ADAB000312929B901AA2E0FF32
:01ADB400227C
:0B79C100901A7CEBF0A3EAF0A3E9F0C1
:1079CC004A70037F852290165DE070037F9D22AE86
:1079DC0004AF05ED6003027B15EE24F86003027B17
:1079EC0015901A7CE0FBA3E0FAA3E0F990001D12BD
:1079FC00171E30E440900008740112179090000993
:107A0C00E412179090000A745E1217909000051201
:107A1C00171E547F90000B12179090000612171E21
:107A2C0090000C12179090000712171E90000D1268
:107A3C001790027AEF901A81E06003027AEF901CA3
:107A4C0057E0FFF4601EEF601BE92404F9E43AFAF6
:107A5C00901A897401F0A3741CF0A37449F0126697
:107A6C00C7EF6012901A7CE0FBA3E0FAA3E02404B9
:107A7C00F9E43AFA80067B017A1C79571296289021
:107A8C001A82EBF0A3EAF0A3E9F0901A82A3E0FAD1
:107A9C00A3E04A604BE4A3F0901A85E0FFC3940680
:107AAC005041901A82E0FBA3E0FAA3E02404F9E42D
:107ABC003AFA7E00E92FF9EE3AFA121705FD901A00
:107ACC007CE0FBA3E0FAA3E02408F9E43AFAE92FFE
:107ADC00F9EE3AFAED12177E901A85E004F080B8B0
:107AEC007FA12212BDF5EF70037F8F22901A7CE0EC
:107AFC00FBA3E0FAA3E0F9901A81E0FD12ADB57F8B
:0B7B0C000812C55AE4FF12C55A7F01A1
:017B1700224B
:10C08D00E94A602B12ADB57F0812C55A7F0612C55D
:10C09D005AE4FF12C55A7F0112C55A7F0812C55ABC
:10C0AD00E4FF12C55A7F0612C55A7F0412C55A22E3
:10C4DA00900A6DE0FBA3E0FAA3E0F9121705FF90BA
:09C4EA000A6EE475F00112184F0E
:01C4F3002226
:10BC1A00900A70E0FBA3E0FAA3E0F9EF12177E9016
:10BC2A000A71E475F00112184F900A70A3E0FAA3A2
:10BC3A00E0D39012779582EA9583400E900A707449
:10BC4A0001F0A3740EF0A37478F0901279E004F076
:09BC5A007006901278E004F0225B
:0BADB500901AB7EBF0A3EAF0A3E9F05E
:10ADC0004A6075ED6016E4A3F07FFF12C55A901A31
:10ADD000BAE004F0E0C3940640EF8036E4901ABA7B
:10ADE000F0901ABAE0FFC394065027901AB7E0FB20
:10ADF000A3E0FAA3E02408F9E43AFA7E00E92FF987
:10AE0000EE3AFA121705FF12C55A901ABAE004F08A
:10AE100080CFE4901ABAF0901ABAE0FFC3940650BB
:10AE20001774072FF582E43400F583E0FF12C55A4A
:08AE3000901ABAE004F080DF83
:01AE380022F7
:0B66C700901A86EBF0A3EAF0A3E9F0C4
:1066D20090000112171EFFE4FCFDFE7810121AFA58
:1066E200C004C005C006C007901A86E0FBA3E0FA0A
:1066F200A3E0F9121705FFE4FCFDFE7818121AFA5E
:10670200D003D002D001D000EF4BFFEE4AFEED499C
:10671200FDEC48FCC004C005C006C007901A86E024
:10672200FBA3E0FAA3E0F990000212171EFFE4FCBB
:10673200FDFE7808121AFAD003D002D001D000EF81
:106742004BFFEE4AFEED49FDEC48FCC004C005C01B
:1067520006C007901A86E0FBA3E0FAA3E0F99000D6
:106762000312171EFFD003D002D001D000EB4FFF5F
:10677200EAFEE9FDE8FC901A8C121BC3901C54E05F
:10678200FFE4FCFDFE7810121AFAC004C005C00630
:10679200C007901C53E0FFE4FCFDFE7818121AFAC1
:1067A200D003D002D001D000EF4BFFEE4AFEED49FC
:1067B200FDEC48FCC004C005C006C007901C55E0B3
:1067C200FFE4FCFDFE7808121AFAD003D002D001D1
:1067D200D000EF4BFBEE4AFAED49F9EC48F8A3E0A2
:1067E200FFEB4FFFEAFEE9FDE8FC901A90121BC393
:1067F200901A90E0FCA3E0FDA3E0FEA3E0FF901A54
:106802008CE0F8A3E0F9A3E0FAA3E05FFFEA5EFE02
:10681200E95DFDE85CFC901A94121BC3901A89E0B2
:10682200FBA3E0FAA3E0F990000112171EFFE4FCBB
:10683200FDFE7810121AFAC004C005C006C0071285
:106842001705FFE4FCFDFE7818121AFAD003D002F5
:10685200D001D000EF4BFFEE4AFEED49FDEC48FCC3
:10686200C004C005C006C007901A89E0FBA3E0FA85
:10687200A3E0F990000212171EFFE4FCFDFE780867
:10688200121AFAD003D002D001D000EF4BFFEE4A29
:10689200FEED49FDEC48FCC004C005C006C00790EF
:1068A2001A89E0FBA3E0FAA3E0F990000312171E95
:1068B200FFD003D002D001D000EB4FFFEAFEE9FD8A
:1068C200E8FC901A8C121BC3901A90E0FCA3E0FD26
:1068D200A3E0FEA3E0FF901A8CE0F8A3E0F9A3E0A6
:1068E200FAA3E05FFFEA5EFEE95DFDE85CFC901A58
:1068F20094E0F8A3E0F9A3E0FAA3E0FBC3121AD6EE
:106902007007901A9804F08005E4901A98F0901A93
:0369120098E0FF0B
:01691500225F
:1097DF0090C00BE0FE90C00AE07C002400FFEC3E3E
:1097EF00FEEF7003EE64306002803BE4FFFE12C4B4
:1097FF00F4EF640E7003EE6463600280297F207EB5
:10980F000012C4F4EF7003EE64036002801812C2FA
:10981F0024E4FDFC7F22FE12C5D07F227E0012C4FD
:10982F00F4EF540F60057EFF7F8B227F0A12C5CBAA
:10983F007F0212C5CB7D807C097F047E0112C5D0CB
:10984F00E4FDFC7F067E0112C5D0900008E0FE907B
:10985F000007E0FDEEFCED7F587E0112C5D09000B1
:10986F000AE0FE900009E0FDEEFCED7F5A7E01124A
:10987F00C5D090000CE0FE90000BE0FDEEFCED7FFC
:10988F005C7E0112C5D0E4FDFC7F187E0112C5D0AD
:10989F00E4FDFC7F167E0112C5D07DC07C007F12D7
:0A98AF007E0112C5D07E007F012269
:1057CB00901AB7EBF0A3EAF0A3E9F0A3ECF0A3ED8A
:0157DB00F0DD
:1057DC00E4901AC6F0A3F0A3F0900A6AE0FBA3E0F1
:1057EC00FAA3E0F9C003C002C001900A6DE0FBA36C
:1057FC00E0FAA3E0F9D082D083D0E06B7008E965C1
:10580C00827003EA65837003025A70900A6DA3E0FC
:10581C00FAA3E0AE02FF900A6AA3E0FAA3E0C39FEA
:10582C00FFEA9E901AC2F0A3EFF0901ABAE0FEA322
:10583C00E0FF4E6029901AB7E0FBA3E0FAA3E0F971
:10584C0090000E121CC8E94A6014901ACEEBF0A31B
:10585C00EAF0A3E9F0EF5401901AC8F0801A901AFC
:10586C00C3E030E013E4FF12C55A901AC3E004F011
:10587C007006901AC2E004F0901AC2E0FEA3E0FF9A
:10588C00901ABBE02FFF901ABAE03EFE901AC4F0BB
:10589C00A3EFF0D394EEEE94054002806290C00426
:1058AC0074C0F0A3E4F0901AC4E0FEA3E090C0062C
:1058BC00F0EEA3F07B017A1A79C97D057C0012AB5E
:1058CC00817B017A1A79C912B78DEF70187F387EF7
:1058DC000112C4F4EE30E0E9901AC4E0FFA3E0A397
:1058EC00CFF0A3EFF0901AC6E07002A3E070057E33
:1058FC00FF7F8F227F387E0112C4F4EF30E7057EE4
:10590C00FF7F8C22E4901ABCF0A3F0901AC2E0FE48
:10591C00A3E0FFC3901ABDE09F901ABCE09E5048D4
:10592C00900A6DE0FBA3E0FAA3E0F912170590C012
:10593C0000F0900A6EE475F00112184F900A6DE0B9
:10594C00FBA3E0FAA3E0F912170590C001F0900A4E
:10595C006EE475F00112184F901ABDE02402F0901D
:10596C001ABCE03400F080A3901AC8E0600E901AC4
:10597C00BBE024FFF0901ABAE034FFF0E4901ABCBC
:10598C00F0A3F0901ABAE0FEA3E0FFC3901ABDE0BA
:10599C009F901ABCE09E503E901ACEE0FBA3E4759B
:1059AC00F001121865A9F0FA12170590C000F090DA
:1059BC001ACEE0FBA3E475F001121865A9F0FA12F7
:1059CC00170590C001F0901ABDE02402F0901ABCAB
:1059DC00E03400F080AD901AC8E06015901ACEE06B
:1059EC00FBA3E0FAA3E0F912170590C000F0A3E4C2
:1059FC00F0901ABE121BCF000000007F407E0D7D80
:105A0C00037C00901ABEE0F8A3E0F9A3E0FAA3E04F
:105A1C00FBC3121AD6504D7F287E0112C4F4901A83
:105A2C00BCEEF0A3EFF0EE5486FEEF54C04E600CCB
:105A3C00901AC674FFF0A3748CF08028901ABCE006
:105A4C0020E021901ABEE0FCA3E0FDA3E0FEA3E061
:105A5C002401FFE43EFEE43DFDE43CFC901ABE1242
:0C5A6C001BC38097901AC6E0FEA3E0FF69
:015A7800220B
:106D6800E4901AA9F0A3F07F247E0112C4F4EE2067
:106D7800E03B7B017A1A79A47D057C0012AB817B0C
:106D8800017A1A79A412B78DEF70137F247E01124D
:106D9800C4F4EE30E0E9901AA9E4F0A304F0901AE4
:106DA800A9E07002A3E070057EFF7F872290C001F2
:106DB800E0FE90C000E07C002400FFEC3E901AA0AA
:106DC800F0A3EFF0901AA0E0FEA3E0FF12C6EE9049
:106DD800C001E0FE90C000E07C002400FFEC3E9083
:106DE8001AA2F0A3EFF0901AA2E0FCA3E0FD540170
:106DF800901AABF0901278E0FEA3E0FFC374FE9FF8
:106E0800FF74039EFED3ED9FEC9E4003026F3B9000
:106E18001AA2E0FEA3E0FF901AA9EEF0A3EFF0EEAD
:106E2800FF12BC1A901AA2A3E0FF12BC1A901AAB68
:106E3800E0600E901AA3E024FFF0901AA2E034FF5D
:106E4800F0E4FFFED3901AA3E09F901AA2E09E50B0
:106E580003026EEA90C000E0FD900A70E0FBA3E038
:106E6800FAA3E0F9ED12177E900A70A3E475F00119
:106E780012184FFAD3901277E5F09582EA9583407D
:106E88000E900A707401F0A3740EF0A37478F09059
:106E9800C001E0FD900A70E0FBA3E0FAA3E0F9ED81
:106EA80012177E900A70A3E475F00112184FFAD3F6
:106EB800901277E5F09582EA9583400E900A7074F7
:106EC80001F0A3740EF0A37478F0901279E0240214
:106ED800F0901278E03400F074022FFFE43EFE02D6
:106EE8006E4C901AABE0606090C000E0FF900A70B2
:106EF800E0FBA3E0FAA3E0F9EF12177E900A70A373
:106F0800E475F00112184FFAD3901277E5F09582E4
:106F1800EA9583400E900A707401F0A3740EF0A3F2
:106F28007478F0901279E004F07006901278E0041A
:106F3800F080157D407C007F027E0112C5D0901A3A
:106F4800A974FFF0A3748DF0901AA9E0FEA3E0FFE6
:016F58002216
:10C4F400EF90C00AF0EEA3F090C00DE0FE90C00CE7
:0AC50400E07C002400FFEC3EFE2264
:05C5CB00E4FDFC7E010F
:0FC5D000EF90C00AF0EEA3F0EDA3F0ECA3F02281
:10C224007D407C007F147E0112C5D07F021E12C5A2
:10C234000E7F017E0012C50E7F147E0112C4F47FAE
:0BC24400367E0112C4F4EF30E7E72261
:01C6EE002229
:10C5DF007F347E0112C4F4EF30E7057E007F012225
:03C5EF00E4FEFF68
:01C5F2002226
:106B6400901A6BEFF0A3ECF0A3EDF0A3EAF0A3EB23
:016B7400F030
:106B7500901A72E0FBA3E0FAA3E0F9900001121766
:106B85001EFD121705FEEDFFE4FCFD901A78121BA1
:106B9500C3901A78E0F8A3E0F9A3E0FAA3E0FBC0FC
:106BA50000C001C002C003901A72E0FBA3E0FAA383
:106BB500E0F990000212171EFE90000312171EFD49
:106BC500EDFFE4FCFDD003D002D001D000EB2FFF98
:106BD500EA3EFEED39FDEC38FC901A78121BC390A5
:106BE5001A78E0F8A3E0F9A3E0FAA3E0FBC000C03F
:106BF50001C002C003901A75E0FBA3E0FAA3E0F917
:106C050090000112171EFD121705FEEDFFE4FCFDB5
:106C1500D003D002D001D000EB2FFFEA3EFEED39C4
:106C2500FDEC38FC901A78121BC3901A78E0F8A393
:106C3500E0F9A3E0FAA3E0FBC000C001C002C00375
:106C4500901A75E0FBA3E0FAA3E0F9900002121791
:106C55001EFE90000312171EFDEDFFE4FCFDD003A0
:106C6500D002D001D000EB2FFFEA3EFEED39FDEC5E
:106C750038FC901A78121BC3901A78E0F8A3E0F953
:106C8500A3E0FAA3E0FB901A6BE0FFE4FCFDFEEB4A
:106C95002FFFEE3AFEED39FDEC38FC901A78121B09
:106CA500C3901A78E0F8A3E0F9A3E0FAA3E0FB901B
:106CB5001A6CE0FEA3E0FFE4FCFDEB2FFFEA3EFECD
:106CC500ED39FDEC38FC901A78121BC3901A78E068
:106CD500F8A3E0F9A3E0FAA3E0FB901A6EE0FEA3A7
:106CE500E0FFE4FCFDEB2FFFEA3EFEED39FDEC385D
:106CF500FC901A78121BC3901A78E0F8A3E0F9A368
:106D0500E0FAA3E0FB901A70E0FEA3E0FFE4FCFDCF
:106D1500EB2FFFEA3EFEED39FDEC38FC901A7812B8
:106D25001BC3901A6BE0B4112B901A78E0F8A3E01E
:106D3500F9A3E0FAA3E0FB901A6CE0FEA3E0FFE400
:106D4500FCFDEB2FFFEA3EFEED39FDEC38FC901A19
:106D550078121BC3901A78E0FCA3E0FDA3E0FEA324
:026D6500E0FF4D
:016D67002209
:1085E300901A6B121BC3901A6FEBF0A3EAF0A3E986
:0185F300F097
:1085F400A3E07002A3E070030286E2901A72E0FC2A
:10860400A3E0FD5401901A76F0ECC313FFED139030
:108614001A72CFF0A3EFF0901A7274FFF5F01218EB
:108624006545F06068901A6FE0FBA3E475F00112F1
:108634001865A9F0FA121705901A74F0A3E4F090E3
:108644001A6FE0FBA3E475F001121865A9F0FA12A1
:108654001705FF901A75E02FF0901A74E03400F0BB
:10866400901A6BE0F8A3E0F9A3E0FAA3E0FB901AF8
:1086740074E0FEA3E0FFE4FCFDEB2FFFEA3EFEED19
:1086840039FDEC38FC901A6B121BC3808A901A7661
:10869400E0604B901A6FE0FBA3E0FAA3E0F9121735
:1086A400057F00FE901A74F0A3EFF0901A74EEF0B8
:1086B400A3EFF0901A6BE0F8A3E0F9A3E0FAA3E0CB
:1086C400FB901A74E0FEA3E0FFE4FCFDEB2FFFEA4D
:1086D4003EFEED39FDEC38FC901A6B121BC3901A68
:0C86E4006BE0FCA3E0FDA3E0FEA3E0FFC0
:0186F0002267
:10B370008052901AC9E0FCA3E0FDA3E0FEA3E0FF29
:10B380007810121AE7EC4D4E4F6041901AC9A3A3F2
:10B39000E0FEA3E0FFE4FDFCC004C005C006C0075A
:10B3A000901AC9E0FCA3E0FDA3A3E07810121AE70D
:10B3B000D003D002D001D000EF2BFFEE3AFEED39E2
:10B3C000FDEC38FC901AC9121BC380A6901AC9E084
:10B3D000FCA3E0FDA3E0FEA3E0FF121AA5E4FDFC40
:01B3E000224A
:10AB8100901AD1EBF0A3EAF0A3E9F0A3ECF0A3ED66
:10AB9100F012C6AB901AD1E0FBA3E0FAA3E0F9EE04
:10ABA1008FF0121963901AD1E0FBA3E0FAA3E0F948
:10ABB10012187BFF901AD5E02FFF901AD4E035F0E0
:10ABC1009000028FF01219829000021218A6FFAEB7
:10ABD100F012187BFDACF0D39FEC9E901AD1E0FBF4
:10ABE100A3E0FAA3E0F95006900004E48020C3E456
:10ABF1009DFFE49CFEC3901AD5E09FFF901AD4E01C
:10AC01009E9000028FF012198290000474011217B5
:02AC110090228F
:0BB78D00901AD1EBF0A3EAF0A3E9F062
:10B7980012C6AB901AD1E0FBA3E0FAA3E0F990003F
:10B7A8000412171E601E12187BFDC3EF9DEE95F064
:10B7B80050309000021218A6FDD3EF9DEE95F04090
:10B7C800217F01229000021218A6FDD3EF9DEE956D
:10B7D800F0500C12187BFDC3EF9DEE95F050037FDF
:04B7E80001227F00BB
:01B7EC00223A
:0CC6AB00C2AF900A76E0FEA3E0FFD2AF21
:01C6B7002260
:10C50E007B017A1A7923AD07AC0612AB817B017AD7
:09C51E001A792312B78DEF60F4C5
:01C5270022F1
:10C55A00900A6AE0FBA3E0FAA3E0F9EF12177E90D3
:09C56A000A6BE475F00102184FA0
:10BA4C00900A73E0FBA3E0FAA3E0F9121705FFC21A
:10BA5C00AF901279E024FFF0901278E034FFF0D22E
:10BA6C00AF900A74E475F00112184F900A73A3E0BA
:10BA7C00FAA3E0D39012779582EA9583400E900A50
:0EBA8C00737401F0A3740EF0A37478F07E00C2
:01BA9A002289
:1090C800901AC9EBF0A3EAF0A3E9F0901AC9A3E05B
:1090D800FAA3E04A70030291B2901AC9E0FBA3A375
:1090E800E0F9900020743C121790900026740275E5
:1090F800F00012198212C6ABE4FCFDC004C005C022
:1091080006C007901AC9E0FBA3E0FAA3E0F99000B3
:109118001C12171EFFE4FE7810121AFAD003D002B0
:10912800D001D000EF2BFFEE3AFEED39FDEC38FC14
:10913800EF2401FFE43EFEE43DFDE43CFC901AC947
:10914800E0FBA3E0FAA3E0F9900034121B5790006B
:109158001FE4121790900022E4121790900021E467
:10916800121790900024E4F5F0121982900023E47D
:10917800121790900028121C000000000090002C8C
:10918800121C0000000000900030121C00000000BB
:1091980000900038E4F5F012198290003AE4F5F0F6
:0B91A80012198290003CE41217902284
:0E8A13009019F2EFF0A3EBF0A3EAF0A3E9F064
:108A21004A60239019F3E0FBA3E0FAA3E0F9900078
:108A31001C12171E75F03DA42499F582E5F034123D
:108A4100F583E020E0037F86229019F2E014600EA6
:108A51001460432402705590001F7401803390000C
:108A61001F74021217907D02129FECD3EF64809461
:108A710080400F7B017A1979F67DA07C8C12AB8145
:108A8100802D9019F3E0FBA3E0FAA3E0F990001F19
:108A9100E412179080199019F3E0FBA3E0FAA3E028
:108AA100F990001F74011217907F01227F0022901C
:108AB10019F3E0FBA3E0FAA3E0F990001F12171EDF
:108AC100FF64046036EF60339019F2E0B4011C7B5F
:108AD100017A1979F612B78DEF60109019F3E0FB66
:108AE100A3E0FAA3E0F912B6CC80109019F3E0FBF1
:108AF100A3E0FAA3E0F912B7ED80B49019F3E0FB1B
:0D8B0100A3E0FAA3E0F990001F12171EFF79
:018B0E002244
:0B22CE00901A39EBF0A3EAF0A3E9F04E
:1022D900901A537401F0A3741AF0A37440F0901A81
:1022E90039E0F9A3E0FAA3E0901A56C9F0A3EAF09D
:1022F900A3E9F07B017A1A7942123671EF7008125C
:10230900929B7EFF7FFD22901A39E0FBA3E0FAA39E
:10231900E0F9121C59901A46EBF0A3EAF0A3E9F090
:1023290090001F12171EB40A0040030226139023BF
:102339003EF828287302235C0223B10224B3022445
:102349002202262F0225480225B902261302261346
:102359000225F912929B901A46E0FBA3E0FAA3E04A
:10236900F990002112171E20E23B12C000901A4674
:10237900E0FBA3E0FAA3E0F990001D12171EB44098
:102389002490001C12171EFF12A4087B007A007902
:1023990000C003C002C001901A39E0FBA3E0FAA310
:1023A900E0F9121C7902260E12929B901A46E0FB64
:1023B900A3E0FAA3E0F990002112171EFF30E2030F
:1023C90002268C30E41212C000901A4FEFF0D36449
:1023D900809480404102296E901A46E0FBA3E0FAFE
:1023E900A3E0F990002C121B0D900028121B577DB9
:1023F90012129FEC901A4FEFF0D36480948040162C
:10240900901A46E0FBA3E0FAA3E0F990001F7403D9
:1024190012179002268C022AAD901A46E0FBA3E01F
:10242900FAA3E0F990002112171EFF30E4075406C1
:10243900700302262F12929B901A46E0FBA3E0FA42
:10244900A3E0F990002112171E30E2181290C890EB
:102459001A46E0FBA3E0FAA3E0F990001F74011209
:1024690017908043901A46E0FBA3E0FAA3E0F990A5
:10247900002112171E30E12C900028121B0DEF24A9
:10248900FFFFEE34FFFEED34FFFDEC34FFFC90005E
:102499002C121B93C3121AD6700A901A467D121277
:1024A9009FE4800312BFF502268C12929B901A4674
:1024B900E0FBA3E0FAA3E0F990002112171E30E235
:1024C900030226B1901A46E0FBA3E0FAA3E0F990D3
:1024D900002112171EFF30E40320E12512C00090ED
:1024E9001A4FEFF0D3648094804013901A46E0FBB2
:1024F900A3E0FAA3E0F9900020743C0225B3022A74
:10250900AD901A46E0FBA3E0FAA3E0F990001F742E
:102519000412179012B9511298B9901A4FEFF0D3CB
:10252900648094804016901A46E0FBA3E0FAA3E089
:10253900F9900020743C12179002298D022AAD12DD
:10254900929B901A46E0FBA3E0FAA3E0F9900022DF
:1025590012171E30E0447D1112C151D3EF648094EB
:10256900804037901A46E0FBA3E0FAA3E02438F94B
:10257900E43AFA7D327C0012AB81901A46E0FBA363
:10258900E0FAA3E0F912B9511298B9901A4FEFF095
:10259900D3648094805003022AB0901A46E0FBA3CA
:1025A900E0FAA3E0F990001F74061217900227635E
:1025B900901A46E0FBA3E0FAA3E0F9900022121773
:1025C9001E30E00312B95112929B1298B9901A4F1A
:1025D900EFF0D3648094804014901A46E0FBA3E0A6
:1025E900FAA3E0F990001FE41217908018022AADAF
:1025F900901A46E0FBA3E0FAA3E0F990001FE41269
:10260900179012929B7EFF7FFA22901A46E0FBA355
:10261900E0FAA3E0F990001F12171ED3940A4006AE
:1026290012B6CC022AA8901A46E0FBA3E0FAA3E06E
:10263900F9900028121B0D901A4B121BC390002C05
:10264900121B0D901A4BE0F8A3E0F9A3E0FAA3E0FE
:10265900FBC3121AD6602F129DA412929B901A46A0
:10266900E0FBA3E0FAA3E0F990002112171E20E293
:10267900121298C4901A4FEFF0D3648094805003DB
:10268900022AB0022763901A46E0FBA3E0FAA3E00E
:10269900F990002112171E30E23512929B901A46CA
:1026A900E0FBA3E0FAA3E0F990001C12171EFF1249
:1026B900A4087B007A007900C003C002C001901A07
:1026C90039E0FBA3E0FAA3E0F9121C79022AA890E9
:1026D9001A46E0FBA3E0FAA3E0F990002112171EC5
:1026E90030E11712929B12BFF5901A4FEFF0D364A5
:1026F90080948040028063022AAD901A46E0FBA3D1
:10270900E0FAA3E0F990002112171E20E4061292C4
:102719009B022A74901A46E0FBA3E0FAA3E0F99021
:10272900001F12171E64046008900020743C1217E1
:102739009090001F7404121790D3901BC8E0940066
:10274900901BC7E09402401812929B1298B9901AF4
:102759004FEFF0D3648094804003022A74022AADBB
:10276900E4901A49F0A3F0901A42E0F8A3E0F9A323
:10277900E0FAA3E0FBC000C001C002C003A3E0FB74
:10278900A3E0FAA3E0F990002312171EFF901BC8DB
:10279900E02FFD901BC7E03400FC12187BFBAAF068
:1027A900C002C003901A46E0FBA3E0FA90000212AF
:1027B90018A6FF901A70E5F0F0A3EFF0A37401F0EA
:1027C900A3741CF0A37449F0901A46A3A3E024044F
:1027D900F9E43AFA901A75EBF0A3EAF0A3E9F0D01C
:1027E90003D0027F06126B64D003D002D001D0005F
:1027F900EB2FFFEA3EFEE93DFDE83CFC901A421250
:102809001BC3901BC7E0FEA3E0FF901A3EEEF0A3A6
:10281900EFF04E70030228EBE4901A3DF0A3E0FEBE
:10282900A3E0FF901A46E0FBA3E0FAA3E0F912C681
:10283900CE12BA4C901A3CEFF0A3E0901A3C700FFC
:10284900E0901A49F0A3E4F0901A3D04F0803FE0CB
:10285900FF901A4AE02FF0901A49E03400F0901ADC
:1028690042E0F8A3E0F9A3E0FAA3E0FB901A49E0FB
:10287900FEA3E0FFE4FCFDEB2FFFEA3EFEED39FD90
:10288900EC38FC901A42121BC3E4901A3DF0901ADE
:102899003CE0FF901A46E0FBA3E0FAA3E0F912A599
:1028A90056901BC774FFF5F012184F45F0708290CF
:1028B9001A3DE06041901A42E0F8A3E0F9A3E0FA7A
:1028C900A3E0FB901A49E0FEA3E0FFE4FCFDEB2F37
:1028D900FFEA3EFEED39FDEC38FC901A42121BC3AB
:1028E9008014901A46E0FBA3E0FAA3E0F9900019DE
:1028F900E4F5F0121982901A42E0FCA3E0FDA3E08E
:10290900FEA3E0FF12B370901A42121BC3901A4043
:10291900E0FEA3E0FFE4FCFDA3E0F8A3E0F9A3E0F7
:10292900FAA3E0FBC3121AD6600812929B7EFF7FBE
:10293900FC22129DA4901A3EE07002A3E0702812B6
:10294900929B901A46E0FBA3E0FAA3E0F990002CD1
:10295900121B0D900028121B5790002212171E30CF
:10296900E003022A0E801D901A46E0FBA3E0FAA3B9
:10297900E0F912C6E1901A4FEFF012929B901A4FAC
:10298900E0B4A204E4FEFF22901A46E0FBA3E0FAB9
:10299900A3E0F990002C121B93901A3EE0FEA3E0ED
:1029A900FFEF2BFFEE3AFEE439FDE438FC901A46BE
:1029B900E0FBA3E0FAA3E0F9900028121B5790006E
:1029C9002212171E20E03E901A46E0FBA3E0FAA36C
:1029D900E0F990001D12171EFF30E00A9000111255
:1029E90018A645F06004EF20E0121298C4901A4F1F
:1029F900EFF0D3648094805003022AB0901A3EE02D
:102A0900FEA3E0FF22901A46E0FBA3E0FAA3E0F957
:102A1900900028121B0DEF2401FFE43EFEE43DFD6A
:102A2900E43CFC900028121B571298C4901A4FEFEF
:102A3900F0D364809480406C901A46E0FBA3E0FADE
:102A4900A3E0F990001F7409121790E92438F9E4FA
:102A59003AFA7D327C0012AB81901A4612C1479036
:102A69001A4FEFF0D36480948040057EFF7F89225E
:102A7900901A46E0FBA3E0FAA3E0F990001C1217B4
:102A89001EFF12A4087B007A007900C003C002C0AF
:102A990001901A39E0FBA3E0FAA3E0F9121C797E50
:0D2AA900FF7FFF22901A4FE0FF3395E0FE03
:012AB60022FD
:0B9DA400901A46E0FBA3E0FAA3E0F9F0
:0B9DAF00901A50EBF0A3EAF0A3E9F0DB
:109DBA009000241218A6FF901A53E5F0F0A3EFF0D2
:109DCA00900034121B0D901A55121BC3901A53E0BF
:109DDA007002A3E07003029E65901A50E0FBA3E0B4
:109DEA00FAA3E0F9900030121B93C000C001C00230
:109DFA00901A53E0FEA3E0FFE4FCFDA3E0F8A3E021
:109E0A00F9A3E0FAA3E02FFFEA3EFEED39FDEC38B4
:109E1A00FCD002D001D000C3121AD6703E901A5359
:109E2A00E0FEA3E0FF901A50E0FBA3E0FAA3E0F9FA
:109E3A0012A883901A50E0FBA3E0FAA3E0F990007D
:109E4A0024E4F5F0121982900020743C12179090C5
:0B9E5A000030121B0D900034121B574B
:019E650022DA
:0B6F5900901A01EBF0A3EAF0A3E9F0AE
:106F64004A70057EFF7F8522901A01E0FBA3E0FAB8
:106F7400A3E0F990001F12171EFDC3940250057E72
:106F8400FF7FFA2290002012171E6006EDD3940AA8
:106F9400400812B6CC7EFF7FFF22901A01E0FBA3CB
:106FA400E0FAA3E0F990001F12171E64027027E9AB
:106FB4002438F9E43AFA12B78DEF6017901A017D7C
:106FC40002129FE4901A06EFF0D364809480500379
:106FD40002710C027058901A01E0FBA3E0FAA3E0DE
:106FE400F99000241218A645F06029E92438F9E440
:106FF4003AFA12B78DEF7003FEFF22901A01E0FBFC
:10700400A3E0FAA3E02438F9E43AFA7D327C0012D2
:10701400AB818044901A01E0FBA3E0FAA3E0F9906D
:10702400001F12171EC39405402EE92438F9E43AD0
:10703400FA12B78DEF6021901A01E0FBA3E0FAA3E6
:10704400E02438F9E43AFA7D327C0012AB81901ADC
:107054000112C147E4FEFF22901A01E0FBA3E0FA0B
:10706400A3E0F912C119901A04EEF0A3EFF0901AFC
:1070740001E0FBA3E0FAA3E0F9900024EE8FF01204
:107084001982EF4E7003FEFF229000261218A6FF0D
:10709400AEF0D3901A05E09F901A04E09E4005EEEE
:1070A400F0A3EFF0D3901A05E09400901A04E09452
:1070B4000240067402F0A3E4F09000241218A6FF24
:1070C400901A04E065F07003A3E06F60057EFF7F13
:1070D400FE229000217418121790123B8B901A060E
:1070E400EFF0640160028020901A01E0FBA3E0FA53
:1070F400A3E0F9A3E0FCA3E0FD12BE32901A06EF70
:10710400F0D3648094805007E0FF3395E0FE229032
:107114001A01E0FBA3E0FAA3E02438F9E43AFA7D8B
:10712400327C0012AB81901A01E0FBA3E0FAA3E0E9
:0A713400F99000241218A6FFAEF037
:01713E00222E
:10B6CC00901ABBEBF0A3EAF0A3E9F0901ABBA3E04D
:10B6DC00FAA3E04A604A901ABBE0FBA3A3E0F990FE
:10B6EC00001FE41217907B007A007900C003C0029F
:10B6FC00C001901ABBE0FBA3E0FAA3E0F990000EA6
:10B70C00121CF8901ABBE0FBA3E0FAA3E0F990003E
:10B71C0011E4F5F0121982900024E4F5F01219826C
:01B72C0022FA
:10A7E300901CA5EBF0A3EAF0A3E9F0901CA5A3E06D
:10A7F300FAA3E04A700302A882901CA5E0FBA3A37E
:10A80300E0F9900024E4F5F01219827B007A0079D4
:10A8130000C003C002C001901CA5E0FBA3E0FAA3A3
:10A82300E0F990000E121CF8901CA5E0FBA3E0FADF
:10A83300A3E0F9900011E4F5F012198290001F12C1
:10A84300171EFF64036009EF64046004EFB4072F6D
:10A85300901CA5E0FBA3E0FAA3E02438F9E43AFA5C
:10A863007D327C0012AB81901CA5E0FBA3E0FAA330
:10A87300E0F990001F74051217907D1112C1512247
:10BDB600901CA8EBF0A3EAF0A3E9F0901CA8E0FB26
:10BDC600A3E0FAA3E0F94A602512A7E3901CA8E0D5
:10BDD600FBA3E0FAA3E0F990001F12171EFFD3940D
:0FBDE60000400BEFD3940A500512B7ED80DE2218
:0BB7ED009019FBEBF0A3EAF0A3E9F0D9
:10B7F800E49019FFF0A3F012C0EB9019FEEFF030BF
:10B80800E0137B017A1979FB1222CE9019FFEEF032
:10B81800A3EFF080109019FEE030E1097B017A195E
:10B8280079FB02478D9019FFE0F47004A3E0648966
:10B8380060119019FBE0FBA3E0FAA3E0F94A60036A
:03B84800126F5923
:01B84B0022DA
:0B367100901A50EBF0A3EAF0A3E9F080
:10367C00E4901A6EF012BA4CEF901A5BF0A3E4F0DF
:10368C0012BA4C901A5CE02FF0901A5BE03EF012EC
:10369C00BA4CEF901A59F0A3E4F012BA4C901A5AA3
:1036AC00E02FF0901A59E03EF012BA4C901A62EFEB
:1036BC00F012BA4C901A63EFF012BA4C901A64EFF5
:1036CC00F012BA4C901A65EFF012BA4C901A66EFE1
:1036DC00F012BA4C901A67EFF012BA4C901A68EFCD
:1036EC00F012BA4C901A69EFF0901A62E0FEA3E067
:1036FC00FFE4FCFD901A6F121BC3901A6FE0F8A345
:10370C00E0F9A3E0FAA3E0FB901A64E0FEA3E0FF6B
:10371C00E4FCFDEB2FFFEA3EFEED39FDEC38FC90AE
:10372C001A6F121BC3901A6FE0F8A3E0F9A3E0FA2A
:10373C00A3E0FB901A66E0FEA3E0FFE4FCFDEB2F98
:10374C00FFEA3EFEED39FDEC38FC901A6F121BC3FC
:10375C00901A6FE0F8A3E0F9A3E0FAA3E0FB901A4B
:10376C0068E0FEA3E0FFE4FCFDEB2FFFEA3EFEED7C
:10377C0039FDEC38FC901A6F121BC312BA4C901A1C
:10378C0061EFF012BA4C901A60EFF0901A6FE0F8FB
:10379C00A3E0F9A3E0FAA3E0FB901A61E0FE901A13
:1037AC0060E0FDEDFFE4FCFDEB2FFFEA3EFEED39A2
:1037BC00FDEC38FC901A6F121BC3901A61E054F0A8
:1037CC00F0E01313543FFFF0C3901BC8E09F901B15
:1037DC00C7E094004008901A61E094125003023A3A
:1037EC000C901A61E0FFC3901BC8E09FF0901BC7C0
:1037FC00E09400F012BA4CEF901A5DF0A3E4F012D2
:10380C00BA4C901A5EE02FF0901A5DE03EF0901AE0
:10381C006FE0F8A3E0F9A3E0FAA3E0FB901A5DE0F7
:10382C00FEA3E0FFE4FCFDEB2FFFEA3EFEED39FDCD
:10383C00EC38FC901A6F121BC312BA4CEFF9901AA9
:10384C0053E0FBA3E0FAA3E0C975F0001219631270
:10385C00BA4C901A53E0FBA3E0FAA3E0F9EE8FF018
:10386C001218DE901A61E0C39412901A5FF0901A4D
:10387C006FE0F8A3E0F9A3E0FAA3E0FBC000C001FD
:10388C00C002C00312BA4CEFFEE4FCFDD003D00220
:10389C00D001D0002BFFEA3EFEED39FDEC38FC9058
:1038AC001A6F121BC3901A6FE0F8A3E0F9A3E0FAA9
:1038BC00A3E0FBC000C001C002C00312BA4CE4FC80
:1038CC00FDD003D002D001D000EB2FFFEA3EFEED7D
:1038DC0039FDEC38FC901A6F121BC3901A5FE02470
:1038EC00FEF0E07089901A6FE0FCA3E0FDA3E0FE0F
:1038FC00A3E0FF901A50E0FBA3E0FAA3E0F9121B3F
:10390C003D901A59E0FEA3E0FFA3E0FCA3E0FD7B91
:10391C00017A1C7925901AD07406F0128023901A23
:10392C006AEBF0A3EAF0A3E9F04A6003023AB49020
:10393C001A59E0FEA3E0FF7B017A1C7925901AD07E
:10394C007406F0E4FDFC128023901A6AEBF0A3EAF3
:10395C00F0A3E9F04A7025901A59E0FEA3E0FF7B32
:10396C00017A1B79D0901AD07406F0E4FDFC128019
:10397C0023901A6AEBF0A3EAF0A3E9F0901A6AE03C
:10398C00FBA3E0FAA3E0F94A6020901A60E030E172
:10399C0019901A5BE0FFA3E0900002CF8FF0121990
:1039AC0082901A6E7401F0023AB4901A60E030E220
:1039BC0002804D901A59E0FEA3E0FF12C1A2901AAA
:1039CC006DEFF0901A59E0FCA3E0FDA3E0FFA3E03B
:1039DC00901ABCCFF0A3EFF0A37406F0901A6DE030
:1039EC00901ABFF0A3E4F0A3F0A3F0A3F0A3F07B34
:1039FC00017A1C7925124EB3C3EF64809480501D5C
:103A0C007B007A007900C003C002C001901A56E016
:103A1C00FBA3E0FAA3E0F9121C797F0022EF3395A7
:103A2C00E0FE7C007D3D1217B2747B2FF974123EC0
:103A3C00FA7B01901A6AEBF0A3EAF0A3E9F090008C
:103A4C001FE4121790901BC7E0FEA3E0FF4E601B13
:103A5C00E4FD901A62E0F8A3E0F9A3E0FAA3E02FEA
:103A6C00FFEA3EFEED39FDEC388018901A62E0FC5E
:103A7C00A3E0FDA3E0FEA3E02401FFE43EFEE43D51
:103A8C00FDE43CFC901A6AE0FBA3E0FAA3E0F99099
:103A9C000028121B57901A6AE0FBA3E0FAA3E0F986
:103AAC0090001D7440121790901A6AE0FBA3E0FA84
:103ABC00A3E0F9C003C002C001901A56E0FBA3E0DA
:103ACC00FAA3E0F9121C79901A60E0FF901A6AE0F0
:103ADC00FBA3E0FAA3E0F9900022EF1217909000FC
:103AEC0021EF121790901A5DE0FFA3E0900026CF13
:103AFC008FF0121982901A61E090002312179090A7
:103B0C001A62E0FCA3E0FDA3E0FEA3E0FF90002C12
:103B1C00121B57901A66E0FCA3E0FDA3E0FEA3E0A5
:103B2C00FF900030121B57901A6EE0B40113901ADC
:103B3C006AE0FBA3E0FAA3E0F990001F74011217EE
:103B4C0090901A6AE0FBA3E0FAA3E0F9900004124B
:103B5C00171E7028901C25E0900004121790901CE2
:103B6C0026E0900005121790901C27E0900006129A
:0E3B7C001790901C28E09000071217907F0110
:013B8A002218
:0B3B8B00901A5DEBF0A3EAF0A3E9F054
:103B960090002112171EFF901A6AF0900024121846
:103BA600A6FD901A68E5F0F0A3EDF0EF30E13DE0F8
:103BB6002418F0901A68E03400F0901A677460F0E8
:103BC600901A61121BCF00000204901A61E0FCA358
:103BD600E0FDA3E0FEA3E02400FFEE3402FEE43D98
:103BE600FDE43CFC901A61121BC3801E901A69E02A
:103BF6002414F0901A68E03400F0901A677450F0BC
:103C0600901A61121BCF00000000901A61E0F8A321
:103C1600E0F9A3E0FAA3E0FBC000C001C002C003C4
:103C2600901A68E0FCA3E0FD901A5DE0FBA3E0FAC1
:103C3600A3E0F912187BFBAAF0C002C003901A5D3C
:103C4600E0FBA3E0FA9000021218A6FF901A70E5B6
:103C5600F0F0A3EFF0A37401F0A3741CF0A3744971
:103C6600F0901A5DA3A3E02404F9E43AFA901A75D9
:103C7600EBF0A3EAF0A3E9F0D003D0027F06126BC3
:103C860064D003D002D001D000EB2FFFEA3EFEE95C
:103C96003DFDE83CFC901A61121BC3901A61E0F8E6
:103CA600A3E0F9A3E0FAA3E0FBC000C001C002C094
:103CB60003901A5DE0FBA3E0FAA3E0F9900034124A
:103CC60018A6FFE4FCFDD003D002D001D000EB2FF4
:103CD600FFEA35F0FEED39FDEC38FC901A61121B57
:103CE600C3901A61E0F8A3E0F9A3E0FAA3E0FBC0F1
:103CF60000C001C002C003901A5DE0FBA3E0FAA376
:103D0600E0F99000361218A6FFE4FCFDD003D002BD
:103D1600D001D000EB2FFFEA35F0FEED39FDEC388F
:103D2600FC901A61121BC3901A61E0F8A3E0F9A394
:103D3600E0FAA3E0FBC000C001C002C003901A5D18
:103D4600E0FBA3E0FAA3E0F99000281218A6FFE42E
:103D5600FCFDD003D002D001D000EB2FFFEA35F0F6
:103D6600FEED39FDEC38FC901A61121BC3901A6106
:103D7600E0F8A3E0F9A3E0FAA3E0FBC000C001C0AD
:103D860002C003901A5DE0FBA3E0FAA3E0F99000FD
:103D96002A1218A6FFE4FCFDD003D002D001D00001
:103DA600EB2FFFEA35F0FEED39FDEC38FC901A6199
:103DB600121BC3901A61E0F8A3E0F9A3E0FAA3E0AE
:103DC600FB901A67E0FE901A6AE0FDEDFFE4FCFD49
:103DD600EB2FFFEA3EFEED39FDEC38FC901A61123E
:103DE6001BC3901A61E0FCA3E0FDA3E0FEA3E02460
:103DF60000FFEE3402FEE43DFDE43CFC901A611245
:103E06001BC3901A61E0FCA3E0FDA3E0FEA3E0FF64
:103E1600901A5DE0FBA3E0FAA3E0F990000E121CF5
:103E2600C8C003C002C001901A5DE0FBA3E0FAA37C
:103E3600E0F99000241218A6FB901A72E5F0F0A3A0
:103E4600EBF0D001D002D0031285E3901A61121B69
:103E5600C3901A61E0FCA3E0FDA3E0FEA3E0FF121D
:103E6600B370901A61121BC3901A61A3A3E0FFA35B
:103E7600E0A3CFF0A3EFF0901A5DE0FBA3E0FAA376
:103E8600E0F990001B12171EFD901A68E0FFA3E0F0
:103E9600901A6FCFF0A3EFF0901A5DA3A3E012691A
:103EA60016EF6401600122901A5DE0FBA3E0FAA31D
:103EB600E0F912187BE5F0FF12C55A901A5DE0FB97
:103EC600A3E0FAA3E0F912187BFF12C55A901A5D17
:103ED600E0FBA3E0FAA3E0F99000021218A6E5F0D1
:103EE600FF12C55A901A5DE0FBA3E0FAA3E0F99031
:103EF60000021218A6FF12C55AE4901A60F0901A32
:103F060060E0FFC364809484502A901A5DE0FBA3AE
:103F1600E0FAA3E02434F9E43AFAEF3395E0FEE957
:103F26002FF9EA3EFA121705FF12C55A901A60E0F9
:103F360004F080CAE4901A60F0901A60E0FFC3644F
:103F4600809484502A901A5DE0FBA3E0FAA3E02453
:103F560028F9E43AFAEF3395E0FEE92FF9EA3EFA5A
:103F6600121705FF12C55A901A60E004F080CA9035
:103F76001A67E0FF12C55A901A6AE0FF12C55A7F07
:103F86000212C55AE4FF12C55A901A65E0FF12C51F
:103F96005A901A65A3E0FF12C55AE4FF12C55AE407
:103FA600FF12C55A901A6AE030E1147F0212C55A10
:103FB6007F0412C55A7F0212C55AE4FF12C55A7F02
:013FC60001F9
:013FC70022D7
:04B951007F017E00F4
:10B95500901A50EEF0A3EFF0A3EBF0A3EAF0A3E901
:10B96500F0901A52E0FBA3E0FAA3E0F99000301240
:10B975001B0D900034121B5790002C121B93901A2C
:10B9850050E0FEA3E0FFEF2BFFEE3AFEE439FDE4C5
:10B9950038FCA3E0FBA3E0FAA3E0F9900028021B22
:01B9A500574A
:10B84C00901A5AEBF0A3EAF0A3E9F0901A5AE0FB35
:10B85C00A3E0FAA3E0F9900021ED1217907B007A97
:10B86C00007900C003C002C001901A5AE0FBA3E0AB
:10B87C00FAA3E0F990000E121CF8901A5AE0FBA300
:10B88C00E0FAA3E0F9900011E4F5F01219829000AF
:0BB89C0024E4F5F0121982123B8B220D
:0AC14700E0FBA3E0FAA3E0F97D118C
:0BC15100901A51EBF0A3EAF0A3E9F014
:10C15C0012B84CEFB40111901A51E0FBA3E0FAA312
:08C16C00E0F9E4FDFC12BE3213
:01C1740022A8
:089FE400E0FBA3E0FAA3E0F9A1
:109FEC00901A53EDF0901A50EBF0A3EAF0A3E9F0BD
:109FFC0090002012171EB43C24901A50E0FBA3E0F2
:10A00C00FAA3E0F9900028121B0DEF2401FFE43EA7
:10A01C00FEE43DFDE43CFC900028121B57901A50C6
:10A02C00E0FBA3E0FAA3E0F9A3E0FD12B84C901A10
:10A03C0054EFF064017058901A50E0FBA3E0FAA3BF
:10A04C00E0F9E4FDFC12BE32901A54EFF0D36480B8
:10A05C009480403B901A50E0FBA3E0FAA3E0243834
:10A06C00F9E43AFA7D327C0012AB81901A50E0FB95
:10A07C00A3E0FAA3E0F9900034121B0DEF2401FFCA
:10A08C00E43EFEE43DFDE43CFC900034121B579092
:04A09C001A54E0FF73
:01A0A000229D
:0B98B900901A46E0FBA3E0FAA3E0F9E0
:0B98C400901A50EBF0A3EAF0A3E9F0CB
:1098CF00901A50E0FBA3E0FAA3E0F990000E121CEF
:1098DF00C8901A53EBF0A3EAF0A3E9F0901A50E006
:1098EF00FBA3E0FAA3E0F99000111218A6FF901A5B
:1098FF0056E5F0F0A3EFF09000241218A6FF901A8F
:10990F0058E5F0F0A3EFF07D1012B84CEFB4011151
:10991F00901A50E0FBA3E0FAA3E0F9E4FDFC12BEBD
:10992F0032901A50E0FBA3E0FAA3E0F99000207404
:10993F003C121790901A53E0FBA3E0FAA3E0F9C092
:10994F0003C002C001901A50E0FBA3E0FAA3E0F9B4
:10995F0090000E121CF8901A56E0FCA3E0FD901A2E
:10996F0050E0FBA3E0FAA3E0F9900011EC8DF012A8
:10997F001982901A58E0FDA3E0900024CD8DF012CB
:02998F0019823B
:0199910022B3
:0BBFF500901A46E0FBA3E0FAA3E0F97D
:10C00000900030121B0D900034121B57900022122A
:10C01000171E901A50B402057414F080037404F0D3
:08C02000901A50E0FD12C1511D
:01C0280022F5
:0FC680007E007F207D007B017A1C79290221D664
:0B828F00901C86EBF0A3EAF0A3E9F0DE
:10829A00901C8C74A5F0121705FFC394E0500302DA
:1082AA0083B7EFD394EF40030283B7901C86E0FBB9
:1082BA00A3E0FAA3E0F8AC02AD037B017A1C7921B2
:1082CA007E007F041221B2EF70030283B7901C86EE
:1082DA0012AC13901C89EBF0A3EAF0A3E9F04A6010
:1082EA001B901C89E0FBA3E0FAA3E0F99000067456
:1082FA000112174B901C8C7402F0806912BF1B90FC
:10830A001C89EBF0A3EAF0A3E9F04A6058E4FF9075
:10831A001C86E0FBA3E0FAA3E0F98F8275830012C2
:10832A00171EFE901C89E0FBA3E0FAA3E0F98F82F6
:10833A00758300EE1217900FEFB404D3901C89E0F6
:10834A00FBA3E0FAA3E0F9900007E412179090006B
:10835A0004E4F5F012198290000674011217909045
:10836A001C8C7401F0901C8CE064017040901C8994
:10837A00E0FBA3E0FAA3E0F91287FE901C8CEFF071
:10838A00D364809480901C89E0FBA3E0FAA3E0F90F
:10839A00400512BB838016E412177E901C89E0FB0D
:1083AA00A3E0FAA3E0F9900006E4121790901C8C5F
:0283BA00E0FFE2
:0183BC00229E
:0BB4BE00901C9BEBF0A3EAF0A3E9F068
:10B4C900A374A5F0901C9BE0FBA3E0FAA3E0F8AC01
:10B4D90002AD037B017A1C79217E007F041221B21F
:10B4E900EF603A901C9B12AC13E94A603090000659
:10B4F90012171E602890000712171EFF64016004CE
:10B50900EFB4021990000674FF12174B900006124F
:10B51900171E700312177E901C9E7401F0901C9EDA
:02B52900E0FF41
:01B52B0022FD
:10769500E4901A44F012BA4C901A3AEFF064116073
:1076A50004E0B4120FC3901BC8E09408901BC7E018
:1076B50094005006901A447401F0901A44E0600357
:1076C50002778012BA4C901A3BEFF012BA4C901A1E
:1076D5003CEFF012BA4C901A3DEFF0E4901A42F0EC
:1076E500A3F012BA4C901A42E0FCA3E0243EF582C6
:1076F500741A3CF583EFF0901A43E004F07006909D
:107705001A42E004F0C3901A43E09404901A42E050
:10771500940040CE901A3AE0FFA3E0FD7B017A1A6F
:10772500793E129B3EAD07AC06ECFF901A3CE0B5E6
:107735000705A3E06D6002803C901A3AE0B4111889
:1077450078D47C1B7D017B017A1C79217E007F0426
:107755001221B2EF6002801D901A3AE0B4121C7833
:107765003E7C1A7D017B017A1B79D47E007F041251
:1077750021B2EF6006901A447401F0901A44E0605B
:1077850003027833901A3AE06411705E901A42F061
:10779500A3F0901A42E0FEA3E0FFC39404EE940028
:1077A5004003027833EF7803C333CE33CED8F924C0
:1077B50029F9741C3EFA7B01901A45EBF0A3EAF017
:1077C500A3E9F090000712171EB4020E901A45E0C7
:1077D500FBA3E0FAA3E0F912BB83901A43E004F09F
:1077E50070B0901A42E004F080A8901A3AE0641252
:1077F500703C7B017A1A793E12AC1B901A45EBF06E
:10780500A3EAF0A3E9F04A6025901A45E0FBA3E05E
:10781500FAA3E0F990000712171EB40111900007B2
:0E7825007402121790900004E4F5F01219821C
:017833002232
:08AC1300E0FBA3E0FAA3E0F965
:0BAC1B00901AB2EBF0A3EAF0A3E9F0FE
:10AC2600E4A3F0A3F0901AB5E0FEA3E0FFC39404FA
:10AC3600EE9400505EEF7803C333CE33CED8F924BA
:10AC460029F9741C3EFA7B01C003C002901AB2E0D7
:10AC5600FBA3E0FAA3E0F8AC02AD03D002D0037E7A
:10AC6600007F041221B2EF701A901AB5E0FEA3E03D
:10AC76007803C333CE33CED8F92429F9741C3EFAAF
:10AC86007B0122901AB6E004F0709A901AB5E0049F
:09AC9600F080927B007A00790045
:01AC9F002292
:10BD7400E4FDFCEDCEECCE7803C333CE33CED8F95C
:10BD84002429F9741C3EFA7B0190000712171EB493
:10BD940001149000041218A645F0600A900004747F
:10BDA400FFF5F01219160DBD00010CED64044C7082
:01BDB400C2CC
:01BDB500226B
:10B03E00E4901A3CF0A3F0901A3CE0FEA3E0FFC3AC
:10B04E009404EE94005065EF7803C333CE33CED81C
:10B05E00F92429F9741C3EFA7B01901A39EBF0A3FE
:10B06E00EAF0A3E9F090000712171EB4012E901A11
:10B07E0039E0FBA3E0FAA3E0F99000041218A6450C
:10B08E00F070191287FEEF6013901A39E0FBA3E0FF
:10B09E00FAA3E0F99000077402121790901A3DE09F
:0CB0AE0004F07093901A3CE004F0808BDA
:01B0BA002273
:1087FE00901A4274A5F0E94A7003028905C001E49B
:10880E00901ABCF0A3F0A37402F0E4A3F0F9A3C98C
:10881E00F0A3F0A3E9F0E4A3F0A3F0D001FDFC1265
:10882E004EB3901A3EEFF0C36480948050030289D9
:10883E0005E0FF3395E0FE7C007D3D1217B2747BA0
:10884E002FF974123EFA7B01A3EBF0A3EAF0A3E931
:10885E00F02404F9E43AFAE4FD7F12129B3E901ADA
:10886E0044EEF0A3EFF0901A3FE0FBA3E0FAA3E092
:10887E00F9901A6FE4F0A37408F07D02126916EFF6
:10888E00606D7F1212C55AE4FF12C55A901A44E069
:10889E00FF12C55A901A44A3E0FF12C55AE4901A6B
:1088AE0043F0901A43E0FFC364809484502A901AD8
:1088BE003FE0FBA3E0FAA3E02404F9E43AFAEF3335
:1088CE0095E0FEE92FF9EA3EFA121705FF12C55A96
:1088DE00901A43E004F080CA901A3FE0FBA3E0FA3E
:1088EE00A3E0F9E4FDFC12BE32901A427401F0903E
:0C88FE001A3EE0FF12A408901A42E0FFAE
:01890A00224A
:10BF1B00E4FDFCEDAE047803C333CE33CED8F9FF8A
:10BF2B002429F582741C3EF583E0700B74292FF9DC
:10BF3B00741C3EFA7B01220DBD00010CED64044C18
:08BF4B0070D17B007A0079003F
:01BF530022CB
:0B9B3E00901A48EBF0A3EAF0A3E9F056
:109B4900EFFEEDFFE4FCFDA3121BC3901A4BE0F8F6
:109B5900A3E0F9A3E0FAA3E0FBC000C001C002C082
:109B690003901A48E0FBA3E0FAA3E0F99000011280
:109B7900171EFD121705FEEDFFE4FCFDD003D00210
:109B8900D001D000EB2FFFEA3EFEED39FDEC38FCA9
:109B9900901A4B121BC3901A4BE0F8A3E0F9A3E00B
:109BA900FAA3E0FBC000C001C002C003901A48E05C
:109BB900FBA3E0FAA3E0F990000212171EFE900041
:109BC9000312171EFDEDFFE4FCFDD003D002D00106
:109BD900D000EB2FFFEA3EFEED39FDEC38FC901A80
:109BE9004B121BC3901A4BE0FCA3E0FDA3E0FEA3BC
:109BF900E0FF12B370901A4B121BC3901A4BE0FC92
:099C0900A3E0FDA3E0FEA3E0FFCF
:019C1200222F
:0BBB8300901A48EBF0A3EAF0A3E9F0F1
:10BB8E0012C6ABEE540FFE901C4CE07C002FFFEC67
:10BB9E003ECF2401CF3400FED3EF94E8EE94034061
:10BBAE00047E037FE8901A48E0FBA3E0FAA3E0F9D5
:10BBBE009000077401121790900004EE8FF0021996
:01BBCE0082F4
:1012390002154AE86480F8E933E83360110460F084
:10124900ED33EC337009E8FCE9FDEAFEEBFF22041B
:1012590060DED3EB9FEA9EE99DE8C2E78CF0C2F716
:1012690095F0400CE8CCF8E9CDF9EACEFAEBCFFBE2
:1012790012151585D0F05804700320D5B3E8047011
:10128900075002B2D502155492D5EC0460F7E4CCAC
:10129900C0E0C398F8603B94186008400DD0E0FBAB
:1012A90002152CE4FBFAC9FC8028E830E406E4C9FD
:1012B900FBE4CAFCE830E305E4C9CACBFCE85407FF
:1012C9006010F8C3E913F9EA13FAEB13FBEC13FC0A
:1012D900D8F130F52FC3E49CFCEF9BFFEE9AFEEDAD
:1012E90099FDD0E0FBEF4E4D4C701222DB03021545
:1012F90051EC2CFCEF33FFEE33FEED33FDED30E71F
:10130900EB02152CEF2BFFEE3AFEED39FDD0E0FB99
:1013190050130BBB0003021554ED13FDEE13FEEF42
:0813290013FFEC13FC02152C6C
:10133100EC4D6011E8497017ED33EC3304600DE4B6
:10134100FCFFFEFD22E933E8330470F802154A126E
:10135100151558046009E4CC24815006285009026F
:101361001554284003021551C0E0EB4A7044B9807E
:1013710006D0E0FB021540EF4E701CBD8008EBFF6C
:10138100EAFEE9FD80EBE98DF0A4FEE5F002141A16
:10139100E9CDF9EAFEEBFFEF89F0A4FCE5F0CE8997
:1013A100F0A42EFFE435F0CD89F0A42DFEE435F054
:1013B1008067EF4E7005BD80D780C3EF8BF0A4AC82
:1013C100F0EE8BF0A42CFCE435F0F8EF8AF0A42CBD
:1013D100E5F038FCE433CB8DF0A42CFCE5F03BF8D0
:1013E100EE8AF0A42CFCE5F038F8E433CF89F0A4C0
:1013F1002CFCE5F038CF3400CE89F0A42FFFE5F0C6
:101401003EFEE433C98DF0A42EFEE5F039CD8AF01D
:10141100A42FFFE5F03EFEE43DFD33D0E0FB500795
:101421000BBB000F021554EC2CFCEF33FFEE33FE27
:06143100ED33FD02152C55
:10143700021554EC5D046005E85904700302154A6F
:10144700121515580460F6EC4860F2EC7004FDFEC6
:10145700FF22C860DB2481C85009C3986002500688
:101467000215519850CAF582E9294B4A7005AB829B
:1014770002154075F0007C1A7880C3EF9BEE9AED59
:1014870099400DC3EF9BFFEE9AFEED99FDE842F000
:10149700DC23ACF0D0E0FFD0E0FED0E0FDAB822053
:1014A700E7101BEB60BAEC2CFCEF33FFEE33FEEDDD
:1014B70033FD02152CE803F830E705C0F075F0009E
:1014C700EF2FFFEE33FEED33FD40B830E7C280AAC1
:1014D70075F020800E75F010800575F0087D007E90
:1014E700007F003392D530D503121AB2EC33401087
:1014F700EF33FFEE33FEED33FDEC33FCD5F0ED2299
:0E150700E5F0247EA2D513CC92E7CDCEFF22D4
:108EEB009019EB121BC374FFFFFEFDFC9019EBE016
:108EFB00F8A3E0F9A3E0FAA3E0FBC3121AD660389B
:108F0B007F807E967D187C4B9019EBE0F8A3E0F9FF
:108F1B00A3E0FAA3E0FB12155F6002501B7F807E7B
:108F2B00967D187CCB9019EBE0F8A3E0F9A3E0FA5F
:108F3B00A3E0FB12155F500F9019EBE0FCA3E0FDD3
:108F4B00A3E0FEA3E0FF229019EBE0FCA3E0FDA35E
:108F5B00E0FEA3E0FF1215D89019EF121BC3901976
:108F6B00EFE0FCA3E0FDA3E0FEA3E0FFEC1214D7BF
:108F7B00C8ECC8C9EDC9CAEECACBEFCB9019EBE070
:108F8B00FCA3E0FDA3E0FEA3E0FF12123CE4FBFA1E
:108F9B00F9F812155F602640249019EFE0FCA3E06E
:108FAB00FDA3E0FEA3E0FFEF24FFFFEE34FFFEED99
:108FBB0034FFFDEC34FFFC9019EF121BC39019EF3B
:108FCB00E0FCA3E0FDA3E0FEA3E0FFEC1214D7222C
:10151500E9D2E7C933E833F892D5EDD2E7CD33EC1C
:0715250033FC5002B2D52295
:10152C00EC30E7100FBF000C0EBE00080DBD000420
:10153C000BEB6014A2D5EB13FCED92E7FD2274FFCC
:10154C00FCFDFEFF22E480F8A2D574FF13FC7D8025
:03155C00E480EF39
:10155F0074F8CC6480CCC86480C8F58204604FC333
:10156F00EB9FF5F0EA9E42F0E99D42F0E89C45F0D2
:10157F00603C501DE5825FFFE582D313CB5BCBF45C
:10158F002B5582FB50280ABA002409B90020088085
:10159F001DE5825BFBE582D313CF5FCFF4C3132F1F
:1015AF005582FF50090EBE00050DBD00010CC3EBA7
:1015BF009FF5F0EA9E42F0E99D42F0E89C45F0600D
:0915CF0007CC4820E701B3EC222F
:1015D800EDD2E7CD33EC3392D524814006E4FFFE0B
:1015E800FDFC22FCE4CFCECDCC24E0501174FF806A
:1015F800EDC3CC13CCCD13CDCE13CECF13CF047007
:07160800F030D5DE021AB23A
:10AB0100028DF9E493A3F8E493A34003F68001F2E4
:10AB110008DFF48029E493A3F85407240CC8C33355
:10AB2100C4540F4420C8834004F456800146F6DF24
:10AB3100E4800B010204081020408090BF54E47EA1
:10AB4100019360BCA3FF543F30E509541FFEE49319
:10AB5100A360010ECF54C025E060A840B8E493A3E0
:10AB6100FAE493A3F8E493A3C8C582C8CAC583CA0B
:10AB7100F0A3C8C582C8CAC583CADFE9DEE780BEC3
:01BF8B0000B5
:10160F00E709F608DFFA8046E709F208DFFA803EBD
:10161F0088828C83E709F0A3DFFA8032E309F608AA
:10162F00DFFA8078E309F208DFFA807088828C8312
:10163F00E309F0A3DFFA806489828A83E0A3F608C6
:10164F00DFFA805889828A83E0A3F208DFFA804CA0
:10165F0080D280FA80C680D4806980F28033801077
:10166F0080A680EA809A80A880DA80E280CA8033E0
:10167F0089828A83ECFAE493A3C8C582C8CCC58358
:10168F00CCF0A3C8C582C8CCC583CCDFE9DEE78028
:10169F000D89828A83E493A3F608DFF9ECFAA9F0A7
:1016AF00EDFB2289828A83ECFAE0A3C8C582C8CCFD
:1016BF00C583CCF0A3C8C582C8CCC583CCDFEADE16
:1016CF00E880DB89828A83E493A3F208DFF980CC78
:1016DF0088F0EF60010E4E60C388F0ED2402B40471
:1016EF000050B9F582EB2402B4040050AF23234518
:0616FF00822390165F73C8
:10170500BB010689828A83E0225002E722BBFE02E2
:09171500E32289828A83E4932215
:10171E00BB010CE58229F582E5833AF583E0225080
:10172E0006E92582F8E622BBFE06E92582F8E222CA
:0D173E00E58229F582E5833AF583E49322E4
:10174B00BB010FF8E58229F582E5833AF583E028A2
:10175B00F0225009C58229F8E58226F622BBFE0944
:10176B00C58229F8E22582F222F8EA2583F583E97E
:03177B009328228E
:10177E00BB010689828A83F0225002F722BBFE014A
:02178E00F32244
:10179000F8BB010DE58229F582E5833AF583E8F08F
:1017A000225006E92582C8F622BBFE05E92582C83B
:0217B000F22223
:1017B200EF8DF0A4A8F0CF8CF0A428CE8DF0A42E4B
:0217C200FE2205
:1017C400BC000BBE0029EF8DF084FFADF022E4CC09
:1017D400F875F008EF2FFFEE33FEEC33FCEE9DECD2
:1017E400984005FCEE9DFE0FD5F0E9E4CEFD22ED18
:1017F400F8F5F0EE8420D21CFEADF075F008EF2F62
:10180400FFED33FD4007985006D5F0F222C398FD52
:051814000FD5F0EA22EF
:10181900C2D5EC30E709B2D5E4C39DFDE49CFCEEEA
:1018290030E715B2D5E4C39FFFE49EFE1217C4C387
:10183900E49DFDE49CFC80031217C430D507C3E482
:061849009FFFE49EFE2259
:10184F00C5F0F8A3E028F0C5F0F8E5821582700224
:06185F001583E038F022C1
:10186500A3F8E0C5F025F0F0E58215827002158336
:06187500E0C838F0E82293
:10187B00BB010A89828A83E0F5F0A3E02250068738
:10188B00F009E71922BBFE07E3F5F009E3192289FA
:0B189B00828A83E493F5F0740193222D
:1018A600BB0110E58229F582E5833AF583E0F5F080
:1018B600A3E0225009E92582F886F008E622BBFE5D
:1018C6000AE92582F8E2F5F008E222E5832AF583A3
:0818D600E993F5F0A3E9932268
:1018DE00BB010789828A8302184F500B09C5F02776
:1018EE00F7C5F01937F722BBFE0D09F8E325F0F323
:1018FE00C5F019E338F322F889828A83740193259F
:08190E00F0C5F0F8E493382263
:10191600BB010DC58229C582C5833AC58302184F0E
:101926005011C58229F808E5F026F618F5F0E5828B
:1019360036F622BBFE11C58229F808E225F0F5F03D
:10194600F218E23582F222F8E58229F582E5832A49
:0D195600F58374019325F0F5F0E493382239
:10196300BB010A89828A83F0E5F0A3F0225006F7CF
:0F19730009A7F01922BBFE06F3E5F009F31922CC
:10198200F8BB0111E58229F582E5833AF583E8F097
:10199200E5F0A3F0225009E92582C8F608A6F02254
:0D19A200BBFE09E92582C8F2E5F008F2223B
:0D19AF00EF2BFFEE3AFEED39FDEC38FC2287
:0E19BC00C3EF9BFFEE9AFEED99FDEC98FC2226
:1019CA0075F008758200EF2FFFEE33FECD33CDCCD4
:1019DA0033CCC58233C5829BED9AEC99E582984057
:1019EA000CF582EE9BFEED9AFDEC99FC0FD5F0D634
:1019FA00E4CEFBE4CDFAE4CCF9A88222B800C1B95E
:101A0A000059BA002DEC8BF084CFCECDFCE5F0CB9B
:101A1A00F97818EF2FFFEE33FEED33FDEC33FCEBD4
:101A2A0033FB10D703994004EB99FB0FD8E5E4F98F
:101A3A00FA227818EF2FFFEE33FEED33FDEC33FC7C
:101A4A00C933C910D7059BE99A4007EC9BFCE99A70
:101A5A00F90FD8E0E4C9FAE4CCFB2275F010EF2FB5
:101A6A00FFEE33FEED33FDCC33CCC833C810D707B5
:101A7A009BEC9AE899400AED9BFDEC9AFCE899F8F0
:0E1A8A000FD5F0DAE4CDFBE4CCFAE4C8F92283
:0D1A9800EF4BFFEE4AFEED49FDEC48FC224D
:0D1AA500CFF4CFCEF4CECDF4CDCCF4CC22D6
:0E1AB200C3E49FFFE49EFEE49DFDE49CFC2245
:101AC000EB9FF5F0EA9E42F0E99D42F0EC6480C89D
:061AD00064809845F0223D
:101AD600EB9FF5F0EA9E42F0E99D42F0E89C45F066
:011AE60022DD
:101AE700E8600FECC313FCED13FDEE13FEEF13FFDD
:031AF700D8F12201
:101AFA00E8600FEFC333FFEE33FEED33FDEC33FC4A
:031B0A00D8F122ED
:101B0D00BB010DE58229F582E5833AF583021B7B46
:101B1D005007E92582F8022202BBFE07E92582F86B
:101B2D0002220EE58229F582E5833AF58302221A17
:101B3D00BB010789828A83021BC35005E9F8022283
:0A1B4D0054BBFE05E9F802226022F5
:101B5700BB010DE58229F582E5833AF583021BC3B4
:101B67005007E92582F8022254BBFE07E92582F8CF
:041B770002226022C4
:0C1B7B00E0FCA3E0FDA3E0FEA3E0FF22DD
:0C1B8700E0F8A3E0F9A3E0FAA3E0FB22E1
:101B9300BB010DE58229F582E5833AF583021B87B4
:101BA3005007E92582F802222ABBFE07E92582F8BD
:101BB300022237E58229F582E5833AF5830222443E
:0C1BC300ECF0A3EDF0A3EEF0A3EFF02295
:101BCF00A8828583F0D083D082121BE6121BE61207
:101BDF001BE6121BE6E473E493A3C583C5F0C5832C
:101BEF00C8C582C8F0A3C583C5F0C583C8C582C860
:011BFF0022C3
:101C0000BB010DE58229F582E5833AF583021BCFFE
:101C10005007E92582F802226CBBFE07E92582F80D
:041C200002228522F5
:0C1C2400A42582F582E5F03583F58322CB
:091C3000E0FBA3E0FAA3E0F922B5
:101C3900F8E0FBA3A3E0F925F0F0E5821582700234
:071C49001583E0FA38F022D8
:091C5000EBF0A3EAF0A3E9F02295
:101C5900BB010789828A83021C305005E9F80222F8
:101C69009EBBFE05E9F80222B089828A830222C25C
:101C7900BB011A89828A83D0F0D0E0F8D0E0F9D08C
:101C8900E0FAD0E0FBE8C0E0C0F0021C505016E9D1
:101C9900F8D083D082D0E0F9D0E0FAD0E0FBC0825E
:101CA900C0830222A7BBFE16E9F8D083D082D0E018
:0F1CB900F9D0E0FAD0E0FBC082C0830222B9224A
:101CC800BB010DE58229F582E5833AF583021C30D4
:101CD8005007E92582F802229EBBFE07E92582F813
:101CE8000222B0E58229F582E5833AF5830222C211
:101CF800BB0120E58229F582E5833AF583D0F0D04F
:101D0800E0F8D0E0F9D0E0FAD0E0FBE8C0E0C0F0BD
:101D1800021C505018E92582F8D083D082D0E0F90F
:101D2800D0E0FAD0E0FBC082C0830222A7BBFE1835
:101D3800E92582F8D083D082D0E0F9D0E0FAD0E06B
:091D4800FBC082C0830222B92213
:101D5100D083D082F8E4937012740193700DA3A321
:101D610093F8740193F5828883E473740293686035
:061D7100EFA3A3A380DF35
:101D7700E5112582F582E5103583F583B5100485D5
:101D870082112210AF06858211F51022858211F586
:041D970010D2AF2295
:0D1D9B00E5112582F582E5103583F58322E0
:101DA800E3F5F009E208B5F06D606B80F3E3F5F058
:101DB80009E608B5F060605E80F387F009E608B5CB
:101DC800F054605280F487F009E208B5F0486046A4
:101DD80080F488828C8387F009E0A3B5F0386036F8
:101DE80080F488828C8387F009E493A3B5F0276098
:101DF8002580F388828C83E3F5F009E0A3B5F0161B
:101E0800601480F388828C83E3F5F009E493A3B52A
:101E1800F004600280F2021ED3808580E7808E8005
:101E2800D2803C8015806C807E809B80B5808B80C2
:101E3800A1804F8070803A021EDF89828A83ECFA83
:101E4800E493F5F0A3C8C582C8CCC583CCE493A3BA
:101E5800C8C582C8CCC583CCB5F070606E80E189F6
:101E6800828A83E493F5F0A3E208B5F05E605C80B3
:101E7800F289828A83E0F5F0A3E608B5F04D604B5D
:101E880080F389828A83E0F5F0A3E208B5F03C602C
:101E98003A80F389828A83E493F5F0A3E608B5F0E3
:101EA8002A602880F2805389828A83ECFAE493F5C9
:101EB800F0A3C8C582C8CCC583CCE0A3C8C582C876
:101EC800CCC583CCB5F004600280E27FFFB5F00298
:101ED8000F2240027F012289828A83ECFAE0F5F022
:101EE800A3C8C582C8CCC583CCE0A3C8C582C8CC6A
:101EF800C583CCB5F0D560D380E389828A83ECFAB8
:101F0800E0F5F0A3C8C582C8CCC583CCE493A3C8C8
:101F1800C582C8CCC583CCB5F0B160AF80E288F08B
:101F2800ED2402B4040050A3F582EB2402B40400AB
:0B1F380050992323458223901E217343
:101F4300E709F60870FA8046E709F20870FA803E5E
:101F530088828C83E709F0A370FA807EE309F60890
:101F630070FA8076E309F20870FA806E88828C83B7
:101F7300E309F0A370FA806289828A83E0A3F608FA
:101F830070FA805689828A83E0A3F20870FA804A45
:101F930080D280FA80C680D4806580F28031801040
:101FA30080A680EA809A80A880DA80E280CA8031A5
:101FB30089828A83ECFAE493A3C8C582C8CCC5831B
:101FC300CCF0A3C8C582C8CCC583CC70E9800D8989
:101FD300828A83E493A3F60870F9ECFAA9F0EDFB87
:101FE3002289828A83ECFAE0A3C8C582C8CCC58360
:101FF300CCF0A3C8C582C8CCC583CC70EA80DD8988
:10200300828A83E493A3F20870F980CE88F0ED24EA
:1020130002B4040050C4F582EB2402B4040050BAA5
:092023002323458223901F9373CF
:10C5B600E4FFFE121705600C0FEF70010E09E9701B
:05C5C600F20A80EF22E3
:10202C00E3F5F009E208B5F06BDFF58067E3F5F056
:10203C0009E608B5F05EDFF5805A87F009E608B5C9
:10204C00F052DFF6804E87F009E208B5F046DFF675
:10205C00804288828C8387F009E0A3B5F036DFF6E6
:10206C00803288828C8387F009E493A3B5F025DF56
:10207C00F5802188828C83E3F5F009E0A3B5F01498
:10208C00DFF5801088828C83E3F5F009E493A3B527
:10209C00F002DFF402215B808780E9809080D4809D
:1020AC003E8015806E807E809D80B7808D80A38061
:1020BC00518074803C02216789828A83ECFAE49314
:1020CC00F5F0A3C8C582C8CCC583CCE493A3C8C51E
:1020DC0082C8CCC583CCB5F076DFE3DEE1807089B5
:1020EC00828A83E493F5F0A3E208B5F062DFF48012
:1020FC005E89828A83E0F5F0A3E608B5F051DFF53E
:10210C00804D89828A83E0F5F0A3E208B5F040DFC8
:10211C00F5803C89828A83E493F5F0A3E608B5F058
:10212C002EDFF4802A8002805789828A83ECFAE4BD
:10213C0093F5F0A3C8C582C8CCC583CCE0A3C8C5B1
:10214C0082C8CCC583CCB5F006DFE4DEE280007F2C
:10215C00FFB5F0020F2240027F012289828A83ECB4
:10216C00FAE0F5F0A3C8C582C8CCC583CCE0A3C8FF
:10217C00C582C8CCC583CCB5F0D5DFE5DEE380CF16
:10218C0089828A83ECFAE0F5F0A3C8C582C8CCC575
:10219C0083CCE493A3C8C582C8CCC583CCB5F0AFBF
:1021AC00DFE4DEE280A988F0EF60010E4E60ABED5B
:1021BC002402B404005098F582EB2402B4040050BD
:0A21CC008E23234582239020A37385
:1021D600EF4E6012EF60010EEDBB010B89828A8320
:1021E600F0A3DFFCDEFA2289F05007F709DFFCA92D
:0C21F600F022BBFEFCF309DFFCA9F02284
:0C220200E6FC08E6FD08E6FE08E6FF2208
:0C220E00E2FC08E2FD08E2FE08E2FF220C
:10221A00E493FC740193FD740293FE740393FF220A
:0D222A00E6FB08E6F908E6FA08E6CBF82224
:0D223700E2FB08E2F908E2FA08E2CBF82227
:10224400E493F8740193F9740293FA740393FB22F0
:0C225400ECF608EDF608EEF608EFF622B6
:0C226000ECF208EDF208EEF208EFF222BA
:10226C00D083D082E493F608740193F60874029339
:09227C00F608740393F674047370
:10228500D083D082E493F208740193F20874029328
:09229500F208740393F27404735F
:09229E00E6FB08E6FA08E6F92265
:0922A700EBF608EAF608E9F6225C
:0922B000E2FB08E2FA08E2F9225F
:0922B900EBF208EAF208E9F22256
:0C22C200E493FB740193FA740293F92278
:00000001FF
